{"contracts/SupplyChainManagement.sol":{"SupplyChainManagement":{"abi":[{"inputs":[{"internalType":"address","name":"_manufacturer","type":"address"},{"internalType":"address","name":"_logistic","type":"address"},{"internalType":"address","name":"_retailer","type":"address"},{"internalType":"address","name":"_consumer","type":"address"}],"stateMutability":"nonpayable","type":"constructor"},{"inputs":[],"name":"AccessControlBadConfirmation","type":"error"},{"inputs":[{"internalType":"address","name":"account","type":"address"},{"internalType":"bytes32","name":"neededRole","type":"bytes32"}],"name":"AccessControlUnauthorizedAccount","type":"error"},{"anonymous":false,"inputs":[{"indexed":false,"internalType":"uint256","name":"productId","type":"uint256"}],"name":"DistributionRequested","type":"event"},{"anonymous":false,"inputs":[{"indexed":false,"internalType":"uint256","name":"productId","type":"uint256"},{"indexed":false,"internalType":"string","name":"name","type":"string"},{"indexed":false,"internalType":"uint256","name":"price","type":"uint256"},{"indexed":false,"internalType":"uint256","name":"quantity","type":"uint256"}],"name":"ProductCreated","type":"event"},{"anonymous":false,"inputs":[{"indexed":false,"internalType":"uint256","name":"productId","type":"uint256"},{"indexed":false,"internalType":"uint256","name":"price","type":"uint256"},{"indexed":false,"internalType":"address","name":"listedBy","type":"address"}],"name":"ProductListedForSale","type":"event"},{"anonymous":false,"inputs":[{"indexed":false,"internalType":"uint256","name":"productId","type":"uint256"},{"indexed":false,"internalType":"address","name":"orderedBy","type":"address"}],"name":"ProductOrdered","type":"event"},{"anonymous":false,"inputs":[{"indexed":false,"internalType":"uint256","name":"productId","type":"uint256"},{"indexed":false,"internalType":"uint256","name":"quantity","type":"uint256"},{"indexed":false,"internalType":"address","name":"purchasedBy","type":"address"}],"name":"ProductPurchased","type":"event"},{"anonymous":false,"inputs":[{"indexed":false,"internalType":"uint256","name":"productId","type":"uint256"},{"indexed":false,"internalType":"address","name":"receivedBy","type":"address"}],"name":"ProductReceived","type":"event"},{"anonymous":false,"inputs":[{"indexed":false,"internalType":"uint256","name":"productId","type":"uint256"}],"name":"ProductShipped","type":"event"},{"anonymous":false,"inputs":[{"indexed":true,"internalType":"bytes32","name":"role","type":"bytes32"},{"indexed":true,"internalType":"bytes32","name":"previousAdminRole","type":"bytes32"},{"indexed":true,"internalType":"bytes32","name":"newAdminRole","type":"bytes32"}],"name":"RoleAdminChanged","type":"event"},{"anonymous":false,"inputs":[{"indexed":true,"internalType":"bytes32","name":"role","type":"bytes32"},{"indexed":true,"internalType":"address","name":"account","type":"address"},{"indexed":true,"internalType":"address","name":"sender","type":"address"}],"name":"RoleGranted","type":"event"},{"anonymous":false,"inputs":[{"indexed":true,"internalType":"bytes32","name":"role","type":"bytes32"},{"indexed":true,"internalType":"address","name":"account","type":"address"},{"indexed":true,"internalType":"address","name":"sender","type":"address"}],"name":"RoleRevoked","type":"event"},{"anonymous":false,"inputs":[{"indexed":false,"internalType":"uint256","name":"productId","type":"uint256"},{"indexed":false,"internalType":"string","name":"newStatus","type":"string"}],"name":"ShippingStatusUpdated","type":"event"},{"inputs":[],"name":"CONSUMER_ROLE","outputs":[{"internalType":"bytes32","name":"","type":"bytes32"}],"stateMutability":"view","type":"function"},{"inputs":[],"name":"DEFAULT_ADMIN_ROLE","outputs":[{"internalType":"bytes32","name":"","type":"bytes32"}],"stateMutability":"view","type":"function"},{"inputs":[],"name":"LOGISTICS_ROLE","outputs":[{"internalType":"bytes32","name":"","type":"bytes32"}],"stateMutability":"view","type":"function"},{"inputs":[],"name":"MANUFACTURER_ROLE","outputs":[{"internalType":"bytes32","name":"","type":"bytes32"}],"stateMutability":"view","type":"function"},{"inputs":[],"name":"RETAILER_ROLE","outputs":[{"internalType":"bytes32","name":"","type":"bytes32"}],"stateMutability":"view","type":"function"},{"inputs":[{"internalType":"address","name":"","type":"address"},{"internalType":"uint256","name":"","type":"uint256"}],"name":"consumerPurchases","outputs":[{"internalType":"uint256","name":"id","type":"uint256"},{"internalType":"string","name":"name","type":"string"},{"internalType":"uint256","name":"price","type":"uint256"},{"internalType":"uint256","name":"quantity","type":"uint256"},{"internalType":"bool","name":"buyable","type":"bool"}],"stateMutability":"view","type":"function"},{"inputs":[{"internalType":"uint256","name":"productId","type":"uint256"},{"internalType":"string","name":"name","type":"string"},{"internalType":"uint256","name":"price","type":"uint256"},{"internalType":"uint256","name":"quantity","type":"uint256"}],"name":"createProduct","outputs":[],"stateMutability":"nonpayable","type":"function"},{"inputs":[{"internalType":"uint256","name":"","type":"uint256"}],"name":"deliveryList","outputs":[{"internalType":"uint256","name":"id","type":"uint256"},{"internalType":"string","name":"status","type":"string"},{"internalType":"uint256","name":"quantity","type":"uint256"}],"stateMutability":"view","type":"function"},{"inputs":[{"internalType":"address","name":"consumer","type":"address"}],"name":"getAllConsumerPurchases","outputs":[{"components":[{"internalType":"uint256","name":"id","type":"uint256"},{"internalType":"string","name":"name","type":"string"},{"internalType":"uint256","name":"price","type":"uint256"},{"internalType":"uint256","name":"quantity","type":"uint256"},{"internalType":"bool","name":"buyable","type":"bool"}],"internalType":"struct SupplyChainManagement.Products[]","name":"","type":"tuple[]"}],"stateMutability":"view","type":"function"},{"inputs":[],"name":"getAllDeliveries","outputs":[{"components":[{"internalType":"uint256","name":"id","type":"uint256"},{"internalType":"string","name":"status","type":"string"},{"internalType":"uint256","name":"quantity","type":"uint256"}],"internalType":"struct SupplyChainManagement.Delivery[]","name":"","type":"tuple[]"}],"stateMutability":"view","type":"function"},{"inputs":[],"name":"getAllManufacturerProducts","outputs":[{"components":[{"internalType":"uint256","name":"id","type":"uint256"},{"internalType":"string","name":"name","type":"string"},{"internalType":"uint256","name":"price","type":"uint256"},{"internalType":"uint256","name":"quantity","type":"uint256"},{"internalType":"bool","name":"buyable","type":"bool"}],"internalType":"struct SupplyChainManagement.Products[]","name":"","type":"tuple[]"}],"stateMutability":"view","type":"function"},{"inputs":[],"name":"getAllRetailerProducts","outputs":[{"components":[{"internalType":"uint256","name":"id","type":"uint256"},{"internalType":"string","name":"name","type":"string"},{"internalType":"uint256","name":"price","type":"uint256"},{"internalType":"uint256","name":"quantity","type":"uint256"},{"internalType":"bool","name":"buyable","type":"bool"}],"internalType":"struct SupplyChainManagement.Products[]","name":"","type":"tuple[]"}],"stateMutability":"view","type":"function"},{"inputs":[{"internalType":"bytes32","name":"role","type":"bytes32"}],"name":"getRoleAdmin","outputs":[{"internalType":"bytes32","name":"","type":"bytes32"}],"stateMutability":"view","type":"function"},{"inputs":[{"internalType":"bytes32","name":"role","type":"bytes32"},{"internalType":"address","name":"account","type":"address"}],"name":"grantRole","outputs":[],"stateMutability":"nonpayable","type":"function"},{"inputs":[{"internalType":"bytes32","name":"role","type":"bytes32"},{"internalType":"address","name":"account","type":"address"}],"name":"hasRole","outputs":[{"internalType":"bool","name":"","type":"bool"}],"stateMutability":"view","type":"function"},{"inputs":[{"internalType":"uint256","name":"productId","type":"uint256"},{"internalType":"uint256","name":"price","type":"uint256"}],"name":"listProductForSale","outputs":[],"stateMutability":"nonpayable","type":"function"},{"inputs":[],"name":"manufacturerAddress","outputs":[{"internalType":"address","name":"","type":"address"}],"stateMutability":"view","type":"function"},{"inputs":[{"internalType":"uint256","name":"","type":"uint256"}],"name":"manufacturerInventory","outputs":[{"internalType":"uint256","name":"id","type":"uint256"},{"internalType":"string","name":"name","type":"string"},{"internalType":"uint256","name":"price","type":"uint256"},{"internalType":"uint256","name":"quantity","type":"uint256"},{"internalType":"bool","name":"buyable","type":"bool"}],"stateMutability":"view","type":"function"},{"inputs":[{"internalType":"uint256","name":"productId","type":"uint256"},{"internalType":"uint256","name":"quantity","type":"uint256"}],"name":"orderProduct","outputs":[],"stateMutability":"payable","type":"function"},{"inputs":[{"internalType":"uint256","name":"productId","type":"uint256"},{"internalType":"uint256","name":"quantity","type":"uint256"}],"name":"purchaseProduct","outputs":[],"stateMutability":"payable","type":"function"},{"inputs":[{"internalType":"uint256","name":"productId","type":"uint256"}],"name":"receiveProduct","outputs":[],"stateMutability":"nonpayable","type":"function"},{"inputs":[{"internalType":"bytes32","name":"role","type":"bytes32"},{"internalType":"address","name":"callerConfirmation","type":"address"}],"name":"renounceRole","outputs":[],"stateMutability":"nonpayable","type":"function"},{"inputs":[{"internalType":"uint256","name":"productId","type":"uint256"},{"internalType":"uint256","name":"quantity","type":"uint256"}],"name":"requestDistribution","outputs":[],"stateMutability":"nonpayable","type":"function"},{"inputs":[],"name":"retailerAddress","outputs":[{"internalType":"address","name":"","type":"address"}],"stateMutability":"view","type":"function"},{"inputs":[{"internalType":"uint256","name":"","type":"uint256"}],"name":"retailerInventory","outputs":[{"internalType":"uint256","name":"id","type":"uint256"},{"internalType":"string","name":"name","type":"string"},{"internalType":"uint256","name":"price","type":"uint256"},{"internalType":"uint256","name":"quantity","type":"uint256"},{"internalType":"bool","name":"buyable","type":"bool"}],"stateMutability":"view","type":"function"},{"inputs":[{"internalType":"bytes32","name":"role","type":"bytes32"},{"internalType":"address","name":"account","type":"address"}],"name":"revokeRole","outputs":[],"stateMutability":"nonpayable","type":"function"},{"inputs":[{"internalType":"bytes32","name":"role","type":"bytes32"},{"internalType":"address","name":"account","type":"address"}],"name":"setupRole","outputs":[],"stateMutability":"nonpayable","type":"function"},{"inputs":[{"internalType":"uint256","name":"productId","type":"uint256"},{"internalType":"uint256","name":"quantity","type":"uint256"}],"name":"shipProduct","outputs":[],"stateMutability":"nonpayable","type":"function"},{"inputs":[{"internalType":"bytes4","name":"interfaceId","type":"bytes4"}],"name":"supportsInterface","outputs":[{"internalType":"bool","name":"","type":"bool"}],"stateMutability":"view","type":"function"},{"inputs":[{"internalType":"uint256","name":"productId","type":"uint256"}],"name":"verifyProductAuthenticity","outputs":[{"internalType":"bool","name":"isAuthentic","type":"bool"},{"internalType":"bool","name":"isAvailableForPurchase","type":"bool"},{"internalType":"uint256","name":"price","type":"uint256"}],"stateMutability":"view","type":"function"}],"evm":{"bytecode":{"linkReferences":{},"object":"60806040523480156200001157600080fd5b506040516200472d3803806200472d8339818101604052810190620000379190620003c8565b6200004c6000801b33620001e960201b60201c565b5083600160006101000a81548173ffffffffffffffffffffffffffffffffffffffff021916908373ffffffffffffffffffffffffffffffffffffffff16021790555081600260006101000a81548173ffffffffffffffffffffffffffffffffffffffff021916908373ffffffffffffffffffffffffffffffffffffffff160217905550620001237feefb95e842a3287179d933b4460be539a1d5af11aa8b325bb45c5c8dc92de4ed600160009054906101000a900473ffffffffffffffffffffffffffffffffffffffff16620001e960201b60201c565b50620001787f2a5f906c256a5d799494fcd066e1f6c077689de1cdb65052a1624de4bace99bf600260009054906101000a900473ffffffffffffffffffffffffffffffffffffffff16620001e960201b60201c565b50620001ab7fded9b5e0e0e3a2b3f09a0bc36ec64b9bf7a7c2319f3c4d9cff5ce48714257b2184620001e960201b60201c565b50620001de7f9d56108290ea0bc9c5c59c3ad357dca9d1b29ed7f3ae1443bef2fa2159bdf5e882620001e960201b60201c565b50505050506200043a565b6000620001fd8383620002ec60201b60201c565b620002e157600160008085815260200190815260200160002060000160008473ffffffffffffffffffffffffffffffffffffffff1673ffffffffffffffffffffffffffffffffffffffff16815260200190815260200160002060006101000a81548160ff0219169083151502179055506200027d6200035660201b60201c565b73ffffffffffffffffffffffffffffffffffffffff168273ffffffffffffffffffffffffffffffffffffffff16847f2f8788117e7eff1d82e926ec794901d17c78024a50270940304540a733656f0d60405160405180910390a460019050620002e6565b600090505b92915050565b600080600084815260200190815260200160002060000160008373ffffffffffffffffffffffffffffffffffffffff1673ffffffffffffffffffffffffffffffffffffffff16815260200190815260200160002060009054906101000a900460ff16905092915050565b600033905090565b600080fd5b600073ffffffffffffffffffffffffffffffffffffffff82169050919050565b6000620003908262000363565b9050919050565b620003a28162000383565b8114620003ae57600080fd5b50565b600081519050620003c28162000397565b92915050565b60008060008060808587031215620003e557620003e46200035e565b5b6000620003f587828801620003b1565b94505060206200040887828801620003b1565b93505060406200041b87828801620003b1565b92505060606200042e87828801620003b1565b91505092959194509250565b6142e3806200044a6000396000f3fe6080604052600436106101cd5760003560e01c80638b061960116100f7578063b7df2fde11610095578063f1f8ec4311610064578063f1f8ec43146106b6578063f4a44d2d146106e1578063fa82ac761461070a578063fafa980014610733576101cd565b8063b7df2fde1461061b578063bc2ebf7514610637578063c602d3fb14610662578063d547741f1461068d576101cd565b8063965288b0116100d1578063965288b014610580578063a0440426146105ab578063a217fddf146105c7578063b17fd27b146105f2576101cd565b80638b061960146104ef5780638f00c3151461051857806391d1485414610543576101cd565b80634734808c1161016f5780636de2aff61161013e5780636de2aff61461040357806373971dee1461042e578063767bdff11461046f5780637762856e146104ae576101cd565b80634734808c1461031b5780634a23024d1461035c5780634bc02da614610399578063517b65e2146103c4576101cd565b8063248a9ca3116101ab578063248a9ca31461026357806329d78328146102a05780632f2ff15d146102c957806336568abe146102f2576101cd565b806301ffc9a7146101d2578063022ec6881461020f5780632115e7bf14610238575b600080fd5b3480156101de57600080fd5b506101f960048036038101906101f49190612c73565b61075e565b6040516102069190612cbb565b60405180910390f35b34801561021b57600080fd5b5061023660048036038101906102319190612d0c565b6107d8565b005b34801561024457600080fd5b5061024d6109c2565b60405161025a9190612d65565b60405180910390f35b34801561026f57600080fd5b5061028a60048036038101906102859190612dac565b6109e6565b6040516102979190612d65565b60405180910390f35b3480156102ac57600080fd5b506102c760048036038101906102c29190612dd9565b610a05565b005b3480156102d557600080fd5b506102f060048036038101906102eb9190612e64565b610d8d565b005b3480156102fe57600080fd5b5061031960048036038101906103149190612e64565b610daf565b005b34801561032757600080fd5b50610342600480360381019061033d9190612ea4565b610e2a565b604051610353959493929190612f83565b60405180910390f35b34801561036857600080fd5b50610383600480360381019061037e9190612fdd565b610f02565b60405161039091906131aa565b60405180910390f35b3480156103a557600080fd5b506103ae6111b8565b6040516103bb9190612d65565b60405180910390f35b3480156103d057600080fd5b506103eb60048036038101906103e69190612dd9565b6111dc565b6040516103fa939291906131cc565b60405180910390f35b34801561040f57600080fd5b5061041861128e565b6040516104259190613219565b60405180910390f35b34801561043a57600080fd5b5061045560048036038101906104509190612dd9565b6112b4565b604051610466959493929190612f83565b60405180910390f35b34801561047b57600080fd5b5061049660048036038101906104919190612dd9565b61137f565b6040516104a593929190613234565b60405180910390f35b3480156104ba57600080fd5b506104d560048036038101906104d09190612dd9565b611491565b6040516104e6959493929190612f83565b60405180910390f35b3480156104fb57600080fd5b5061051660048036038101906105119190612d0c565b61155c565b005b34801561052457600080fd5b5061052d61175a565b60405161053a919061337d565b60405180910390f35b34801561054f57600080fd5b5061056a60048036038101906105659190612e64565b6118de565b6040516105779190612cbb565b60405180910390f35b34801561058c57600080fd5b50610595611948565b6040516105a29190612d65565b60405180910390f35b6105c560048036038101906105c09190612d0c565b61196c565b005b3480156105d357600080fd5b506105dc611e72565b6040516105e99190612d65565b60405180910390f35b3480156105fe57600080fd5b5061061960048036038101906106149190612d0c565b611e79565b005b61063560048036038101906106309190612d0c565b611fc4565b005b34801561064357600080fd5b5061064c612322565b60405161065991906131aa565b60405180910390f35b34801561066e57600080fd5b506106776124cb565b6040516106849190612d65565b60405180910390f35b34801561069957600080fd5b506106b460048036038101906106af9190612e64565b6124ef565b005b3480156106c257600080fd5b506106cb612511565b6040516106d89190613219565b60405180910390f35b3480156106ed57600080fd5b50610708600480360381019061070391906134d4565b612537565b005b34801561071657600080fd5b50610731600480360381019061072c9190612e64565b6126f7565b005b34801561073f57600080fd5b50610748612752565b60405161075591906131aa565b60405180910390f35b60007f7965db0b000000000000000000000000000000000000000000000000000000007bffffffffffffffffffffffffffffffffffffffffffffffffffffffff1916827bffffffffffffffffffffffffffffffffffffffffffffffffffffffff191614806107d157506107d0826128fb565b5b9050919050565b6108027fded9b5e0e0e3a2b3f09a0bc36ec64b9bf7a7c2319f3c4d9cff5ce48714257b21336118de565b610841576040517f08c379a0000000000000000000000000000000000000000000000000000000008152600401610838906135c9565b60405180910390fd5b60006005600084815260200190815260200160002090506040518060400160405280601281526020017f72656164795f666f725f736869706d656e74000000000000000000000000000081525080519060200120600760008581526020019081526020016000206001016040516108b891906136ec565b604051809103902014610900576040517f08c379a00000000000000000000000000000000000000000000000000000000081526004016108f790613775565b60405180910390fd5b6040518060400160405280600781526020017f73686970706564000000000000000000000000000000000000000000000000008152506007600085815260200190815260200160002060010190816109589190613941565b508160056000858152602001908152602001600020600301600082825461097f9190613a42565b925050819055507ff91b0b39fbb56d78224050bb7e56777ee7aca5ed18ada91cc9c21677db7f9abe836040516109b59190613a76565b60405180910390a1505050565b7f2a5f906c256a5d799494fcd066e1f6c077689de1cdb65052a1624de4bace99bf81565b6000806000838152602001908152602001600020600101549050919050565b610a2f7f2a5f906c256a5d799494fcd066e1f6c077689de1cdb65052a1624de4bace99bf336118de565b610a6e576040517f08c379a0000000000000000000000000000000000000000000000000000000008152600401610a6590613add565b60405180910390fd5b6040518060400160405280600781526020017f73686970706564000000000000000000000000000000000000000000000000008152508051906020012060076000838152602001908152602001600020600101604051610ace91906136ec565b604051809103902014610b16576040517f08c379a0000000000000000000000000000000000000000000000000000000008152600401610b0d90613b49565b60405180910390fd5b6040518060400160405280600881526020017f7265636569766564000000000000000000000000000000000000000000000000815250600760008381526020019081526020016000206001019081610b6e9190613941565b50600060066000838152602001908152602001600020600301541115610bd6576007600082815260200190815260200160002060020154600660008381526020019081526020016000206003016000828254610bca9190613b69565b92505081905550610d35565b6040518060a00160405280828152602001600560008481526020019081526020016000206001018054610c0890613618565b80601f0160208091040260200160405190810160405280929190818152602001828054610c3490613618565b8015610c815780601f10610c5657610100808354040283529160200191610c81565b820191906000526020600020905b815481529060010190602001808311610c6457829003601f168201915b5050505050815260200160056000848152602001908152602001600020600201548152602001600760008481526020019081526020016000206002015481526020016000151581525060066000838152602001908152602001600020600082015181600001556020820151816001019081610cfc9190613941565b50604082015181600201556060820151816003015560808201518160040160006101000a81548160ff0219169083151502179055509050505b600060076000838152602001908152602001600020600201819055507f7eb38f83fec1bdc45e831c15e9e3eb2369028929a0e38e3709b7e710362f823b8133604051610d82929190613b9d565b60405180910390a150565b610d96826109e6565b610d9f81612965565b610da98383612979565b50505050565b610db7612a6a565b73ffffffffffffffffffffffffffffffffffffffff168173ffffffffffffffffffffffffffffffffffffffff1614610e1b576040517f6697b23200000000000000000000000000000000000000000000000000000000815260040160405180910390fd5b610e258282612a72565b505050565b600460205281600052604060002060205280600052604060002060009150915050806000015490806001018054610e6090613618565b80601f0160208091040260200160405190810160405280929190818152602001828054610e8c90613618565b8015610ed95780601f10610eae57610100808354040283529160200191610ed9565b820191906000526020600020905b815481529060010190602001808311610ebc57829003601f168201915b5050505050908060020154908060030154908060040160009054906101000a900460ff16905085565b60606000805b600380549050811015610fab576000600460008673ffffffffffffffffffffffffffffffffffffffff1673ffffffffffffffffffffffffffffffffffffffff168152602001908152602001600020600060038481548110610f6c57610f6b613bc6565b5b90600052602060002001548152602001908152602001600020600301541115610f9e578180610f9a90613bf5565b9250505b8080600101915050610f08565b5060008167ffffffffffffffff811115610fc857610fc76133a9565b5b60405190808252806020026020018201604052801561100157816020015b610fee612bb5565b815260200190600190039081610fe65790505b5090506000805b6003805490508110156111ac5760006003828154811061102b5761102a613bc6565b5b906000526020600020015490506000600460008973ffffffffffffffffffffffffffffffffffffffff1673ffffffffffffffffffffffffffffffffffffffff1681526020019081526020016000206000838152602001908152602001600020905060008160030154111561119d57806040518060a0016040529081600082015481526020016001820180546110bf90613618565b80601f01602080910402602001604051908101604052809291908181526020018280546110eb90613618565b80156111385780601f1061110d57610100808354040283529160200191611138565b820191906000526020600020905b81548152906001019060200180831161111b57829003601f168201915b5050505050815260200160028201548152602001600382015481526020016004820160009054906101000a900460ff16151515158152505085858151811061118357611182613bc6565b5b6020026020010181905250838061119990613bf5565b9450505b50508080600101915050611008565b50819350505050919050565b7f9d56108290ea0bc9c5c59c3ad357dca9d1b29ed7f3ae1443bef2fa2159bdf5e881565b600760205280600052604060002060009150905080600001549080600101805461120590613618565b80601f016020809104026020016040519081016040528092919081815260200182805461123190613618565b801561127e5780601f106112535761010080835404028352916020019161127e565b820191906000526020600020905b81548152906001019060200180831161126157829003601f168201915b5050505050908060020154905083565b600260009054906101000a900473ffffffffffffffffffffffffffffffffffffffff1681565b60066020528060005260406000206000915090508060000154908060010180546112dd90613618565b80601f016020809104026020016040519081016040528092919081815260200182805461130990613618565b80156113565780601f1061132b57610100808354040283529160200191611356565b820191906000526020600020905b81548152906001019060200180831161133957829003601f168201915b5050505050908060020154908060030154908060040160009054906101000a900460ff16905085565b600080600080600660008681526020019081526020016000206040518060a0016040529081600082015481526020016001820180546113bd90613618565b80601f01602080910402602001604051908101604052809291908181526020018280546113e990613618565b80156114365780601f1061140b57610100808354040283529160200191611436565b820191906000526020600020905b81548152906001019060200180831161141957829003601f168201915b5050505050815260200160028201548152602001600382015481526020016004820160009054906101000a900460ff161515151581525050905060008160000151141593508060800151925080604001519150509193909250565b60056020528060005260406000206000915090508060000154908060010180546114ba90613618565b80601f01602080910402602001604051908101604052809291908181526020018280546114e690613618565b80156115335780601f1061150857610100808354040283529160200191611533565b820191906000526020600020905b81548152906001019060200180831161151657829003601f168201915b5050505050908060020154908060030154908060040160009054906101000a900460ff16905085565b6115867feefb95e842a3287179d933b4460be539a1d5af11aa8b325bb45c5c8dc92de4ed336118de565b6115c5576040517f08c379a00000000000000000000000000000000000000000000000000000000081526004016115bc90613c89565b60405180910390fd5b806005600084815260200190815260200160002060030154101561161e576040517f08c379a000000000000000000000000000000000000000000000000000000000815260040161161590613d1b565b60405180910390fd5b6040518060400160405280600781526020017f6f72646572656400000000000000000000000000000000000000000000000000815250805190602001206007600084815260200190815260200160002060010160405161167e91906136ec565b6040518091039020146116c6576040517f08c379a00000000000000000000000000000000000000000000000000000000081526004016116bd90613d87565b60405180910390fd5b6040518060400160405280601281526020017f72656164795f666f725f736869706d656e74000000000000000000000000000081525060076000848152602001908152602001600020600101908161171e9190613941565b507f378514350c4bbcf672d056c7987dd2d2c980ce4c582249530d8992acc682dc328260405161174e9190613a76565b60405180910390a15050565b6060600060038054905067ffffffffffffffff81111561177d5761177c6133a9565b5b6040519080825280602002602001820160405280156117b657816020015b6117a3612be6565b81526020019060019003908161179b5790505b50905060005b6003805490508110156118d65760076000600383815481106117e1576117e0613bc6565b5b906000526020600020015481526020019081526020016000206040518060600160405290816000820154815260200160018201805461181f90613618565b80601f016020809104026020016040519081016040528092919081815260200182805461184b90613618565b80156118985780601f1061186d57610100808354040283529160200191611898565b820191906000526020600020905b81548152906001019060200180831161187b57829003601f168201915b505050505081526020016002820154815250508282815181106118be576118bd613bc6565b5b602002602001018190525080806001019150506117bc565b508091505090565b600080600084815260200190815260200160002060000160008373ffffffffffffffffffffffffffffffffffffffff1673ffffffffffffffffffffffffffffffffffffffff16815260200190815260200160002060009054906101000a900460ff16905092915050565b7feefb95e842a3287179d933b4460be539a1d5af11aa8b325bb45c5c8dc92de4ed81565b6119967f9d56108290ea0bc9c5c59c3ad357dca9d1b29ed7f3ae1443bef2fa2159bdf5e8336118de565b6119d5576040517f08c379a00000000000000000000000000000000000000000000000000000000081526004016119cc90613df3565b60405180910390fd5b6000600660008481526020019081526020016000209050600115158160040160009054906101000a900460ff16151514611a44576040517f08c379a0000000000000000000000000000000000000000000000000000000008152600401611a3b90613e5f565b60405180910390fd5b8181600301541015611a8b576040517f08c379a0000000000000000000000000000000000000000000000000000000008152600401611a8290613ef1565b60405180910390fd5b6000828260020154611a9d9190613f11565b905080341015611ae2576040517f08c379a0000000000000000000000000000000000000000000000000000000008152600401611ad990613f9f565b60405180910390fd5b6000600260009054906101000a900473ffffffffffffffffffffffffffffffffffffffff1690508073ffffffffffffffffffffffffffffffffffffffff166108fc839081150290604051600060405180830381858888f19350505050158015611b4f573d6000803e3d6000fd5b5083600660008781526020019081526020016000206003016000828254611b769190613a42565b925050819055506000600460003373ffffffffffffffffffffffffffffffffffffffff1673ffffffffffffffffffffffffffffffffffffffff1681526020019081526020016000206000878152602001908152602001600020600301541115611c485783600460003373ffffffffffffffffffffffffffffffffffffffff1673ffffffffffffffffffffffffffffffffffffffff16815260200190815260200160002060008781526020019081526020016000206003016000828254611c3c9190613b69565b92505081905550611dce565b6040518060a00160405280868152602001600660008881526020019081526020016000206001018054611c7a90613618565b80601f0160208091040260200160405190810160405280929190818152602001828054611ca690613618565b8015611cf35780601f10611cc857610100808354040283529160200191611cf3565b820191906000526020600020905b815481529060010190602001808311611cd657829003601f168201915b505050505081526020016006600088815260200190815260200160002060020154815260200185815260200160001515815250600460003373ffffffffffffffffffffffffffffffffffffffff1673ffffffffffffffffffffffffffffffffffffffff1681526020019081526020016000206000878152602001908152602001600020600082015181600001556020820151816001019081611d959190613941565b50604082015181600201556060820151816003015560808201518160040160006101000a81548160ff0219169083151502179055509050505b60008234611ddc9190613a42565b90506000811115611e2f573373ffffffffffffffffffffffffffffffffffffffff166108fc829081150290604051600060405180830381858888f19350505050158015611e2d573d6000803e3d6000fd5b505b7fcf56b0adeb8d78b1faf3ec7294369603647cda5633357436d89fb3e653fabf81868633604051611e6293929190613fbf565b60405180910390a1505050505050565b6000801b81565b611ea37f2a5f906c256a5d799494fcd066e1f6c077689de1cdb65052a1624de4bace99bf336118de565b611ee2576040517f08c379a0000000000000000000000000000000000000000000000000000000008152600401611ed990613add565b60405180910390fd5b6000600660008481526020019081526020016000206003015411611f3b576040517f08c379a0000000000000000000000000000000000000000000000000000000008152600401611f3290614042565b60405180910390fd5b80600660008481526020019081526020016000206002018190555060016006600084815260200190815260200160002060040160006101000a81548160ff0219169083151502179055507f6da9feac67ce606eb5bee1929fb74d4e88100968e5916777989bae5a95ec5871828233604051611fb893929190613fbf565b60405180910390a15050565b611fee7f2a5f906c256a5d799494fcd066e1f6c077689de1cdb65052a1624de4bace99bf336118de565b61202d576040517f08c379a000000000000000000000000000000000000000000000000000000000815260040161202490613add565b60405180910390fd5b6000600560008481526020019081526020016000209050600060076000858152602001908152602001600020600201541461209d576040517f08c379a0000000000000000000000000000000000000000000000000000000008152600401612094906140ae565b60405180910390fd5b60008160030154116120e4576040517f08c379a00000000000000000000000000000000000000000000000000000000081526004016120db9061411a565b60405180910390fd5b818160030154101561212b576040517f08c379a000000000000000000000000000000000000000000000000000000000815260040161212290613d1b565b60405180910390fd5b600082826002015461213d9190613f11565b905080341015612182576040517f08c379a0000000000000000000000000000000000000000000000000000000008152600401612179906141ac565b60405180910390fd5b60405180606001604052808581526020016040518060400160405280600781526020017f6f72646572656400000000000000000000000000000000000000000000000000815250815260200184815250600760008681526020019081526020016000206000820151816000015560208201518160010190816122049190613941565b50604082015181600201559050506000600160009054906101000a900473ffffffffffffffffffffffffffffffffffffffff1690508073ffffffffffffffffffffffffffffffffffffffff166108fc839081150290604051600060405180830381858888f1935050505015801561227f573d6000803e3d6000fd5b506000823461228e9190613a42565b905060008111156122e1573373ffffffffffffffffffffffffffffffffffffffff166108fc829081150290604051600060405180830381858888f193505050501580156122df573d6000803e3d6000fd5b505b7fce869fa07fbaaf0ef11ff2424d1408cf65cab69fc0fdc8af702b7e8b484411488633604051612312929190613b9d565b60405180910390a1505050505050565b6060600060038054905067ffffffffffffffff811115612345576123446133a9565b5b60405190808252806020026020018201604052801561237e57816020015b61236b612bb5565b8152602001906001900390816123635790505b50905060005b6003805490508110156124c35760066000600383815481106123a9576123a8613bc6565b5b906000526020600020015481526020019081526020016000206040518060a0016040529081600082015481526020016001820180546123e790613618565b80601f016020809104026020016040519081016040528092919081815260200182805461241390613618565b80156124605780601f1061243557610100808354040283529160200191612460565b820191906000526020600020905b81548152906001019060200180831161244357829003601f168201915b5050505050815260200160028201548152602001600382015481526020016004820160009054906101000a900460ff1615151515815250508282815181106124ab576124aa613bc6565b5b60200260200101819052508080600101915050612384565b508091505090565b7fded9b5e0e0e3a2b3f09a0bc36ec64b9bf7a7c2319f3c4d9cff5ce48714257b2181565b6124f8826109e6565b61250181612965565b61250b8383612a72565b50505050565b600160009054906101000a900473ffffffffffffffffffffffffffffffffffffffff1681565b6125617feefb95e842a3287179d933b4460be539a1d5af11aa8b325bb45c5c8dc92de4ed336118de565b6125a0576040517f08c379a000000000000000000000000000000000000000000000000000000000815260040161259790613c89565b60405180910390fd5b60008060056000878152602001908152602001600020600301541490508015612685576040518060a00160405280868152602001858152602001848152602001838152602001600015158152506005600087815260200190815260200160002060008201518160000155602082015181600101908161261f9190613941565b50604082015181600201556060820151816003015560808201518160040160006101000a81548160ff02191690831515021790555090505060038590806001815401808255809150506001900390600052602060002001600090919091909150556126b3565b816005600087815260200190815260200160002060030160008282546126ab9190613b69565b925050819055505b7f8d3d82130aebba03bb48b5d158bc2bbb4647856765b1089e7250507307965af9858585856040516126e894939291906141cc565b60405180910390a15050505050565b6127046000801b336118de565b612743576040517f08c379a000000000000000000000000000000000000000000000000000000000815260040161273a90614264565b60405180910390fd5b61274d8282612979565b505050565b6060600060038054905067ffffffffffffffff811115612775576127746133a9565b5b6040519080825280602002602001820160405280156127ae57816020015b61279b612bb5565b8152602001906001900390816127935790505b50905060005b6003805490508110156128f35760056000600383815481106127d9576127d8613bc6565b5b906000526020600020015481526020019081526020016000206040518060a00160405290816000820154815260200160018201805461281790613618565b80601f016020809104026020016040519081016040528092919081815260200182805461284390613618565b80156128905780601f1061286557610100808354040283529160200191612890565b820191906000526020600020905b81548152906001019060200180831161287357829003601f168201915b5050505050815260200160028201548152602001600382015481526020016004820160009054906101000a900460ff1615151515815250508282815181106128db576128da613bc6565b5b602002602001018190525080806001019150506127b4565b508091505090565b60007f01ffc9a7000000000000000000000000000000000000000000000000000000007bffffffffffffffffffffffffffffffffffffffffffffffffffffffff1916827bffffffffffffffffffffffffffffffffffffffffffffffffffffffff1916149050919050565b61297681612971612a6a565b612b64565b50565b600061298583836118de565b612a5f57600160008085815260200190815260200160002060000160008473ffffffffffffffffffffffffffffffffffffffff1673ffffffffffffffffffffffffffffffffffffffff16815260200190815260200160002060006101000a81548160ff0219169083151502179055506129fc612a6a565b73ffffffffffffffffffffffffffffffffffffffff168273ffffffffffffffffffffffffffffffffffffffff16847f2f8788117e7eff1d82e926ec794901d17c78024a50270940304540a733656f0d60405160405180910390a460019050612a64565b600090505b92915050565b600033905090565b6000612a7e83836118de565b15612b5957600080600085815260200190815260200160002060000160008473ffffffffffffffffffffffffffffffffffffffff1673ffffffffffffffffffffffffffffffffffffffff16815260200190815260200160002060006101000a81548160ff021916908315150217905550612af6612a6a565b73ffffffffffffffffffffffffffffffffffffffff168273ffffffffffffffffffffffffffffffffffffffff16847ff6391f5c32d9c69d2a47ea670b442974b53935d1edc7fd64eb21e047a839171b60405160405180910390a460019050612b5e565b600090505b92915050565b612b6e82826118de565b612bb15780826040517fe2517d3f000000000000000000000000000000000000000000000000000000008152600401612ba8929190614284565b60405180910390fd5b5050565b6040518060a00160405280600081526020016060815260200160008152602001600081526020016000151581525090565b60405180606001604052806000815260200160608152602001600081525090565b6000604051905090565b600080fd5b600080fd5b60007fffffffff0000000000000000000000000000000000000000000000000000000082169050919050565b612c5081612c1b565b8114612c5b57600080fd5b50565b600081359050612c6d81612c47565b92915050565b600060208284031215612c8957612c88612c11565b5b6000612c9784828501612c5e565b91505092915050565b60008115159050919050565b612cb581612ca0565b82525050565b6000602082019050612cd06000830184612cac565b92915050565b6000819050919050565b612ce981612cd6565b8114612cf457600080fd5b50565b600081359050612d0681612ce0565b92915050565b60008060408385031215612d2357612d22612c11565b5b6000612d3185828601612cf7565b9250506020612d4285828601612cf7565b9150509250929050565b6000819050919050565b612d5f81612d4c565b82525050565b6000602082019050612d7a6000830184612d56565b92915050565b612d8981612d4c565b8114612d9457600080fd5b50565b600081359050612da681612d80565b92915050565b600060208284031215612dc257612dc1612c11565b5b6000612dd084828501612d97565b91505092915050565b600060208284031215612def57612dee612c11565b5b6000612dfd84828501612cf7565b91505092915050565b600073ffffffffffffffffffffffffffffffffffffffff82169050919050565b6000612e3182612e06565b9050919050565b612e4181612e26565b8114612e4c57600080fd5b50565b600081359050612e5e81612e38565b92915050565b60008060408385031215612e7b57612e7a612c11565b5b6000612e8985828601612d97565b9250506020612e9a85828601612e4f565b9150509250929050565b60008060408385031215612ebb57612eba612c11565b5b6000612ec985828601612e4f565b9250506020612eda85828601612cf7565b9150509250929050565b612eed81612cd6565b82525050565b600081519050919050565b600082825260208201905092915050565b60005b83811015612f2d578082015181840152602081019050612f12565b60008484015250505050565b6000601f19601f8301169050919050565b6000612f5582612ef3565b612f5f8185612efe565b9350612f6f818560208601612f0f565b612f7881612f39565b840191505092915050565b600060a082019050612f986000830188612ee4565b8181036020830152612faa8187612f4a565b9050612fb96040830186612ee4565b612fc66060830185612ee4565b612fd36080830184612cac565b9695505050505050565b600060208284031215612ff357612ff2612c11565b5b600061300184828501612e4f565b91505092915050565b600081519050919050565b600082825260208201905092915050565b6000819050602082019050919050565b61303f81612cd6565b82525050565b600082825260208201905092915050565b600061306182612ef3565b61306b8185613045565b935061307b818560208601612f0f565b61308481612f39565b840191505092915050565b61309881612ca0565b82525050565b600060a0830160008301516130b66000860182613036565b50602083015184820360208601526130ce8282613056565b91505060408301516130e36040860182613036565b5060608301516130f66060860182613036565b506080830151613109608086018261308f565b508091505092915050565b6000613120838361309e565b905092915050565b6000602082019050919050565b60006131408261300a565b61314a8185613015565b93508360208202850161315c85613026565b8060005b8581101561319857848403895281516131798582613114565b945061318483613128565b925060208a01995050600181019050613160565b50829750879550505050505092915050565b600060208201905081810360008301526131c48184613135565b905092915050565b60006060820190506131e16000830186612ee4565b81810360208301526131f38185612f4a565b90506132026040830184612ee4565b949350505050565b61321381612e26565b82525050565b600060208201905061322e600083018461320a565b92915050565b60006060820190506132496000830186612cac565b6132566020830185612cac565b6132636040830184612ee4565b949350505050565b600081519050919050565b600082825260208201905092915050565b6000819050602082019050919050565b60006060830160008301516132af6000860182613036565b50602083015184820360208601526132c78282613056565b91505060408301516132dc6040860182613036565b508091505092915050565b60006132f38383613297565b905092915050565b6000602082019050919050565b60006133138261326b565b61331d8185613276565b93508360208202850161332f85613287565b8060005b8581101561336b578484038952815161334c85826132e7565b9450613357836132fb565b925060208a01995050600181019050613333565b50829750879550505050505092915050565b600060208201905081810360008301526133978184613308565b905092915050565b600080fd5b600080fd5b7f4e487b7100000000000000000000000000000000000000000000000000000000600052604160045260246000fd5b6133e182612f39565b810181811067ffffffffffffffff82111715613400576133ff6133a9565b5b80604052505050565b6000613413612c07565b905061341f82826133d8565b919050565b600067ffffffffffffffff82111561343f5761343e6133a9565b5b61344882612f39565b9050602081019050919050565b82818337600083830152505050565b600061347761347284613424565b613409565b905082815260208101848484011115613493576134926133a4565b5b61349e848285613455565b509392505050565b600082601f8301126134bb576134ba61339f565b5b81356134cb848260208601613464565b91505092915050565b600080600080608085870312156134ee576134ed612c11565b5b60006134fc87828801612cf7565b945050602085013567ffffffffffffffff81111561351d5761351c612c16565b5b613529878288016134a6565b935050604061353a87828801612cf7565b925050606061354b87828801612cf7565b91505092959194509250565b7f43616c6c6572206973206e6f742061206c6f676973746963732070726f76696460008201527f6572000000000000000000000000000000000000000000000000000000000000602082015250565b60006135b3602283612efe565b91506135be82613557565b604082019050919050565b600060208201905081810360008301526135e2816135a6565b9050919050565b7f4e487b7100000000000000000000000000000000000000000000000000000000600052602260045260246000fd5b6000600282049050600182168061363057607f821691505b602082108103613643576136426135e9565b5b50919050565b600081905092915050565b60008190508160005260206000209050919050565b6000815461367681613618565b6136808186613649565b9450600182166000811461369b57600181146136b0576136e3565b60ff19831686528115158202860193506136e3565b6136b985613654565b60005b838110156136db578154818901526001820191506020810190506136bc565b838801955050505b50505092915050565b60006136f88284613669565b915081905092915050565b7f50726f64756374206973206e6f7420726561647920666f7220736869706d656e60008201527f7400000000000000000000000000000000000000000000000000000000000000602082015250565b600061375f602183612efe565b915061376a82613703565b604082019050919050565b6000602082019050818103600083015261378e81613752565b9050919050565b60008190508160005260206000209050919050565b60006020601f8301049050919050565b600082821b905092915050565b6000600883026137f77fffffffffffffffffffffffffffffffffffffffffffffffffffffffffffffffff826137ba565b61380186836137ba565b95508019841693508086168417925050509392505050565b6000819050919050565b600061383e61383961383484612cd6565b613819565b612cd6565b9050919050565b6000819050919050565b61385883613823565b61386c61386482613845565b8484546137c7565b825550505050565b600090565b613881613874565b61388c81848461384f565b505050565b5b818110156138b0576138a5600082613879565b600181019050613892565b5050565b601f8211156138f5576138c681613795565b6138cf846137aa565b810160208510156138de578190505b6138f26138ea856137aa565b830182613891565b50505b505050565b600082821c905092915050565b6000613918600019846008026138fa565b1980831691505092915050565b60006139318383613907565b9150826002028217905092915050565b61394a82612ef3565b67ffffffffffffffff811115613963576139626133a9565b5b61396d8254613618565b6139788282856138b4565b600060209050601f8311600181146139ab5760008415613999578287015190505b6139a38582613925565b865550613a0b565b601f1984166139b986613795565b60005b828110156139e1578489015182556001820191506020850194506020810190506139bc565b868310156139fe57848901516139fa601f891682613907565b8355505b6001600288020188555050505b505050505050565b7f4e487b7100000000000000000000000000000000000000000000000000000000600052601160045260246000fd5b6000613a4d82612cd6565b9150613a5883612cd6565b9250828203905081811115613a7057613a6f613a13565b5b92915050565b6000602082019050613a8b6000830184612ee4565b92915050565b7f43616c6c6572206973206e6f7420612072657461696c65720000000000000000600082015250565b6000613ac7601883612efe565b9150613ad282613a91565b602082019050919050565b60006020820190508181036000830152613af681613aba565b9050919050565b7f50726f6475637420686173206e6f74206265656e207368697070656400000000600082015250565b6000613b33601c83612efe565b9150613b3e82613afd565b602082019050919050565b60006020820190508181036000830152613b6281613b26565b9050919050565b6000613b7482612cd6565b9150613b7f83612cd6565b9250828201905080821115613b9757613b96613a13565b5b92915050565b6000604082019050613bb26000830185612ee4565b613bbf602083018461320a565b9392505050565b7f4e487b7100000000000000000000000000000000000000000000000000000000600052603260045260246000fd5b6000613c0082612cd6565b91507fffffffffffffffffffffffffffffffffffffffffffffffffffffffffffffffff8203613c3257613c31613a13565b5b600182019050919050565b7f43616c6c6572206973206e6f742061206d616e75666163747572657200000000600082015250565b6000613c73601c83612efe565b9150613c7e82613c3d565b602082019050919050565b60006020820190508181036000830152613ca281613c66565b9050919050565b7f496e73756666696369656e74207175616e7469747920696e206d616e7566616360008201527f7475726572277320696e76656e746f7279000000000000000000000000000000602082015250565b6000613d05603183612efe565b9150613d1082613ca9565b604082019050919050565b60006020820190508181036000830152613d3481613cf8565b9050919050565b7f4e6f206f7264657220666f72207468652070726f647563747300000000000000600082015250565b6000613d71601983612efe565b9150613d7c82613d3b565b602082019050919050565b60006020820190508181036000830152613da081613d64565b9050919050565b7f43616c6c6572206973206e6f74206120636f6e73756d65720000000000000000600082015250565b6000613ddd601883612efe565b9150613de882613da7565b602082019050919050565b60006020820190508181036000830152613e0c81613dd0565b9050919050565b7f50726f64756374206973206e6f7420666f722073616c65000000000000000000600082015250565b6000613e49601783612efe565b9150613e5482613e13565b602082019050919050565b60006020820190508181036000830152613e7881613e3c565b9050919050565b7f4e6f7420656e6f7567682070726f6475637420617661696c61626c6520666f7260008201527f2070757263686173650000000000000000000000000000000000000000000000602082015250565b6000613edb602983612efe565b9150613ee682613e7f565b604082019050919050565b60006020820190508181036000830152613f0a81613ece565b9050919050565b6000613f1c82612cd6565b9150613f2783612cd6565b9250828202613f3581612cd6565b91508282048414831517613f4c57613f4b613a13565b5b5092915050565b7f496e73756666696369656e74207061796d656e74000000000000000000000000600082015250565b6000613f89601483612efe565b9150613f9482613f53565b602082019050919050565b60006020820190508181036000830152613fb881613f7c565b9050919050565b6000606082019050613fd46000830186612ee4565b613fe16020830185612ee4565b613fee604083018461320a565b949350505050565b7f4e6f206974656d20746f206c69737420666f722073616c650000000000000000600082015250565b600061402c601883612efe565b915061403782613ff6565b602082019050919050565b6000602082019050818103600083015261405b8161401f565b9050919050565b7f596f7520616c72656164792068617665206120736869706d656e740000000000600082015250565b6000614098601b83612efe565b91506140a382614062565b602082019050919050565b600060208201905081810360008301526140c78161408b565b9050919050565b7f50726f64756374206973206f7574206f662073746f636b000000000000000000600082015250565b6000614104601783612efe565b915061410f826140ce565b602082019050919050565b60006020820190508181036000830152614133816140f7565b9050919050565b7f496e73756666696369656e74207061796d656e7420666f7220746865206f726460008201527f6572000000000000000000000000000000000000000000000000000000000000602082015250565b6000614196602283612efe565b91506141a18261413a565b604082019050919050565b600060208201905081810360008301526141c581614189565b9050919050565b60006080820190506141e16000830187612ee4565b81810360208301526141f38186612f4a565b90506142026040830185612ee4565b61420f6060830184612ee4565b95945050505050565b7f43616c6c6572206973206e6f7420616e2061646d696e00000000000000000000600082015250565b600061424e601683612efe565b915061425982614218565b602082019050919050565b6000602082019050818103600083015261427d81614241565b9050919050565b6000604082019050614299600083018561320a565b6142a66020830184612d56565b939250505056fea264697066735822122086c048a566f6efcbc35ee76c07db3c3db58107c68ad5ca9c4b7239efbe4fa9b564736f6c63430008180033","opcodes":"PUSH1 0x80 PUSH1 0x40 MSTORE CALLVALUE DUP1 ISZERO PUSH3 0x11 JUMPI PUSH1 0x0 DUP1 REVERT JUMPDEST POP PUSH1 0x40 MLOAD PUSH3 0x472D CODESIZE SUB DUP1 PUSH3 0x472D DUP4 CODECOPY DUP2 DUP2 ADD PUSH1 0x40 MSTORE DUP2 ADD SWAP1 PUSH3 0x37 SWAP2 SWAP1 PUSH3 0x3C8 JUMP JUMPDEST PUSH3 0x4C PUSH1 0x0 DUP1 SHL CALLER PUSH3 0x1E9 PUSH1 0x20 SHL PUSH1 0x20 SHR JUMP JUMPDEST POP DUP4 PUSH1 0x1 PUSH1 0x0 PUSH2 0x100 EXP DUP2 SLOAD DUP2 PUSH20 0xFFFFFFFFFFFFFFFFFFFFFFFFFFFFFFFFFFFFFFFF MUL NOT AND SWAP1 DUP4 PUSH20 0xFFFFFFFFFFFFFFFFFFFFFFFFFFFFFFFFFFFFFFFF AND MUL OR SWAP1 SSTORE POP DUP2 PUSH1 0x2 PUSH1 0x0 PUSH2 0x100 EXP DUP2 SLOAD DUP2 PUSH20 0xFFFFFFFFFFFFFFFFFFFFFFFFFFFFFFFFFFFFFFFF MUL NOT AND SWAP1 DUP4 PUSH20 0xFFFFFFFFFFFFFFFFFFFFFFFFFFFFFFFFFFFFFFFF AND MUL OR SWAP1 SSTORE POP PUSH3 0x123 PUSH32 0xEEFB95E842A3287179D933B4460BE539A1D5AF11AA8B325BB45C5C8DC92DE4ED PUSH1 0x1 PUSH1 0x0 SWAP1 SLOAD SWAP1 PUSH2 0x100 EXP SWAP1 DIV PUSH20 0xFFFFFFFFFFFFFFFFFFFFFFFFFFFFFFFFFFFFFFFF AND PUSH3 0x1E9 PUSH1 0x20 SHL PUSH1 0x20 SHR JUMP JUMPDEST POP PUSH3 0x178 PUSH32 0x2A5F906C256A5D799494FCD066E1F6C077689DE1CDB65052A1624DE4BACE99BF PUSH1 0x2 PUSH1 0x0 SWAP1 SLOAD SWAP1 PUSH2 0x100 EXP SWAP1 DIV PUSH20 0xFFFFFFFFFFFFFFFFFFFFFFFFFFFFFFFFFFFFFFFF AND PUSH3 0x1E9 PUSH1 0x20 SHL PUSH1 0x20 SHR JUMP JUMPDEST POP PUSH3 0x1AB PUSH32 0xDED9B5E0E0E3A2B3F09A0BC36EC64B9BF7A7C2319F3C4D9CFF5CE48714257B21 DUP5 PUSH3 0x1E9 PUSH1 0x20 SHL PUSH1 0x20 SHR JUMP JUMPDEST POP PUSH3 0x1DE PUSH32 0x9D56108290EA0BC9C5C59C3AD357DCA9D1B29ED7F3AE1443BEF2FA2159BDF5E8 DUP3 PUSH3 0x1E9 PUSH1 0x20 SHL PUSH1 0x20 SHR JUMP JUMPDEST POP POP POP POP POP PUSH3 0x43A JUMP JUMPDEST PUSH1 0x0 PUSH3 0x1FD DUP4 DUP4 PUSH3 0x2EC PUSH1 0x20 SHL PUSH1 0x20 SHR JUMP JUMPDEST PUSH3 0x2E1 JUMPI PUSH1 0x1 PUSH1 0x0 DUP1 DUP6 DUP2 MSTORE PUSH1 0x20 ADD SWAP1 DUP2 MSTORE PUSH1 0x20 ADD PUSH1 0x0 KECCAK256 PUSH1 0x0 ADD PUSH1 0x0 DUP5 PUSH20 0xFFFFFFFFFFFFFFFFFFFFFFFFFFFFFFFFFFFFFFFF AND PUSH20 0xFFFFFFFFFFFFFFFFFFFFFFFFFFFFFFFFFFFFFFFF AND DUP2 MSTORE PUSH1 0x20 ADD SWAP1 DUP2 MSTORE PUSH1 0x20 ADD PUSH1 0x0 KECCAK256 PUSH1 0x0 PUSH2 0x100 EXP DUP2 SLOAD DUP2 PUSH1 0xFF MUL NOT AND SWAP1 DUP4 ISZERO ISZERO MUL OR SWAP1 SSTORE POP PUSH3 0x27D PUSH3 0x356 PUSH1 0x20 SHL PUSH1 0x20 SHR JUMP JUMPDEST PUSH20 0xFFFFFFFFFFFFFFFFFFFFFFFFFFFFFFFFFFFFFFFF AND DUP3 PUSH20 0xFFFFFFFFFFFFFFFFFFFFFFFFFFFFFFFFFFFFFFFF AND DUP5 PUSH32 0x2F8788117E7EFF1D82E926EC794901D17C78024A50270940304540A733656F0D PUSH1 0x40 MLOAD PUSH1 0x40 MLOAD DUP1 SWAP2 SUB SWAP1 LOG4 PUSH1 0x1 SWAP1 POP PUSH3 0x2E6 JUMP JUMPDEST PUSH1 0x0 SWAP1 POP JUMPDEST SWAP3 SWAP2 POP POP JUMP JUMPDEST PUSH1 0x0 DUP1 PUSH1 0x0 DUP5 DUP2 MSTORE PUSH1 0x20 ADD SWAP1 DUP2 MSTORE PUSH1 0x20 ADD PUSH1 0x0 KECCAK256 PUSH1 0x0 ADD PUSH1 0x0 DUP4 PUSH20 0xFFFFFFFFFFFFFFFFFFFFFFFFFFFFFFFFFFFFFFFF AND PUSH20 0xFFFFFFFFFFFFFFFFFFFFFFFFFFFFFFFFFFFFFFFF AND DUP2 MSTORE PUSH1 0x20 ADD SWAP1 DUP2 MSTORE PUSH1 0x20 ADD PUSH1 0x0 KECCAK256 PUSH1 0x0 SWAP1 SLOAD SWAP1 PUSH2 0x100 EXP SWAP1 DIV PUSH1 0xFF AND SWAP1 POP SWAP3 SWAP2 POP POP JUMP JUMPDEST PUSH1 0x0 CALLER SWAP1 POP SWAP1 JUMP JUMPDEST PUSH1 0x0 DUP1 REVERT JUMPDEST PUSH1 0x0 PUSH20 0xFFFFFFFFFFFFFFFFFFFFFFFFFFFFFFFFFFFFFFFF DUP3 AND SWAP1 POP SWAP2 SWAP1 POP JUMP JUMPDEST PUSH1 0x0 PUSH3 0x390 DUP3 PUSH3 0x363 JUMP JUMPDEST SWAP1 POP SWAP2 SWAP1 POP JUMP JUMPDEST PUSH3 0x3A2 DUP2 PUSH3 0x383 JUMP JUMPDEST DUP2 EQ PUSH3 0x3AE JUMPI PUSH1 0x0 DUP1 REVERT JUMPDEST POP JUMP JUMPDEST PUSH1 0x0 DUP2 MLOAD SWAP1 POP PUSH3 0x3C2 DUP2 PUSH3 0x397 JUMP JUMPDEST SWAP3 SWAP2 POP POP JUMP JUMPDEST PUSH1 0x0 DUP1 PUSH1 0x0 DUP1 PUSH1 0x80 DUP6 DUP8 SUB SLT ISZERO PUSH3 0x3E5 JUMPI PUSH3 0x3E4 PUSH3 0x35E JUMP JUMPDEST JUMPDEST PUSH1 0x0 PUSH3 0x3F5 DUP8 DUP3 DUP9 ADD PUSH3 0x3B1 JUMP JUMPDEST SWAP5 POP POP PUSH1 0x20 PUSH3 0x408 DUP8 DUP3 DUP9 ADD PUSH3 0x3B1 JUMP JUMPDEST SWAP4 POP POP PUSH1 0x40 PUSH3 0x41B DUP8 DUP3 DUP9 ADD PUSH3 0x3B1 JUMP JUMPDEST SWAP3 POP POP PUSH1 0x60 PUSH3 0x42E DUP8 DUP3 DUP9 ADD PUSH3 0x3B1 JUMP JUMPDEST SWAP2 POP POP SWAP3 SWAP6 SWAP2 SWAP5 POP SWAP3 POP JUMP JUMPDEST PUSH2 0x42E3 DUP1 PUSH3 0x44A PUSH1 0x0 CODECOPY PUSH1 0x0 RETURN INVALID PUSH1 0x80 PUSH1 0x40 MSTORE PUSH1 0x4 CALLDATASIZE LT PUSH2 0x1CD JUMPI PUSH1 0x0 CALLDATALOAD PUSH1 0xE0 SHR DUP1 PUSH4 0x8B061960 GT PUSH2 0xF7 JUMPI DUP1 PUSH4 0xB7DF2FDE GT PUSH2 0x95 JUMPI DUP1 PUSH4 0xF1F8EC43 GT PUSH2 0x64 JUMPI DUP1 PUSH4 0xF1F8EC43 EQ PUSH2 0x6B6 JUMPI DUP1 PUSH4 0xF4A44D2D EQ PUSH2 0x6E1 JUMPI DUP1 PUSH4 0xFA82AC76 EQ PUSH2 0x70A JUMPI DUP1 PUSH4 0xFAFA9800 EQ PUSH2 0x733 JUMPI PUSH2 0x1CD JUMP JUMPDEST DUP1 PUSH4 0xB7DF2FDE EQ PUSH2 0x61B JUMPI DUP1 PUSH4 0xBC2EBF75 EQ PUSH2 0x637 JUMPI DUP1 PUSH4 0xC602D3FB EQ PUSH2 0x662 JUMPI DUP1 PUSH4 0xD547741F EQ PUSH2 0x68D JUMPI PUSH2 0x1CD JUMP JUMPDEST DUP1 PUSH4 0x965288B0 GT PUSH2 0xD1 JUMPI DUP1 PUSH4 0x965288B0 EQ PUSH2 0x580 JUMPI DUP1 PUSH4 0xA0440426 EQ PUSH2 0x5AB JUMPI DUP1 PUSH4 0xA217FDDF EQ PUSH2 0x5C7 JUMPI DUP1 PUSH4 0xB17FD27B EQ PUSH2 0x5F2 JUMPI PUSH2 0x1CD JUMP JUMPDEST DUP1 PUSH4 0x8B061960 EQ PUSH2 0x4EF JUMPI DUP1 PUSH4 0x8F00C315 EQ PUSH2 0x518 JUMPI DUP1 PUSH4 0x91D14854 EQ PUSH2 0x543 JUMPI PUSH2 0x1CD JUMP JUMPDEST DUP1 PUSH4 0x4734808C GT PUSH2 0x16F JUMPI DUP1 PUSH4 0x6DE2AFF6 GT PUSH2 0x13E JUMPI DUP1 PUSH4 0x6DE2AFF6 EQ PUSH2 0x403 JUMPI DUP1 PUSH4 0x73971DEE EQ PUSH2 0x42E JUMPI DUP1 PUSH4 0x767BDFF1 EQ PUSH2 0x46F JUMPI DUP1 PUSH4 0x7762856E EQ PUSH2 0x4AE JUMPI PUSH2 0x1CD JUMP JUMPDEST DUP1 PUSH4 0x4734808C EQ PUSH2 0x31B JUMPI DUP1 PUSH4 0x4A23024D EQ PUSH2 0x35C JUMPI DUP1 PUSH4 0x4BC02DA6 EQ PUSH2 0x399 JUMPI DUP1 PUSH4 0x517B65E2 EQ PUSH2 0x3C4 JUMPI PUSH2 0x1CD JUMP JUMPDEST DUP1 PUSH4 0x248A9CA3 GT PUSH2 0x1AB JUMPI DUP1 PUSH4 0x248A9CA3 EQ PUSH2 0x263 JUMPI DUP1 PUSH4 0x29D78328 EQ PUSH2 0x2A0 JUMPI DUP1 PUSH4 0x2F2FF15D EQ PUSH2 0x2C9 JUMPI DUP1 PUSH4 0x36568ABE EQ PUSH2 0x2F2 JUMPI PUSH2 0x1CD JUMP JUMPDEST DUP1 PUSH4 0x1FFC9A7 EQ PUSH2 0x1D2 JUMPI DUP1 PUSH4 0x22EC688 EQ PUSH2 0x20F JUMPI DUP1 PUSH4 0x2115E7BF EQ PUSH2 0x238 JUMPI JUMPDEST PUSH1 0x0 DUP1 REVERT JUMPDEST CALLVALUE DUP1 ISZERO PUSH2 0x1DE JUMPI PUSH1 0x0 DUP1 REVERT JUMPDEST POP PUSH2 0x1F9 PUSH1 0x4 DUP1 CALLDATASIZE SUB DUP2 ADD SWAP1 PUSH2 0x1F4 SWAP2 SWAP1 PUSH2 0x2C73 JUMP JUMPDEST PUSH2 0x75E JUMP JUMPDEST PUSH1 0x40 MLOAD PUSH2 0x206 SWAP2 SWAP1 PUSH2 0x2CBB JUMP JUMPDEST PUSH1 0x40 MLOAD DUP1 SWAP2 SUB SWAP1 RETURN JUMPDEST CALLVALUE DUP1 ISZERO PUSH2 0x21B JUMPI PUSH1 0x0 DUP1 REVERT JUMPDEST POP PUSH2 0x236 PUSH1 0x4 DUP1 CALLDATASIZE SUB DUP2 ADD SWAP1 PUSH2 0x231 SWAP2 SWAP1 PUSH2 0x2D0C JUMP JUMPDEST PUSH2 0x7D8 JUMP JUMPDEST STOP JUMPDEST CALLVALUE DUP1 ISZERO PUSH2 0x244 JUMPI PUSH1 0x0 DUP1 REVERT JUMPDEST POP PUSH2 0x24D PUSH2 0x9C2 JUMP JUMPDEST PUSH1 0x40 MLOAD PUSH2 0x25A SWAP2 SWAP1 PUSH2 0x2D65 JUMP JUMPDEST PUSH1 0x40 MLOAD DUP1 SWAP2 SUB SWAP1 RETURN JUMPDEST CALLVALUE DUP1 ISZERO PUSH2 0x26F JUMPI PUSH1 0x0 DUP1 REVERT JUMPDEST POP PUSH2 0x28A PUSH1 0x4 DUP1 CALLDATASIZE SUB DUP2 ADD SWAP1 PUSH2 0x285 SWAP2 SWAP1 PUSH2 0x2DAC JUMP JUMPDEST PUSH2 0x9E6 JUMP JUMPDEST PUSH1 0x40 MLOAD PUSH2 0x297 SWAP2 SWAP1 PUSH2 0x2D65 JUMP JUMPDEST PUSH1 0x40 MLOAD DUP1 SWAP2 SUB SWAP1 RETURN JUMPDEST CALLVALUE DUP1 ISZERO PUSH2 0x2AC JUMPI PUSH1 0x0 DUP1 REVERT JUMPDEST POP PUSH2 0x2C7 PUSH1 0x4 DUP1 CALLDATASIZE SUB DUP2 ADD SWAP1 PUSH2 0x2C2 SWAP2 SWAP1 PUSH2 0x2DD9 JUMP JUMPDEST PUSH2 0xA05 JUMP JUMPDEST STOP JUMPDEST CALLVALUE DUP1 ISZERO PUSH2 0x2D5 JUMPI PUSH1 0x0 DUP1 REVERT JUMPDEST POP PUSH2 0x2F0 PUSH1 0x4 DUP1 CALLDATASIZE SUB DUP2 ADD SWAP1 PUSH2 0x2EB SWAP2 SWAP1 PUSH2 0x2E64 JUMP JUMPDEST PUSH2 0xD8D JUMP JUMPDEST STOP JUMPDEST CALLVALUE DUP1 ISZERO PUSH2 0x2FE JUMPI PUSH1 0x0 DUP1 REVERT JUMPDEST POP PUSH2 0x319 PUSH1 0x4 DUP1 CALLDATASIZE SUB DUP2 ADD SWAP1 PUSH2 0x314 SWAP2 SWAP1 PUSH2 0x2E64 JUMP JUMPDEST PUSH2 0xDAF JUMP JUMPDEST STOP JUMPDEST CALLVALUE DUP1 ISZERO PUSH2 0x327 JUMPI PUSH1 0x0 DUP1 REVERT JUMPDEST POP PUSH2 0x342 PUSH1 0x4 DUP1 CALLDATASIZE SUB DUP2 ADD SWAP1 PUSH2 0x33D SWAP2 SWAP1 PUSH2 0x2EA4 JUMP JUMPDEST PUSH2 0xE2A JUMP JUMPDEST PUSH1 0x40 MLOAD PUSH2 0x353 SWAP6 SWAP5 SWAP4 SWAP3 SWAP2 SWAP1 PUSH2 0x2F83 JUMP JUMPDEST PUSH1 0x40 MLOAD DUP1 SWAP2 SUB SWAP1 RETURN JUMPDEST CALLVALUE DUP1 ISZERO PUSH2 0x368 JUMPI PUSH1 0x0 DUP1 REVERT JUMPDEST POP PUSH2 0x383 PUSH1 0x4 DUP1 CALLDATASIZE SUB DUP2 ADD SWAP1 PUSH2 0x37E SWAP2 SWAP1 PUSH2 0x2FDD JUMP JUMPDEST PUSH2 0xF02 JUMP JUMPDEST PUSH1 0x40 MLOAD PUSH2 0x390 SWAP2 SWAP1 PUSH2 0x31AA JUMP JUMPDEST PUSH1 0x40 MLOAD DUP1 SWAP2 SUB SWAP1 RETURN JUMPDEST CALLVALUE DUP1 ISZERO PUSH2 0x3A5 JUMPI PUSH1 0x0 DUP1 REVERT JUMPDEST POP PUSH2 0x3AE PUSH2 0x11B8 JUMP JUMPDEST PUSH1 0x40 MLOAD PUSH2 0x3BB SWAP2 SWAP1 PUSH2 0x2D65 JUMP JUMPDEST PUSH1 0x40 MLOAD DUP1 SWAP2 SUB SWAP1 RETURN JUMPDEST CALLVALUE DUP1 ISZERO PUSH2 0x3D0 JUMPI PUSH1 0x0 DUP1 REVERT JUMPDEST POP PUSH2 0x3EB PUSH1 0x4 DUP1 CALLDATASIZE SUB DUP2 ADD SWAP1 PUSH2 0x3E6 SWAP2 SWAP1 PUSH2 0x2DD9 JUMP JUMPDEST PUSH2 0x11DC JUMP JUMPDEST PUSH1 0x40 MLOAD PUSH2 0x3FA SWAP4 SWAP3 SWAP2 SWAP1 PUSH2 0x31CC JUMP JUMPDEST PUSH1 0x40 MLOAD DUP1 SWAP2 SUB SWAP1 RETURN JUMPDEST CALLVALUE DUP1 ISZERO PUSH2 0x40F JUMPI PUSH1 0x0 DUP1 REVERT JUMPDEST POP PUSH2 0x418 PUSH2 0x128E JUMP JUMPDEST PUSH1 0x40 MLOAD PUSH2 0x425 SWAP2 SWAP1 PUSH2 0x3219 JUMP JUMPDEST PUSH1 0x40 MLOAD DUP1 SWAP2 SUB SWAP1 RETURN JUMPDEST CALLVALUE DUP1 ISZERO PUSH2 0x43A JUMPI PUSH1 0x0 DUP1 REVERT JUMPDEST POP PUSH2 0x455 PUSH1 0x4 DUP1 CALLDATASIZE SUB DUP2 ADD SWAP1 PUSH2 0x450 SWAP2 SWAP1 PUSH2 0x2DD9 JUMP JUMPDEST PUSH2 0x12B4 JUMP JUMPDEST PUSH1 0x40 MLOAD PUSH2 0x466 SWAP6 SWAP5 SWAP4 SWAP3 SWAP2 SWAP1 PUSH2 0x2F83 JUMP JUMPDEST PUSH1 0x40 MLOAD DUP1 SWAP2 SUB SWAP1 RETURN JUMPDEST CALLVALUE DUP1 ISZERO PUSH2 0x47B JUMPI PUSH1 0x0 DUP1 REVERT JUMPDEST POP PUSH2 0x496 PUSH1 0x4 DUP1 CALLDATASIZE SUB DUP2 ADD SWAP1 PUSH2 0x491 SWAP2 SWAP1 PUSH2 0x2DD9 JUMP JUMPDEST PUSH2 0x137F JUMP JUMPDEST PUSH1 0x40 MLOAD PUSH2 0x4A5 SWAP4 SWAP3 SWAP2 SWAP1 PUSH2 0x3234 JUMP JUMPDEST PUSH1 0x40 MLOAD DUP1 SWAP2 SUB SWAP1 RETURN JUMPDEST CALLVALUE DUP1 ISZERO PUSH2 0x4BA JUMPI PUSH1 0x0 DUP1 REVERT JUMPDEST POP PUSH2 0x4D5 PUSH1 0x4 DUP1 CALLDATASIZE SUB DUP2 ADD SWAP1 PUSH2 0x4D0 SWAP2 SWAP1 PUSH2 0x2DD9 JUMP JUMPDEST PUSH2 0x1491 JUMP JUMPDEST PUSH1 0x40 MLOAD PUSH2 0x4E6 SWAP6 SWAP5 SWAP4 SWAP3 SWAP2 SWAP1 PUSH2 0x2F83 JUMP JUMPDEST PUSH1 0x40 MLOAD DUP1 SWAP2 SUB SWAP1 RETURN JUMPDEST CALLVALUE DUP1 ISZERO PUSH2 0x4FB JUMPI PUSH1 0x0 DUP1 REVERT JUMPDEST POP PUSH2 0x516 PUSH1 0x4 DUP1 CALLDATASIZE SUB DUP2 ADD SWAP1 PUSH2 0x511 SWAP2 SWAP1 PUSH2 0x2D0C JUMP JUMPDEST PUSH2 0x155C JUMP JUMPDEST STOP JUMPDEST CALLVALUE DUP1 ISZERO PUSH2 0x524 JUMPI PUSH1 0x0 DUP1 REVERT JUMPDEST POP PUSH2 0x52D PUSH2 0x175A JUMP JUMPDEST PUSH1 0x40 MLOAD PUSH2 0x53A SWAP2 SWAP1 PUSH2 0x337D JUMP JUMPDEST PUSH1 0x40 MLOAD DUP1 SWAP2 SUB SWAP1 RETURN JUMPDEST CALLVALUE DUP1 ISZERO PUSH2 0x54F JUMPI PUSH1 0x0 DUP1 REVERT JUMPDEST POP PUSH2 0x56A PUSH1 0x4 DUP1 CALLDATASIZE SUB DUP2 ADD SWAP1 PUSH2 0x565 SWAP2 SWAP1 PUSH2 0x2E64 JUMP JUMPDEST PUSH2 0x18DE JUMP JUMPDEST PUSH1 0x40 MLOAD PUSH2 0x577 SWAP2 SWAP1 PUSH2 0x2CBB JUMP JUMPDEST PUSH1 0x40 MLOAD DUP1 SWAP2 SUB SWAP1 RETURN JUMPDEST CALLVALUE DUP1 ISZERO PUSH2 0x58C JUMPI PUSH1 0x0 DUP1 REVERT JUMPDEST POP PUSH2 0x595 PUSH2 0x1948 JUMP JUMPDEST PUSH1 0x40 MLOAD PUSH2 0x5A2 SWAP2 SWAP1 PUSH2 0x2D65 JUMP JUMPDEST PUSH1 0x40 MLOAD DUP1 SWAP2 SUB SWAP1 RETURN JUMPDEST PUSH2 0x5C5 PUSH1 0x4 DUP1 CALLDATASIZE SUB DUP2 ADD SWAP1 PUSH2 0x5C0 SWAP2 SWAP1 PUSH2 0x2D0C JUMP JUMPDEST PUSH2 0x196C JUMP JUMPDEST STOP JUMPDEST CALLVALUE DUP1 ISZERO PUSH2 0x5D3 JUMPI PUSH1 0x0 DUP1 REVERT JUMPDEST POP PUSH2 0x5DC PUSH2 0x1E72 JUMP JUMPDEST PUSH1 0x40 MLOAD PUSH2 0x5E9 SWAP2 SWAP1 PUSH2 0x2D65 JUMP JUMPDEST PUSH1 0x40 MLOAD DUP1 SWAP2 SUB SWAP1 RETURN JUMPDEST CALLVALUE DUP1 ISZERO PUSH2 0x5FE JUMPI PUSH1 0x0 DUP1 REVERT JUMPDEST POP PUSH2 0x619 PUSH1 0x4 DUP1 CALLDATASIZE SUB DUP2 ADD SWAP1 PUSH2 0x614 SWAP2 SWAP1 PUSH2 0x2D0C JUMP JUMPDEST PUSH2 0x1E79 JUMP JUMPDEST STOP JUMPDEST PUSH2 0x635 PUSH1 0x4 DUP1 CALLDATASIZE SUB DUP2 ADD SWAP1 PUSH2 0x630 SWAP2 SWAP1 PUSH2 0x2D0C JUMP JUMPDEST PUSH2 0x1FC4 JUMP JUMPDEST STOP JUMPDEST CALLVALUE DUP1 ISZERO PUSH2 0x643 JUMPI PUSH1 0x0 DUP1 REVERT JUMPDEST POP PUSH2 0x64C PUSH2 0x2322 JUMP JUMPDEST PUSH1 0x40 MLOAD PUSH2 0x659 SWAP2 SWAP1 PUSH2 0x31AA JUMP JUMPDEST PUSH1 0x40 MLOAD DUP1 SWAP2 SUB SWAP1 RETURN JUMPDEST CALLVALUE DUP1 ISZERO PUSH2 0x66E JUMPI PUSH1 0x0 DUP1 REVERT JUMPDEST POP PUSH2 0x677 PUSH2 0x24CB JUMP JUMPDEST PUSH1 0x40 MLOAD PUSH2 0x684 SWAP2 SWAP1 PUSH2 0x2D65 JUMP JUMPDEST PUSH1 0x40 MLOAD DUP1 SWAP2 SUB SWAP1 RETURN JUMPDEST CALLVALUE DUP1 ISZERO PUSH2 0x699 JUMPI PUSH1 0x0 DUP1 REVERT JUMPDEST POP PUSH2 0x6B4 PUSH1 0x4 DUP1 CALLDATASIZE SUB DUP2 ADD SWAP1 PUSH2 0x6AF SWAP2 SWAP1 PUSH2 0x2E64 JUMP JUMPDEST PUSH2 0x24EF JUMP JUMPDEST STOP JUMPDEST CALLVALUE DUP1 ISZERO PUSH2 0x6C2 JUMPI PUSH1 0x0 DUP1 REVERT JUMPDEST POP PUSH2 0x6CB PUSH2 0x2511 JUMP JUMPDEST PUSH1 0x40 MLOAD PUSH2 0x6D8 SWAP2 SWAP1 PUSH2 0x3219 JUMP JUMPDEST PUSH1 0x40 MLOAD DUP1 SWAP2 SUB SWAP1 RETURN JUMPDEST CALLVALUE DUP1 ISZERO PUSH2 0x6ED JUMPI PUSH1 0x0 DUP1 REVERT JUMPDEST POP PUSH2 0x708 PUSH1 0x4 DUP1 CALLDATASIZE SUB DUP2 ADD SWAP1 PUSH2 0x703 SWAP2 SWAP1 PUSH2 0x34D4 JUMP JUMPDEST PUSH2 0x2537 JUMP JUMPDEST STOP JUMPDEST CALLVALUE DUP1 ISZERO PUSH2 0x716 JUMPI PUSH1 0x0 DUP1 REVERT JUMPDEST POP PUSH2 0x731 PUSH1 0x4 DUP1 CALLDATASIZE SUB DUP2 ADD SWAP1 PUSH2 0x72C SWAP2 SWAP1 PUSH2 0x2E64 JUMP JUMPDEST PUSH2 0x26F7 JUMP JUMPDEST STOP JUMPDEST CALLVALUE DUP1 ISZERO PUSH2 0x73F JUMPI PUSH1 0x0 DUP1 REVERT JUMPDEST POP PUSH2 0x748 PUSH2 0x2752 JUMP JUMPDEST PUSH1 0x40 MLOAD PUSH2 0x755 SWAP2 SWAP1 PUSH2 0x31AA JUMP JUMPDEST PUSH1 0x40 MLOAD DUP1 SWAP2 SUB SWAP1 RETURN JUMPDEST PUSH1 0x0 PUSH32 0x7965DB0B00000000000000000000000000000000000000000000000000000000 PUSH28 0xFFFFFFFFFFFFFFFFFFFFFFFFFFFFFFFFFFFFFFFFFFFFFFFFFFFFFFFF NOT AND DUP3 PUSH28 0xFFFFFFFFFFFFFFFFFFFFFFFFFFFFFFFFFFFFFFFFFFFFFFFFFFFFFFFF NOT AND EQ DUP1 PUSH2 0x7D1 JUMPI POP PUSH2 0x7D0 DUP3 PUSH2 0x28FB JUMP JUMPDEST JUMPDEST SWAP1 POP SWAP2 SWAP1 POP JUMP JUMPDEST PUSH2 0x802 PUSH32 0xDED9B5E0E0E3A2B3F09A0BC36EC64B9BF7A7C2319F3C4D9CFF5CE48714257B21 CALLER PUSH2 0x18DE JUMP JUMPDEST PUSH2 0x841 JUMPI PUSH1 0x40 MLOAD PUSH32 0x8C379A000000000000000000000000000000000000000000000000000000000 DUP2 MSTORE PUSH1 0x4 ADD PUSH2 0x838 SWAP1 PUSH2 0x35C9 JUMP JUMPDEST PUSH1 0x40 MLOAD DUP1 SWAP2 SUB SWAP1 REVERT JUMPDEST PUSH1 0x0 PUSH1 0x5 PUSH1 0x0 DUP5 DUP2 MSTORE PUSH1 0x20 ADD SWAP1 DUP2 MSTORE PUSH1 0x20 ADD PUSH1 0x0 KECCAK256 SWAP1 POP PUSH1 0x40 MLOAD DUP1 PUSH1 0x40 ADD PUSH1 0x40 MSTORE DUP1 PUSH1 0x12 DUP2 MSTORE PUSH1 0x20 ADD PUSH32 0x72656164795F666F725F736869706D656E740000000000000000000000000000 DUP2 MSTORE POP DUP1 MLOAD SWAP1 PUSH1 0x20 ADD KECCAK256 PUSH1 0x7 PUSH1 0x0 DUP6 DUP2 MSTORE PUSH1 0x20 ADD SWAP1 DUP2 MSTORE PUSH1 0x20 ADD PUSH1 0x0 KECCAK256 PUSH1 0x1 ADD PUSH1 0x40 MLOAD PUSH2 0x8B8 SWAP2 SWAP1 PUSH2 0x36EC JUMP JUMPDEST PUSH1 0x40 MLOAD DUP1 SWAP2 SUB SWAP1 KECCAK256 EQ PUSH2 0x900 JUMPI PUSH1 0x40 MLOAD PUSH32 0x8C379A000000000000000000000000000000000000000000000000000000000 DUP2 MSTORE PUSH1 0x4 ADD PUSH2 0x8F7 SWAP1 PUSH2 0x3775 JUMP JUMPDEST PUSH1 0x40 MLOAD DUP1 SWAP2 SUB SWAP1 REVERT JUMPDEST PUSH1 0x40 MLOAD DUP1 PUSH1 0x40 ADD PUSH1 0x40 MSTORE DUP1 PUSH1 0x7 DUP2 MSTORE PUSH1 0x20 ADD PUSH32 0x7368697070656400000000000000000000000000000000000000000000000000 DUP2 MSTORE POP PUSH1 0x7 PUSH1 0x0 DUP6 DUP2 MSTORE PUSH1 0x20 ADD SWAP1 DUP2 MSTORE PUSH1 0x20 ADD PUSH1 0x0 KECCAK256 PUSH1 0x1 ADD SWAP1 DUP2 PUSH2 0x958 SWAP2 SWAP1 PUSH2 0x3941 JUMP JUMPDEST POP DUP2 PUSH1 0x5 PUSH1 0x0 DUP6 DUP2 MSTORE PUSH1 0x20 ADD SWAP1 DUP2 MSTORE PUSH1 0x20 ADD PUSH1 0x0 KECCAK256 PUSH1 0x3 ADD PUSH1 0x0 DUP3 DUP3 SLOAD PUSH2 0x97F SWAP2 SWAP1 PUSH2 0x3A42 JUMP JUMPDEST SWAP3 POP POP DUP2 SWAP1 SSTORE POP PUSH32 0xF91B0B39FBB56D78224050BB7E56777EE7ACA5ED18ADA91CC9C21677DB7F9ABE DUP4 PUSH1 0x40 MLOAD PUSH2 0x9B5 SWAP2 SWAP1 PUSH2 0x3A76 JUMP JUMPDEST PUSH1 0x40 MLOAD DUP1 SWAP2 SUB SWAP1 LOG1 POP POP POP JUMP JUMPDEST PUSH32 0x2A5F906C256A5D799494FCD066E1F6C077689DE1CDB65052A1624DE4BACE99BF DUP2 JUMP JUMPDEST PUSH1 0x0 DUP1 PUSH1 0x0 DUP4 DUP2 MSTORE PUSH1 0x20 ADD SWAP1 DUP2 MSTORE PUSH1 0x20 ADD PUSH1 0x0 KECCAK256 PUSH1 0x1 ADD SLOAD SWAP1 POP SWAP2 SWAP1 POP JUMP JUMPDEST PUSH2 0xA2F PUSH32 0x2A5F906C256A5D799494FCD066E1F6C077689DE1CDB65052A1624DE4BACE99BF CALLER PUSH2 0x18DE JUMP JUMPDEST PUSH2 0xA6E JUMPI PUSH1 0x40 MLOAD PUSH32 0x8C379A000000000000000000000000000000000000000000000000000000000 DUP2 MSTORE PUSH1 0x4 ADD PUSH2 0xA65 SWAP1 PUSH2 0x3ADD JUMP JUMPDEST PUSH1 0x40 MLOAD DUP1 SWAP2 SUB SWAP1 REVERT JUMPDEST PUSH1 0x40 MLOAD DUP1 PUSH1 0x40 ADD PUSH1 0x40 MSTORE DUP1 PUSH1 0x7 DUP2 MSTORE PUSH1 0x20 ADD PUSH32 0x7368697070656400000000000000000000000000000000000000000000000000 DUP2 MSTORE POP DUP1 MLOAD SWAP1 PUSH1 0x20 ADD KECCAK256 PUSH1 0x7 PUSH1 0x0 DUP4 DUP2 MSTORE PUSH1 0x20 ADD SWAP1 DUP2 MSTORE PUSH1 0x20 ADD PUSH1 0x0 KECCAK256 PUSH1 0x1 ADD PUSH1 0x40 MLOAD PUSH2 0xACE SWAP2 SWAP1 PUSH2 0x36EC JUMP JUMPDEST PUSH1 0x40 MLOAD DUP1 SWAP2 SUB SWAP1 KECCAK256 EQ PUSH2 0xB16 JUMPI PUSH1 0x40 MLOAD PUSH32 0x8C379A000000000000000000000000000000000000000000000000000000000 DUP2 MSTORE PUSH1 0x4 ADD PUSH2 0xB0D SWAP1 PUSH2 0x3B49 JUMP JUMPDEST PUSH1 0x40 MLOAD DUP1 SWAP2 SUB SWAP1 REVERT JUMPDEST PUSH1 0x40 MLOAD DUP1 PUSH1 0x40 ADD PUSH1 0x40 MSTORE DUP1 PUSH1 0x8 DUP2 MSTORE PUSH1 0x20 ADD PUSH32 0x7265636569766564000000000000000000000000000000000000000000000000 DUP2 MSTORE POP PUSH1 0x7 PUSH1 0x0 DUP4 DUP2 MSTORE PUSH1 0x20 ADD SWAP1 DUP2 MSTORE PUSH1 0x20 ADD PUSH1 0x0 KECCAK256 PUSH1 0x1 ADD SWAP1 DUP2 PUSH2 0xB6E SWAP2 SWAP1 PUSH2 0x3941 JUMP JUMPDEST POP PUSH1 0x0 PUSH1 0x6 PUSH1 0x0 DUP4 DUP2 MSTORE PUSH1 0x20 ADD SWAP1 DUP2 MSTORE PUSH1 0x20 ADD PUSH1 0x0 KECCAK256 PUSH1 0x3 ADD SLOAD GT ISZERO PUSH2 0xBD6 JUMPI PUSH1 0x7 PUSH1 0x0 DUP3 DUP2 MSTORE PUSH1 0x20 ADD SWAP1 DUP2 MSTORE PUSH1 0x20 ADD PUSH1 0x0 KECCAK256 PUSH1 0x2 ADD SLOAD PUSH1 0x6 PUSH1 0x0 DUP4 DUP2 MSTORE PUSH1 0x20 ADD SWAP1 DUP2 MSTORE PUSH1 0x20 ADD PUSH1 0x0 KECCAK256 PUSH1 0x3 ADD PUSH1 0x0 DUP3 DUP3 SLOAD PUSH2 0xBCA SWAP2 SWAP1 PUSH2 0x3B69 JUMP JUMPDEST SWAP3 POP POP DUP2 SWAP1 SSTORE POP PUSH2 0xD35 JUMP JUMPDEST PUSH1 0x40 MLOAD DUP1 PUSH1 0xA0 ADD PUSH1 0x40 MSTORE DUP1 DUP3 DUP2 MSTORE PUSH1 0x20 ADD PUSH1 0x5 PUSH1 0x0 DUP5 DUP2 MSTORE PUSH1 0x20 ADD SWAP1 DUP2 MSTORE PUSH1 0x20 ADD PUSH1 0x0 KECCAK256 PUSH1 0x1 ADD DUP1 SLOAD PUSH2 0xC08 SWAP1 PUSH2 0x3618 JUMP JUMPDEST DUP1 PUSH1 0x1F ADD PUSH1 0x20 DUP1 SWAP2 DIV MUL PUSH1 0x20 ADD PUSH1 0x40 MLOAD SWAP1 DUP2 ADD PUSH1 0x40 MSTORE DUP1 SWAP3 SWAP2 SWAP1 DUP2 DUP2 MSTORE PUSH1 0x20 ADD DUP3 DUP1 SLOAD PUSH2 0xC34 SWAP1 PUSH2 0x3618 JUMP JUMPDEST DUP1 ISZERO PUSH2 0xC81 JUMPI DUP1 PUSH1 0x1F LT PUSH2 0xC56 JUMPI PUSH2 0x100 DUP1 DUP4 SLOAD DIV MUL DUP4 MSTORE SWAP2 PUSH1 0x20 ADD SWAP2 PUSH2 0xC81 JUMP JUMPDEST DUP3 ADD SWAP2 SWAP1 PUSH1 0x0 MSTORE PUSH1 0x20 PUSH1 0x0 KECCAK256 SWAP1 JUMPDEST DUP2 SLOAD DUP2 MSTORE SWAP1 PUSH1 0x1 ADD SWAP1 PUSH1 0x20 ADD DUP1 DUP4 GT PUSH2 0xC64 JUMPI DUP3 SWAP1 SUB PUSH1 0x1F AND DUP3 ADD SWAP2 JUMPDEST POP POP POP POP POP DUP2 MSTORE PUSH1 0x20 ADD PUSH1 0x5 PUSH1 0x0 DUP5 DUP2 MSTORE PUSH1 0x20 ADD SWAP1 DUP2 MSTORE PUSH1 0x20 ADD PUSH1 0x0 KECCAK256 PUSH1 0x2 ADD SLOAD DUP2 MSTORE PUSH1 0x20 ADD PUSH1 0x7 PUSH1 0x0 DUP5 DUP2 MSTORE PUSH1 0x20 ADD SWAP1 DUP2 MSTORE PUSH1 0x20 ADD PUSH1 0x0 KECCAK256 PUSH1 0x2 ADD SLOAD DUP2 MSTORE PUSH1 0x20 ADD PUSH1 0x0 ISZERO ISZERO DUP2 MSTORE POP PUSH1 0x6 PUSH1 0x0 DUP4 DUP2 MSTORE PUSH1 0x20 ADD SWAP1 DUP2 MSTORE PUSH1 0x20 ADD PUSH1 0x0 KECCAK256 PUSH1 0x0 DUP3 ADD MLOAD DUP2 PUSH1 0x0 ADD SSTORE PUSH1 0x20 DUP3 ADD MLOAD DUP2 PUSH1 0x1 ADD SWAP1 DUP2 PUSH2 0xCFC SWAP2 SWAP1 PUSH2 0x3941 JUMP JUMPDEST POP PUSH1 0x40 DUP3 ADD MLOAD DUP2 PUSH1 0x2 ADD SSTORE PUSH1 0x60 DUP3 ADD MLOAD DUP2 PUSH1 0x3 ADD SSTORE PUSH1 0x80 DUP3 ADD MLOAD DUP2 PUSH1 0x4 ADD PUSH1 0x0 PUSH2 0x100 EXP DUP2 SLOAD DUP2 PUSH1 0xFF MUL NOT AND SWAP1 DUP4 ISZERO ISZERO MUL OR SWAP1 SSTORE POP SWAP1 POP POP JUMPDEST PUSH1 0x0 PUSH1 0x7 PUSH1 0x0 DUP4 DUP2 MSTORE PUSH1 0x20 ADD SWAP1 DUP2 MSTORE PUSH1 0x20 ADD PUSH1 0x0 KECCAK256 PUSH1 0x2 ADD DUP2 SWAP1 SSTORE POP PUSH32 0x7EB38F83FEC1BDC45E831C15E9E3EB2369028929A0E38E3709B7E710362F823B DUP2 CALLER PUSH1 0x40 MLOAD PUSH2 0xD82 SWAP3 SWAP2 SWAP1 PUSH2 0x3B9D JUMP JUMPDEST PUSH1 0x40 MLOAD DUP1 SWAP2 SUB SWAP1 LOG1 POP JUMP JUMPDEST PUSH2 0xD96 DUP3 PUSH2 0x9E6 JUMP JUMPDEST PUSH2 0xD9F DUP2 PUSH2 0x2965 JUMP JUMPDEST PUSH2 0xDA9 DUP4 DUP4 PUSH2 0x2979 JUMP JUMPDEST POP POP POP POP JUMP JUMPDEST PUSH2 0xDB7 PUSH2 0x2A6A JUMP JUMPDEST PUSH20 0xFFFFFFFFFFFFFFFFFFFFFFFFFFFFFFFFFFFFFFFF AND DUP2 PUSH20 0xFFFFFFFFFFFFFFFFFFFFFFFFFFFFFFFFFFFFFFFF AND EQ PUSH2 0xE1B JUMPI PUSH1 0x40 MLOAD PUSH32 0x6697B23200000000000000000000000000000000000000000000000000000000 DUP2 MSTORE PUSH1 0x4 ADD PUSH1 0x40 MLOAD DUP1 SWAP2 SUB SWAP1 REVERT JUMPDEST PUSH2 0xE25 DUP3 DUP3 PUSH2 0x2A72 JUMP JUMPDEST POP POP POP JUMP JUMPDEST PUSH1 0x4 PUSH1 0x20 MSTORE DUP2 PUSH1 0x0 MSTORE PUSH1 0x40 PUSH1 0x0 KECCAK256 PUSH1 0x20 MSTORE DUP1 PUSH1 0x0 MSTORE PUSH1 0x40 PUSH1 0x0 KECCAK256 PUSH1 0x0 SWAP2 POP SWAP2 POP POP DUP1 PUSH1 0x0 ADD SLOAD SWAP1 DUP1 PUSH1 0x1 ADD DUP1 SLOAD PUSH2 0xE60 SWAP1 PUSH2 0x3618 JUMP JUMPDEST DUP1 PUSH1 0x1F ADD PUSH1 0x20 DUP1 SWAP2 DIV MUL PUSH1 0x20 ADD PUSH1 0x40 MLOAD SWAP1 DUP2 ADD PUSH1 0x40 MSTORE DUP1 SWAP3 SWAP2 SWAP1 DUP2 DUP2 MSTORE PUSH1 0x20 ADD DUP3 DUP1 SLOAD PUSH2 0xE8C SWAP1 PUSH2 0x3618 JUMP JUMPDEST DUP1 ISZERO PUSH2 0xED9 JUMPI DUP1 PUSH1 0x1F LT PUSH2 0xEAE JUMPI PUSH2 0x100 DUP1 DUP4 SLOAD DIV MUL DUP4 MSTORE SWAP2 PUSH1 0x20 ADD SWAP2 PUSH2 0xED9 JUMP JUMPDEST DUP3 ADD SWAP2 SWAP1 PUSH1 0x0 MSTORE PUSH1 0x20 PUSH1 0x0 KECCAK256 SWAP1 JUMPDEST DUP2 SLOAD DUP2 MSTORE SWAP1 PUSH1 0x1 ADD SWAP1 PUSH1 0x20 ADD DUP1 DUP4 GT PUSH2 0xEBC JUMPI DUP3 SWAP1 SUB PUSH1 0x1F AND DUP3 ADD SWAP2 JUMPDEST POP POP POP POP POP SWAP1 DUP1 PUSH1 0x2 ADD SLOAD SWAP1 DUP1 PUSH1 0x3 ADD SLOAD SWAP1 DUP1 PUSH1 0x4 ADD PUSH1 0x0 SWAP1 SLOAD SWAP1 PUSH2 0x100 EXP SWAP1 DIV PUSH1 0xFF AND SWAP1 POP DUP6 JUMP JUMPDEST PUSH1 0x60 PUSH1 0x0 DUP1 JUMPDEST PUSH1 0x3 DUP1 SLOAD SWAP1 POP DUP2 LT ISZERO PUSH2 0xFAB JUMPI PUSH1 0x0 PUSH1 0x4 PUSH1 0x0 DUP7 PUSH20 0xFFFFFFFFFFFFFFFFFFFFFFFFFFFFFFFFFFFFFFFF AND PUSH20 0xFFFFFFFFFFFFFFFFFFFFFFFFFFFFFFFFFFFFFFFF AND DUP2 MSTORE PUSH1 0x20 ADD SWAP1 DUP2 MSTORE PUSH1 0x20 ADD PUSH1 0x0 KECCAK256 PUSH1 0x0 PUSH1 0x3 DUP5 DUP2 SLOAD DUP2 LT PUSH2 0xF6C JUMPI PUSH2 0xF6B PUSH2 0x3BC6 JUMP JUMPDEST JUMPDEST SWAP1 PUSH1 0x0 MSTORE PUSH1 0x20 PUSH1 0x0 KECCAK256 ADD SLOAD DUP2 MSTORE PUSH1 0x20 ADD SWAP1 DUP2 MSTORE PUSH1 0x20 ADD PUSH1 0x0 KECCAK256 PUSH1 0x3 ADD SLOAD GT ISZERO PUSH2 0xF9E JUMPI DUP2 DUP1 PUSH2 0xF9A SWAP1 PUSH2 0x3BF5 JUMP JUMPDEST SWAP3 POP POP JUMPDEST DUP1 DUP1 PUSH1 0x1 ADD SWAP2 POP POP PUSH2 0xF08 JUMP JUMPDEST POP PUSH1 0x0 DUP2 PUSH8 0xFFFFFFFFFFFFFFFF DUP2 GT ISZERO PUSH2 0xFC8 JUMPI PUSH2 0xFC7 PUSH2 0x33A9 JUMP JUMPDEST JUMPDEST PUSH1 0x40 MLOAD SWAP1 DUP1 DUP3 MSTORE DUP1 PUSH1 0x20 MUL PUSH1 0x20 ADD DUP3 ADD PUSH1 0x40 MSTORE DUP1 ISZERO PUSH2 0x1001 JUMPI DUP2 PUSH1 0x20 ADD JUMPDEST PUSH2 0xFEE PUSH2 0x2BB5 JUMP JUMPDEST DUP2 MSTORE PUSH1 0x20 ADD SWAP1 PUSH1 0x1 SWAP1 SUB SWAP1 DUP2 PUSH2 0xFE6 JUMPI SWAP1 POP JUMPDEST POP SWAP1 POP PUSH1 0x0 DUP1 JUMPDEST PUSH1 0x3 DUP1 SLOAD SWAP1 POP DUP2 LT ISZERO PUSH2 0x11AC JUMPI PUSH1 0x0 PUSH1 0x3 DUP3 DUP2 SLOAD DUP2 LT PUSH2 0x102B JUMPI PUSH2 0x102A PUSH2 0x3BC6 JUMP JUMPDEST JUMPDEST SWAP1 PUSH1 0x0 MSTORE PUSH1 0x20 PUSH1 0x0 KECCAK256 ADD SLOAD SWAP1 POP PUSH1 0x0 PUSH1 0x4 PUSH1 0x0 DUP10 PUSH20 0xFFFFFFFFFFFFFFFFFFFFFFFFFFFFFFFFFFFFFFFF AND PUSH20 0xFFFFFFFFFFFFFFFFFFFFFFFFFFFFFFFFFFFFFFFF AND DUP2 MSTORE PUSH1 0x20 ADD SWAP1 DUP2 MSTORE PUSH1 0x20 ADD PUSH1 0x0 KECCAK256 PUSH1 0x0 DUP4 DUP2 MSTORE PUSH1 0x20 ADD SWAP1 DUP2 MSTORE PUSH1 0x20 ADD PUSH1 0x0 KECCAK256 SWAP1 POP PUSH1 0x0 DUP2 PUSH1 0x3 ADD SLOAD GT ISZERO PUSH2 0x119D JUMPI DUP1 PUSH1 0x40 MLOAD DUP1 PUSH1 0xA0 ADD PUSH1 0x40 MSTORE SWAP1 DUP2 PUSH1 0x0 DUP3 ADD SLOAD DUP2 MSTORE PUSH1 0x20 ADD PUSH1 0x1 DUP3 ADD DUP1 SLOAD PUSH2 0x10BF SWAP1 PUSH2 0x3618 JUMP JUMPDEST DUP1 PUSH1 0x1F ADD PUSH1 0x20 DUP1 SWAP2 DIV MUL PUSH1 0x20 ADD PUSH1 0x40 MLOAD SWAP1 DUP2 ADD PUSH1 0x40 MSTORE DUP1 SWAP3 SWAP2 SWAP1 DUP2 DUP2 MSTORE PUSH1 0x20 ADD DUP3 DUP1 SLOAD PUSH2 0x10EB SWAP1 PUSH2 0x3618 JUMP JUMPDEST DUP1 ISZERO PUSH2 0x1138 JUMPI DUP1 PUSH1 0x1F LT PUSH2 0x110D JUMPI PUSH2 0x100 DUP1 DUP4 SLOAD DIV MUL DUP4 MSTORE SWAP2 PUSH1 0x20 ADD SWAP2 PUSH2 0x1138 JUMP JUMPDEST DUP3 ADD SWAP2 SWAP1 PUSH1 0x0 MSTORE PUSH1 0x20 PUSH1 0x0 KECCAK256 SWAP1 JUMPDEST DUP2 SLOAD DUP2 MSTORE SWAP1 PUSH1 0x1 ADD SWAP1 PUSH1 0x20 ADD DUP1 DUP4 GT PUSH2 0x111B JUMPI DUP3 SWAP1 SUB PUSH1 0x1F AND DUP3 ADD SWAP2 JUMPDEST POP POP POP POP POP DUP2 MSTORE PUSH1 0x20 ADD PUSH1 0x2 DUP3 ADD SLOAD DUP2 MSTORE PUSH1 0x20 ADD PUSH1 0x3 DUP3 ADD SLOAD DUP2 MSTORE PUSH1 0x20 ADD PUSH1 0x4 DUP3 ADD PUSH1 0x0 SWAP1 SLOAD SWAP1 PUSH2 0x100 EXP SWAP1 DIV PUSH1 0xFF AND ISZERO ISZERO ISZERO ISZERO DUP2 MSTORE POP POP DUP6 DUP6 DUP2 MLOAD DUP2 LT PUSH2 0x1183 JUMPI PUSH2 0x1182 PUSH2 0x3BC6 JUMP JUMPDEST JUMPDEST PUSH1 0x20 MUL PUSH1 0x20 ADD ADD DUP2 SWAP1 MSTORE POP DUP4 DUP1 PUSH2 0x1199 SWAP1 PUSH2 0x3BF5 JUMP JUMPDEST SWAP5 POP POP JUMPDEST POP POP DUP1 DUP1 PUSH1 0x1 ADD SWAP2 POP POP PUSH2 0x1008 JUMP JUMPDEST POP DUP2 SWAP4 POP POP POP POP SWAP2 SWAP1 POP JUMP JUMPDEST PUSH32 0x9D56108290EA0BC9C5C59C3AD357DCA9D1B29ED7F3AE1443BEF2FA2159BDF5E8 DUP2 JUMP JUMPDEST PUSH1 0x7 PUSH1 0x20 MSTORE DUP1 PUSH1 0x0 MSTORE PUSH1 0x40 PUSH1 0x0 KECCAK256 PUSH1 0x0 SWAP2 POP SWAP1 POP DUP1 PUSH1 0x0 ADD SLOAD SWAP1 DUP1 PUSH1 0x1 ADD DUP1 SLOAD PUSH2 0x1205 SWAP1 PUSH2 0x3618 JUMP JUMPDEST DUP1 PUSH1 0x1F ADD PUSH1 0x20 DUP1 SWAP2 DIV MUL PUSH1 0x20 ADD PUSH1 0x40 MLOAD SWAP1 DUP2 ADD PUSH1 0x40 MSTORE DUP1 SWAP3 SWAP2 SWAP1 DUP2 DUP2 MSTORE PUSH1 0x20 ADD DUP3 DUP1 SLOAD PUSH2 0x1231 SWAP1 PUSH2 0x3618 JUMP JUMPDEST DUP1 ISZERO PUSH2 0x127E JUMPI DUP1 PUSH1 0x1F LT PUSH2 0x1253 JUMPI PUSH2 0x100 DUP1 DUP4 SLOAD DIV MUL DUP4 MSTORE SWAP2 PUSH1 0x20 ADD SWAP2 PUSH2 0x127E JUMP JUMPDEST DUP3 ADD SWAP2 SWAP1 PUSH1 0x0 MSTORE PUSH1 0x20 PUSH1 0x0 KECCAK256 SWAP1 JUMPDEST DUP2 SLOAD DUP2 MSTORE SWAP1 PUSH1 0x1 ADD SWAP1 PUSH1 0x20 ADD DUP1 DUP4 GT PUSH2 0x1261 JUMPI DUP3 SWAP1 SUB PUSH1 0x1F AND DUP3 ADD SWAP2 JUMPDEST POP POP POP POP POP SWAP1 DUP1 PUSH1 0x2 ADD SLOAD SWAP1 POP DUP4 JUMP JUMPDEST PUSH1 0x2 PUSH1 0x0 SWAP1 SLOAD SWAP1 PUSH2 0x100 EXP SWAP1 DIV PUSH20 0xFFFFFFFFFFFFFFFFFFFFFFFFFFFFFFFFFFFFFFFF AND DUP2 JUMP JUMPDEST PUSH1 0x6 PUSH1 0x20 MSTORE DUP1 PUSH1 0x0 MSTORE PUSH1 0x40 PUSH1 0x0 KECCAK256 PUSH1 0x0 SWAP2 POP SWAP1 POP DUP1 PUSH1 0x0 ADD SLOAD SWAP1 DUP1 PUSH1 0x1 ADD DUP1 SLOAD PUSH2 0x12DD SWAP1 PUSH2 0x3618 JUMP JUMPDEST DUP1 PUSH1 0x1F ADD PUSH1 0x20 DUP1 SWAP2 DIV MUL PUSH1 0x20 ADD PUSH1 0x40 MLOAD SWAP1 DUP2 ADD PUSH1 0x40 MSTORE DUP1 SWAP3 SWAP2 SWAP1 DUP2 DUP2 MSTORE PUSH1 0x20 ADD DUP3 DUP1 SLOAD PUSH2 0x1309 SWAP1 PUSH2 0x3618 JUMP JUMPDEST DUP1 ISZERO PUSH2 0x1356 JUMPI DUP1 PUSH1 0x1F LT PUSH2 0x132B JUMPI PUSH2 0x100 DUP1 DUP4 SLOAD DIV MUL DUP4 MSTORE SWAP2 PUSH1 0x20 ADD SWAP2 PUSH2 0x1356 JUMP JUMPDEST DUP3 ADD SWAP2 SWAP1 PUSH1 0x0 MSTORE PUSH1 0x20 PUSH1 0x0 KECCAK256 SWAP1 JUMPDEST DUP2 SLOAD DUP2 MSTORE SWAP1 PUSH1 0x1 ADD SWAP1 PUSH1 0x20 ADD DUP1 DUP4 GT PUSH2 0x1339 JUMPI DUP3 SWAP1 SUB PUSH1 0x1F AND DUP3 ADD SWAP2 JUMPDEST POP POP POP POP POP SWAP1 DUP1 PUSH1 0x2 ADD SLOAD SWAP1 DUP1 PUSH1 0x3 ADD SLOAD SWAP1 DUP1 PUSH1 0x4 ADD PUSH1 0x0 SWAP1 SLOAD SWAP1 PUSH2 0x100 EXP SWAP1 DIV PUSH1 0xFF AND SWAP1 POP DUP6 JUMP JUMPDEST PUSH1 0x0 DUP1 PUSH1 0x0 DUP1 PUSH1 0x6 PUSH1 0x0 DUP7 DUP2 MSTORE PUSH1 0x20 ADD SWAP1 DUP2 MSTORE PUSH1 0x20 ADD PUSH1 0x0 KECCAK256 PUSH1 0x40 MLOAD DUP1 PUSH1 0xA0 ADD PUSH1 0x40 MSTORE SWAP1 DUP2 PUSH1 0x0 DUP3 ADD SLOAD DUP2 MSTORE PUSH1 0x20 ADD PUSH1 0x1 DUP3 ADD DUP1 SLOAD PUSH2 0x13BD SWAP1 PUSH2 0x3618 JUMP JUMPDEST DUP1 PUSH1 0x1F ADD PUSH1 0x20 DUP1 SWAP2 DIV MUL PUSH1 0x20 ADD PUSH1 0x40 MLOAD SWAP1 DUP2 ADD PUSH1 0x40 MSTORE DUP1 SWAP3 SWAP2 SWAP1 DUP2 DUP2 MSTORE PUSH1 0x20 ADD DUP3 DUP1 SLOAD PUSH2 0x13E9 SWAP1 PUSH2 0x3618 JUMP JUMPDEST DUP1 ISZERO PUSH2 0x1436 JUMPI DUP1 PUSH1 0x1F LT PUSH2 0x140B JUMPI PUSH2 0x100 DUP1 DUP4 SLOAD DIV MUL DUP4 MSTORE SWAP2 PUSH1 0x20 ADD SWAP2 PUSH2 0x1436 JUMP JUMPDEST DUP3 ADD SWAP2 SWAP1 PUSH1 0x0 MSTORE PUSH1 0x20 PUSH1 0x0 KECCAK256 SWAP1 JUMPDEST DUP2 SLOAD DUP2 MSTORE SWAP1 PUSH1 0x1 ADD SWAP1 PUSH1 0x20 ADD DUP1 DUP4 GT PUSH2 0x1419 JUMPI DUP3 SWAP1 SUB PUSH1 0x1F AND DUP3 ADD SWAP2 JUMPDEST POP POP POP POP POP DUP2 MSTORE PUSH1 0x20 ADD PUSH1 0x2 DUP3 ADD SLOAD DUP2 MSTORE PUSH1 0x20 ADD PUSH1 0x3 DUP3 ADD SLOAD DUP2 MSTORE PUSH1 0x20 ADD PUSH1 0x4 DUP3 ADD PUSH1 0x0 SWAP1 SLOAD SWAP1 PUSH2 0x100 EXP SWAP1 DIV PUSH1 0xFF AND ISZERO ISZERO ISZERO ISZERO DUP2 MSTORE POP POP SWAP1 POP PUSH1 0x0 DUP2 PUSH1 0x0 ADD MLOAD EQ ISZERO SWAP4 POP DUP1 PUSH1 0x80 ADD MLOAD SWAP3 POP DUP1 PUSH1 0x40 ADD MLOAD SWAP2 POP POP SWAP2 SWAP4 SWAP1 SWAP3 POP JUMP JUMPDEST PUSH1 0x5 PUSH1 0x20 MSTORE DUP1 PUSH1 0x0 MSTORE PUSH1 0x40 PUSH1 0x0 KECCAK256 PUSH1 0x0 SWAP2 POP SWAP1 POP DUP1 PUSH1 0x0 ADD SLOAD SWAP1 DUP1 PUSH1 0x1 ADD DUP1 SLOAD PUSH2 0x14BA SWAP1 PUSH2 0x3618 JUMP JUMPDEST DUP1 PUSH1 0x1F ADD PUSH1 0x20 DUP1 SWAP2 DIV MUL PUSH1 0x20 ADD PUSH1 0x40 MLOAD SWAP1 DUP2 ADD PUSH1 0x40 MSTORE DUP1 SWAP3 SWAP2 SWAP1 DUP2 DUP2 MSTORE PUSH1 0x20 ADD DUP3 DUP1 SLOAD PUSH2 0x14E6 SWAP1 PUSH2 0x3618 JUMP JUMPDEST DUP1 ISZERO PUSH2 0x1533 JUMPI DUP1 PUSH1 0x1F LT PUSH2 0x1508 JUMPI PUSH2 0x100 DUP1 DUP4 SLOAD DIV MUL DUP4 MSTORE SWAP2 PUSH1 0x20 ADD SWAP2 PUSH2 0x1533 JUMP JUMPDEST DUP3 ADD SWAP2 SWAP1 PUSH1 0x0 MSTORE PUSH1 0x20 PUSH1 0x0 KECCAK256 SWAP1 JUMPDEST DUP2 SLOAD DUP2 MSTORE SWAP1 PUSH1 0x1 ADD SWAP1 PUSH1 0x20 ADD DUP1 DUP4 GT PUSH2 0x1516 JUMPI DUP3 SWAP1 SUB PUSH1 0x1F AND DUP3 ADD SWAP2 JUMPDEST POP POP POP POP POP SWAP1 DUP1 PUSH1 0x2 ADD SLOAD SWAP1 DUP1 PUSH1 0x3 ADD SLOAD SWAP1 DUP1 PUSH1 0x4 ADD PUSH1 0x0 SWAP1 SLOAD SWAP1 PUSH2 0x100 EXP SWAP1 DIV PUSH1 0xFF AND SWAP1 POP DUP6 JUMP JUMPDEST PUSH2 0x1586 PUSH32 0xEEFB95E842A3287179D933B4460BE539A1D5AF11AA8B325BB45C5C8DC92DE4ED CALLER PUSH2 0x18DE JUMP JUMPDEST PUSH2 0x15C5 JUMPI PUSH1 0x40 MLOAD PUSH32 0x8C379A000000000000000000000000000000000000000000000000000000000 DUP2 MSTORE PUSH1 0x4 ADD PUSH2 0x15BC SWAP1 PUSH2 0x3C89 JUMP JUMPDEST PUSH1 0x40 MLOAD DUP1 SWAP2 SUB SWAP1 REVERT JUMPDEST DUP1 PUSH1 0x5 PUSH1 0x0 DUP5 DUP2 MSTORE PUSH1 0x20 ADD SWAP1 DUP2 MSTORE PUSH1 0x20 ADD PUSH1 0x0 KECCAK256 PUSH1 0x3 ADD SLOAD LT ISZERO PUSH2 0x161E JUMPI PUSH1 0x40 MLOAD PUSH32 0x8C379A000000000000000000000000000000000000000000000000000000000 DUP2 MSTORE PUSH1 0x4 ADD PUSH2 0x1615 SWAP1 PUSH2 0x3D1B JUMP JUMPDEST PUSH1 0x40 MLOAD DUP1 SWAP2 SUB SWAP1 REVERT JUMPDEST PUSH1 0x40 MLOAD DUP1 PUSH1 0x40 ADD PUSH1 0x40 MSTORE DUP1 PUSH1 0x7 DUP2 MSTORE PUSH1 0x20 ADD PUSH32 0x6F72646572656400000000000000000000000000000000000000000000000000 DUP2 MSTORE POP DUP1 MLOAD SWAP1 PUSH1 0x20 ADD KECCAK256 PUSH1 0x7 PUSH1 0x0 DUP5 DUP2 MSTORE PUSH1 0x20 ADD SWAP1 DUP2 MSTORE PUSH1 0x20 ADD PUSH1 0x0 KECCAK256 PUSH1 0x1 ADD PUSH1 0x40 MLOAD PUSH2 0x167E SWAP2 SWAP1 PUSH2 0x36EC JUMP JUMPDEST PUSH1 0x40 MLOAD DUP1 SWAP2 SUB SWAP1 KECCAK256 EQ PUSH2 0x16C6 JUMPI PUSH1 0x40 MLOAD PUSH32 0x8C379A000000000000000000000000000000000000000000000000000000000 DUP2 MSTORE PUSH1 0x4 ADD PUSH2 0x16BD SWAP1 PUSH2 0x3D87 JUMP JUMPDEST PUSH1 0x40 MLOAD DUP1 SWAP2 SUB SWAP1 REVERT JUMPDEST PUSH1 0x40 MLOAD DUP1 PUSH1 0x40 ADD PUSH1 0x40 MSTORE DUP1 PUSH1 0x12 DUP2 MSTORE PUSH1 0x20 ADD PUSH32 0x72656164795F666F725F736869706D656E740000000000000000000000000000 DUP2 MSTORE POP PUSH1 0x7 PUSH1 0x0 DUP5 DUP2 MSTORE PUSH1 0x20 ADD SWAP1 DUP2 MSTORE PUSH1 0x20 ADD PUSH1 0x0 KECCAK256 PUSH1 0x1 ADD SWAP1 DUP2 PUSH2 0x171E SWAP2 SWAP1 PUSH2 0x3941 JUMP JUMPDEST POP PUSH32 0x378514350C4BBCF672D056C7987DD2D2C980CE4C582249530D8992ACC682DC32 DUP3 PUSH1 0x40 MLOAD PUSH2 0x174E SWAP2 SWAP1 PUSH2 0x3A76 JUMP JUMPDEST PUSH1 0x40 MLOAD DUP1 SWAP2 SUB SWAP1 LOG1 POP POP JUMP JUMPDEST PUSH1 0x60 PUSH1 0x0 PUSH1 0x3 DUP1 SLOAD SWAP1 POP PUSH8 0xFFFFFFFFFFFFFFFF DUP2 GT ISZERO PUSH2 0x177D JUMPI PUSH2 0x177C PUSH2 0x33A9 JUMP JUMPDEST JUMPDEST PUSH1 0x40 MLOAD SWAP1 DUP1 DUP3 MSTORE DUP1 PUSH1 0x20 MUL PUSH1 0x20 ADD DUP3 ADD PUSH1 0x40 MSTORE DUP1 ISZERO PUSH2 0x17B6 JUMPI DUP2 PUSH1 0x20 ADD JUMPDEST PUSH2 0x17A3 PUSH2 0x2BE6 JUMP JUMPDEST DUP2 MSTORE PUSH1 0x20 ADD SWAP1 PUSH1 0x1 SWAP1 SUB SWAP1 DUP2 PUSH2 0x179B JUMPI SWAP1 POP JUMPDEST POP SWAP1 POP PUSH1 0x0 JUMPDEST PUSH1 0x3 DUP1 SLOAD SWAP1 POP DUP2 LT ISZERO PUSH2 0x18D6 JUMPI PUSH1 0x7 PUSH1 0x0 PUSH1 0x3 DUP4 DUP2 SLOAD DUP2 LT PUSH2 0x17E1 JUMPI PUSH2 0x17E0 PUSH2 0x3BC6 JUMP JUMPDEST JUMPDEST SWAP1 PUSH1 0x0 MSTORE PUSH1 0x20 PUSH1 0x0 KECCAK256 ADD SLOAD DUP2 MSTORE PUSH1 0x20 ADD SWAP1 DUP2 MSTORE PUSH1 0x20 ADD PUSH1 0x0 KECCAK256 PUSH1 0x40 MLOAD DUP1 PUSH1 0x60 ADD PUSH1 0x40 MSTORE SWAP1 DUP2 PUSH1 0x0 DUP3 ADD SLOAD DUP2 MSTORE PUSH1 0x20 ADD PUSH1 0x1 DUP3 ADD DUP1 SLOAD PUSH2 0x181F SWAP1 PUSH2 0x3618 JUMP JUMPDEST DUP1 PUSH1 0x1F ADD PUSH1 0x20 DUP1 SWAP2 DIV MUL PUSH1 0x20 ADD PUSH1 0x40 MLOAD SWAP1 DUP2 ADD PUSH1 0x40 MSTORE DUP1 SWAP3 SWAP2 SWAP1 DUP2 DUP2 MSTORE PUSH1 0x20 ADD DUP3 DUP1 SLOAD PUSH2 0x184B SWAP1 PUSH2 0x3618 JUMP JUMPDEST DUP1 ISZERO PUSH2 0x1898 JUMPI DUP1 PUSH1 0x1F LT PUSH2 0x186D JUMPI PUSH2 0x100 DUP1 DUP4 SLOAD DIV MUL DUP4 MSTORE SWAP2 PUSH1 0x20 ADD SWAP2 PUSH2 0x1898 JUMP JUMPDEST DUP3 ADD SWAP2 SWAP1 PUSH1 0x0 MSTORE PUSH1 0x20 PUSH1 0x0 KECCAK256 SWAP1 JUMPDEST DUP2 SLOAD DUP2 MSTORE SWAP1 PUSH1 0x1 ADD SWAP1 PUSH1 0x20 ADD DUP1 DUP4 GT PUSH2 0x187B JUMPI DUP3 SWAP1 SUB PUSH1 0x1F AND DUP3 ADD SWAP2 JUMPDEST POP POP POP POP POP DUP2 MSTORE PUSH1 0x20 ADD PUSH1 0x2 DUP3 ADD SLOAD DUP2 MSTORE POP POP DUP3 DUP3 DUP2 MLOAD DUP2 LT PUSH2 0x18BE JUMPI PUSH2 0x18BD PUSH2 0x3BC6 JUMP JUMPDEST JUMPDEST PUSH1 0x20 MUL PUSH1 0x20 ADD ADD DUP2 SWAP1 MSTORE POP DUP1 DUP1 PUSH1 0x1 ADD SWAP2 POP POP PUSH2 0x17BC JUMP JUMPDEST POP DUP1 SWAP2 POP POP SWAP1 JUMP JUMPDEST PUSH1 0x0 DUP1 PUSH1 0x0 DUP5 DUP2 MSTORE PUSH1 0x20 ADD SWAP1 DUP2 MSTORE PUSH1 0x20 ADD PUSH1 0x0 KECCAK256 PUSH1 0x0 ADD PUSH1 0x0 DUP4 PUSH20 0xFFFFFFFFFFFFFFFFFFFFFFFFFFFFFFFFFFFFFFFF AND PUSH20 0xFFFFFFFFFFFFFFFFFFFFFFFFFFFFFFFFFFFFFFFF AND DUP2 MSTORE PUSH1 0x20 ADD SWAP1 DUP2 MSTORE PUSH1 0x20 ADD PUSH1 0x0 KECCAK256 PUSH1 0x0 SWAP1 SLOAD SWAP1 PUSH2 0x100 EXP SWAP1 DIV PUSH1 0xFF AND SWAP1 POP SWAP3 SWAP2 POP POP JUMP JUMPDEST PUSH32 0xEEFB95E842A3287179D933B4460BE539A1D5AF11AA8B325BB45C5C8DC92DE4ED DUP2 JUMP JUMPDEST PUSH2 0x1996 PUSH32 0x9D56108290EA0BC9C5C59C3AD357DCA9D1B29ED7F3AE1443BEF2FA2159BDF5E8 CALLER PUSH2 0x18DE JUMP JUMPDEST PUSH2 0x19D5 JUMPI PUSH1 0x40 MLOAD PUSH32 0x8C379A000000000000000000000000000000000000000000000000000000000 DUP2 MSTORE PUSH1 0x4 ADD PUSH2 0x19CC SWAP1 PUSH2 0x3DF3 JUMP JUMPDEST PUSH1 0x40 MLOAD DUP1 SWAP2 SUB SWAP1 REVERT JUMPDEST PUSH1 0x0 PUSH1 0x6 PUSH1 0x0 DUP5 DUP2 MSTORE PUSH1 0x20 ADD SWAP1 DUP2 MSTORE PUSH1 0x20 ADD PUSH1 0x0 KECCAK256 SWAP1 POP PUSH1 0x1 ISZERO ISZERO DUP2 PUSH1 0x4 ADD PUSH1 0x0 SWAP1 SLOAD SWAP1 PUSH2 0x100 EXP SWAP1 DIV PUSH1 0xFF AND ISZERO ISZERO EQ PUSH2 0x1A44 JUMPI PUSH1 0x40 MLOAD PUSH32 0x8C379A000000000000000000000000000000000000000000000000000000000 DUP2 MSTORE PUSH1 0x4 ADD PUSH2 0x1A3B SWAP1 PUSH2 0x3E5F JUMP JUMPDEST PUSH1 0x40 MLOAD DUP1 SWAP2 SUB SWAP1 REVERT JUMPDEST DUP2 DUP2 PUSH1 0x3 ADD SLOAD LT ISZERO PUSH2 0x1A8B JUMPI PUSH1 0x40 MLOAD PUSH32 0x8C379A000000000000000000000000000000000000000000000000000000000 DUP2 MSTORE PUSH1 0x4 ADD PUSH2 0x1A82 SWAP1 PUSH2 0x3EF1 JUMP JUMPDEST PUSH1 0x40 MLOAD DUP1 SWAP2 SUB SWAP1 REVERT JUMPDEST PUSH1 0x0 DUP3 DUP3 PUSH1 0x2 ADD SLOAD PUSH2 0x1A9D SWAP2 SWAP1 PUSH2 0x3F11 JUMP JUMPDEST SWAP1 POP DUP1 CALLVALUE LT ISZERO PUSH2 0x1AE2 JUMPI PUSH1 0x40 MLOAD PUSH32 0x8C379A000000000000000000000000000000000000000000000000000000000 DUP2 MSTORE PUSH1 0x4 ADD PUSH2 0x1AD9 SWAP1 PUSH2 0x3F9F JUMP JUMPDEST PUSH1 0x40 MLOAD DUP1 SWAP2 SUB SWAP1 REVERT JUMPDEST PUSH1 0x0 PUSH1 0x2 PUSH1 0x0 SWAP1 SLOAD SWAP1 PUSH2 0x100 EXP SWAP1 DIV PUSH20 0xFFFFFFFFFFFFFFFFFFFFFFFFFFFFFFFFFFFFFFFF AND SWAP1 POP DUP1 PUSH20 0xFFFFFFFFFFFFFFFFFFFFFFFFFFFFFFFFFFFFFFFF AND PUSH2 0x8FC DUP4 SWAP1 DUP2 ISZERO MUL SWAP1 PUSH1 0x40 MLOAD PUSH1 0x0 PUSH1 0x40 MLOAD DUP1 DUP4 SUB DUP2 DUP6 DUP9 DUP9 CALL SWAP4 POP POP POP POP ISZERO DUP1 ISZERO PUSH2 0x1B4F JUMPI RETURNDATASIZE PUSH1 0x0 DUP1 RETURNDATACOPY RETURNDATASIZE PUSH1 0x0 REVERT JUMPDEST POP DUP4 PUSH1 0x6 PUSH1 0x0 DUP8 DUP2 MSTORE PUSH1 0x20 ADD SWAP1 DUP2 MSTORE PUSH1 0x20 ADD PUSH1 0x0 KECCAK256 PUSH1 0x3 ADD PUSH1 0x0 DUP3 DUP3 SLOAD PUSH2 0x1B76 SWAP2 SWAP1 PUSH2 0x3A42 JUMP JUMPDEST SWAP3 POP POP DUP2 SWAP1 SSTORE POP PUSH1 0x0 PUSH1 0x4 PUSH1 0x0 CALLER PUSH20 0xFFFFFFFFFFFFFFFFFFFFFFFFFFFFFFFFFFFFFFFF AND PUSH20 0xFFFFFFFFFFFFFFFFFFFFFFFFFFFFFFFFFFFFFFFF AND DUP2 MSTORE PUSH1 0x20 ADD SWAP1 DUP2 MSTORE PUSH1 0x20 ADD PUSH1 0x0 KECCAK256 PUSH1 0x0 DUP8 DUP2 MSTORE PUSH1 0x20 ADD SWAP1 DUP2 MSTORE PUSH1 0x20 ADD PUSH1 0x0 KECCAK256 PUSH1 0x3 ADD SLOAD GT ISZERO PUSH2 0x1C48 JUMPI DUP4 PUSH1 0x4 PUSH1 0x0 CALLER PUSH20 0xFFFFFFFFFFFFFFFFFFFFFFFFFFFFFFFFFFFFFFFF AND PUSH20 0xFFFFFFFFFFFFFFFFFFFFFFFFFFFFFFFFFFFFFFFF AND DUP2 MSTORE PUSH1 0x20 ADD SWAP1 DUP2 MSTORE PUSH1 0x20 ADD PUSH1 0x0 KECCAK256 PUSH1 0x0 DUP8 DUP2 MSTORE PUSH1 0x20 ADD SWAP1 DUP2 MSTORE PUSH1 0x20 ADD PUSH1 0x0 KECCAK256 PUSH1 0x3 ADD PUSH1 0x0 DUP3 DUP3 SLOAD PUSH2 0x1C3C SWAP2 SWAP1 PUSH2 0x3B69 JUMP JUMPDEST SWAP3 POP POP DUP2 SWAP1 SSTORE POP PUSH2 0x1DCE JUMP JUMPDEST PUSH1 0x40 MLOAD DUP1 PUSH1 0xA0 ADD PUSH1 0x40 MSTORE DUP1 DUP7 DUP2 MSTORE PUSH1 0x20 ADD PUSH1 0x6 PUSH1 0x0 DUP9 DUP2 MSTORE PUSH1 0x20 ADD SWAP1 DUP2 MSTORE PUSH1 0x20 ADD PUSH1 0x0 KECCAK256 PUSH1 0x1 ADD DUP1 SLOAD PUSH2 0x1C7A SWAP1 PUSH2 0x3618 JUMP JUMPDEST DUP1 PUSH1 0x1F ADD PUSH1 0x20 DUP1 SWAP2 DIV MUL PUSH1 0x20 ADD PUSH1 0x40 MLOAD SWAP1 DUP2 ADD PUSH1 0x40 MSTORE DUP1 SWAP3 SWAP2 SWAP1 DUP2 DUP2 MSTORE PUSH1 0x20 ADD DUP3 DUP1 SLOAD PUSH2 0x1CA6 SWAP1 PUSH2 0x3618 JUMP JUMPDEST DUP1 ISZERO PUSH2 0x1CF3 JUMPI DUP1 PUSH1 0x1F LT PUSH2 0x1CC8 JUMPI PUSH2 0x100 DUP1 DUP4 SLOAD DIV MUL DUP4 MSTORE SWAP2 PUSH1 0x20 ADD SWAP2 PUSH2 0x1CF3 JUMP JUMPDEST DUP3 ADD SWAP2 SWAP1 PUSH1 0x0 MSTORE PUSH1 0x20 PUSH1 0x0 KECCAK256 SWAP1 JUMPDEST DUP2 SLOAD DUP2 MSTORE SWAP1 PUSH1 0x1 ADD SWAP1 PUSH1 0x20 ADD DUP1 DUP4 GT PUSH2 0x1CD6 JUMPI DUP3 SWAP1 SUB PUSH1 0x1F AND DUP3 ADD SWAP2 JUMPDEST POP POP POP POP POP DUP2 MSTORE PUSH1 0x20 ADD PUSH1 0x6 PUSH1 0x0 DUP9 DUP2 MSTORE PUSH1 0x20 ADD SWAP1 DUP2 MSTORE PUSH1 0x20 ADD PUSH1 0x0 KECCAK256 PUSH1 0x2 ADD SLOAD DUP2 MSTORE PUSH1 0x20 ADD DUP6 DUP2 MSTORE PUSH1 0x20 ADD PUSH1 0x0 ISZERO ISZERO DUP2 MSTORE POP PUSH1 0x4 PUSH1 0x0 CALLER PUSH20 0xFFFFFFFFFFFFFFFFFFFFFFFFFFFFFFFFFFFFFFFF AND PUSH20 0xFFFFFFFFFFFFFFFFFFFFFFFFFFFFFFFFFFFFFFFF AND DUP2 MSTORE PUSH1 0x20 ADD SWAP1 DUP2 MSTORE PUSH1 0x20 ADD PUSH1 0x0 KECCAK256 PUSH1 0x0 DUP8 DUP2 MSTORE PUSH1 0x20 ADD SWAP1 DUP2 MSTORE PUSH1 0x20 ADD PUSH1 0x0 KECCAK256 PUSH1 0x0 DUP3 ADD MLOAD DUP2 PUSH1 0x0 ADD SSTORE PUSH1 0x20 DUP3 ADD MLOAD DUP2 PUSH1 0x1 ADD SWAP1 DUP2 PUSH2 0x1D95 SWAP2 SWAP1 PUSH2 0x3941 JUMP JUMPDEST POP PUSH1 0x40 DUP3 ADD MLOAD DUP2 PUSH1 0x2 ADD SSTORE PUSH1 0x60 DUP3 ADD MLOAD DUP2 PUSH1 0x3 ADD SSTORE PUSH1 0x80 DUP3 ADD MLOAD DUP2 PUSH1 0x4 ADD PUSH1 0x0 PUSH2 0x100 EXP DUP2 SLOAD DUP2 PUSH1 0xFF MUL NOT AND SWAP1 DUP4 ISZERO ISZERO MUL OR SWAP1 SSTORE POP SWAP1 POP POP JUMPDEST PUSH1 0x0 DUP3 CALLVALUE PUSH2 0x1DDC SWAP2 SWAP1 PUSH2 0x3A42 JUMP JUMPDEST SWAP1 POP PUSH1 0x0 DUP2 GT ISZERO PUSH2 0x1E2F JUMPI CALLER PUSH20 0xFFFFFFFFFFFFFFFFFFFFFFFFFFFFFFFFFFFFFFFF AND PUSH2 0x8FC DUP3 SWAP1 DUP2 ISZERO MUL SWAP1 PUSH1 0x40 MLOAD PUSH1 0x0 PUSH1 0x40 MLOAD DUP1 DUP4 SUB DUP2 DUP6 DUP9 DUP9 CALL SWAP4 POP POP POP POP ISZERO DUP1 ISZERO PUSH2 0x1E2D JUMPI RETURNDATASIZE PUSH1 0x0 DUP1 RETURNDATACOPY RETURNDATASIZE PUSH1 0x0 REVERT JUMPDEST POP JUMPDEST PUSH32 0xCF56B0ADEB8D78B1FAF3EC7294369603647CDA5633357436D89FB3E653FABF81 DUP7 DUP7 CALLER PUSH1 0x40 MLOAD PUSH2 0x1E62 SWAP4 SWAP3 SWAP2 SWAP1 PUSH2 0x3FBF JUMP JUMPDEST PUSH1 0x40 MLOAD DUP1 SWAP2 SUB SWAP1 LOG1 POP POP POP POP POP POP JUMP JUMPDEST PUSH1 0x0 DUP1 SHL DUP2 JUMP JUMPDEST PUSH2 0x1EA3 PUSH32 0x2A5F906C256A5D799494FCD066E1F6C077689DE1CDB65052A1624DE4BACE99BF CALLER PUSH2 0x18DE JUMP JUMPDEST PUSH2 0x1EE2 JUMPI PUSH1 0x40 MLOAD PUSH32 0x8C379A000000000000000000000000000000000000000000000000000000000 DUP2 MSTORE PUSH1 0x4 ADD PUSH2 0x1ED9 SWAP1 PUSH2 0x3ADD JUMP JUMPDEST PUSH1 0x40 MLOAD DUP1 SWAP2 SUB SWAP1 REVERT JUMPDEST PUSH1 0x0 PUSH1 0x6 PUSH1 0x0 DUP5 DUP2 MSTORE PUSH1 0x20 ADD SWAP1 DUP2 MSTORE PUSH1 0x20 ADD PUSH1 0x0 KECCAK256 PUSH1 0x3 ADD SLOAD GT PUSH2 0x1F3B JUMPI PUSH1 0x40 MLOAD PUSH32 0x8C379A000000000000000000000000000000000000000000000000000000000 DUP2 MSTORE PUSH1 0x4 ADD PUSH2 0x1F32 SWAP1 PUSH2 0x4042 JUMP JUMPDEST PUSH1 0x40 MLOAD DUP1 SWAP2 SUB SWAP1 REVERT JUMPDEST DUP1 PUSH1 0x6 PUSH1 0x0 DUP5 DUP2 MSTORE PUSH1 0x20 ADD SWAP1 DUP2 MSTORE PUSH1 0x20 ADD PUSH1 0x0 KECCAK256 PUSH1 0x2 ADD DUP2 SWAP1 SSTORE POP PUSH1 0x1 PUSH1 0x6 PUSH1 0x0 DUP5 DUP2 MSTORE PUSH1 0x20 ADD SWAP1 DUP2 MSTORE PUSH1 0x20 ADD PUSH1 0x0 KECCAK256 PUSH1 0x4 ADD PUSH1 0x0 PUSH2 0x100 EXP DUP2 SLOAD DUP2 PUSH1 0xFF MUL NOT AND SWAP1 DUP4 ISZERO ISZERO MUL OR SWAP1 SSTORE POP PUSH32 0x6DA9FEAC67CE606EB5BEE1929FB74D4E88100968E5916777989BAE5A95EC5871 DUP3 DUP3 CALLER PUSH1 0x40 MLOAD PUSH2 0x1FB8 SWAP4 SWAP3 SWAP2 SWAP1 PUSH2 0x3FBF JUMP JUMPDEST PUSH1 0x40 MLOAD DUP1 SWAP2 SUB SWAP1 LOG1 POP POP JUMP JUMPDEST PUSH2 0x1FEE PUSH32 0x2A5F906C256A5D799494FCD066E1F6C077689DE1CDB65052A1624DE4BACE99BF CALLER PUSH2 0x18DE JUMP JUMPDEST PUSH2 0x202D JUMPI PUSH1 0x40 MLOAD PUSH32 0x8C379A000000000000000000000000000000000000000000000000000000000 DUP2 MSTORE PUSH1 0x4 ADD PUSH2 0x2024 SWAP1 PUSH2 0x3ADD JUMP JUMPDEST PUSH1 0x40 MLOAD DUP1 SWAP2 SUB SWAP1 REVERT JUMPDEST PUSH1 0x0 PUSH1 0x5 PUSH1 0x0 DUP5 DUP2 MSTORE PUSH1 0x20 ADD SWAP1 DUP2 MSTORE PUSH1 0x20 ADD PUSH1 0x0 KECCAK256 SWAP1 POP PUSH1 0x0 PUSH1 0x7 PUSH1 0x0 DUP6 DUP2 MSTORE PUSH1 0x20 ADD SWAP1 DUP2 MSTORE PUSH1 0x20 ADD PUSH1 0x0 KECCAK256 PUSH1 0x2 ADD SLOAD EQ PUSH2 0x209D JUMPI PUSH1 0x40 MLOAD PUSH32 0x8C379A000000000000000000000000000000000000000000000000000000000 DUP2 MSTORE PUSH1 0x4 ADD PUSH2 0x2094 SWAP1 PUSH2 0x40AE JUMP JUMPDEST PUSH1 0x40 MLOAD DUP1 SWAP2 SUB SWAP1 REVERT JUMPDEST PUSH1 0x0 DUP2 PUSH1 0x3 ADD SLOAD GT PUSH2 0x20E4 JUMPI PUSH1 0x40 MLOAD PUSH32 0x8C379A000000000000000000000000000000000000000000000000000000000 DUP2 MSTORE PUSH1 0x4 ADD PUSH2 0x20DB SWAP1 PUSH2 0x411A JUMP JUMPDEST PUSH1 0x40 MLOAD DUP1 SWAP2 SUB SWAP1 REVERT JUMPDEST DUP2 DUP2 PUSH1 0x3 ADD SLOAD LT ISZERO PUSH2 0x212B JUMPI PUSH1 0x40 MLOAD PUSH32 0x8C379A000000000000000000000000000000000000000000000000000000000 DUP2 MSTORE PUSH1 0x4 ADD PUSH2 0x2122 SWAP1 PUSH2 0x3D1B JUMP JUMPDEST PUSH1 0x40 MLOAD DUP1 SWAP2 SUB SWAP1 REVERT JUMPDEST PUSH1 0x0 DUP3 DUP3 PUSH1 0x2 ADD SLOAD PUSH2 0x213D SWAP2 SWAP1 PUSH2 0x3F11 JUMP JUMPDEST SWAP1 POP DUP1 CALLVALUE LT ISZERO PUSH2 0x2182 JUMPI PUSH1 0x40 MLOAD PUSH32 0x8C379A000000000000000000000000000000000000000000000000000000000 DUP2 MSTORE PUSH1 0x4 ADD PUSH2 0x2179 SWAP1 PUSH2 0x41AC JUMP JUMPDEST PUSH1 0x40 MLOAD DUP1 SWAP2 SUB SWAP1 REVERT JUMPDEST PUSH1 0x40 MLOAD DUP1 PUSH1 0x60 ADD PUSH1 0x40 MSTORE DUP1 DUP6 DUP2 MSTORE PUSH1 0x20 ADD PUSH1 0x40 MLOAD DUP1 PUSH1 0x40 ADD PUSH1 0x40 MSTORE DUP1 PUSH1 0x7 DUP2 MSTORE PUSH1 0x20 ADD PUSH32 0x6F72646572656400000000000000000000000000000000000000000000000000 DUP2 MSTORE POP DUP2 MSTORE PUSH1 0x20 ADD DUP5 DUP2 MSTORE POP PUSH1 0x7 PUSH1 0x0 DUP7 DUP2 MSTORE PUSH1 0x20 ADD SWAP1 DUP2 MSTORE PUSH1 0x20 ADD PUSH1 0x0 KECCAK256 PUSH1 0x0 DUP3 ADD MLOAD DUP2 PUSH1 0x0 ADD SSTORE PUSH1 0x20 DUP3 ADD MLOAD DUP2 PUSH1 0x1 ADD SWAP1 DUP2 PUSH2 0x2204 SWAP2 SWAP1 PUSH2 0x3941 JUMP JUMPDEST POP PUSH1 0x40 DUP3 ADD MLOAD DUP2 PUSH1 0x2 ADD SSTORE SWAP1 POP POP PUSH1 0x0 PUSH1 0x1 PUSH1 0x0 SWAP1 SLOAD SWAP1 PUSH2 0x100 EXP SWAP1 DIV PUSH20 0xFFFFFFFFFFFFFFFFFFFFFFFFFFFFFFFFFFFFFFFF AND SWAP1 POP DUP1 PUSH20 0xFFFFFFFFFFFFFFFFFFFFFFFFFFFFFFFFFFFFFFFF AND PUSH2 0x8FC DUP4 SWAP1 DUP2 ISZERO MUL SWAP1 PUSH1 0x40 MLOAD PUSH1 0x0 PUSH1 0x40 MLOAD DUP1 DUP4 SUB DUP2 DUP6 DUP9 DUP9 CALL SWAP4 POP POP POP POP ISZERO DUP1 ISZERO PUSH2 0x227F JUMPI RETURNDATASIZE PUSH1 0x0 DUP1 RETURNDATACOPY RETURNDATASIZE PUSH1 0x0 REVERT JUMPDEST POP PUSH1 0x0 DUP3 CALLVALUE PUSH2 0x228E SWAP2 SWAP1 PUSH2 0x3A42 JUMP JUMPDEST SWAP1 POP PUSH1 0x0 DUP2 GT ISZERO PUSH2 0x22E1 JUMPI CALLER PUSH20 0xFFFFFFFFFFFFFFFFFFFFFFFFFFFFFFFFFFFFFFFF AND PUSH2 0x8FC DUP3 SWAP1 DUP2 ISZERO MUL SWAP1 PUSH1 0x40 MLOAD PUSH1 0x0 PUSH1 0x40 MLOAD DUP1 DUP4 SUB DUP2 DUP6 DUP9 DUP9 CALL SWAP4 POP POP POP POP ISZERO DUP1 ISZERO PUSH2 0x22DF JUMPI RETURNDATASIZE PUSH1 0x0 DUP1 RETURNDATACOPY RETURNDATASIZE PUSH1 0x0 REVERT JUMPDEST POP JUMPDEST PUSH32 0xCE869FA07FBAAF0EF11FF2424D1408CF65CAB69FC0FDC8AF702B7E8B48441148 DUP7 CALLER PUSH1 0x40 MLOAD PUSH2 0x2312 SWAP3 SWAP2 SWAP1 PUSH2 0x3B9D JUMP JUMPDEST PUSH1 0x40 MLOAD DUP1 SWAP2 SUB SWAP1 LOG1 POP POP POP POP POP POP JUMP JUMPDEST PUSH1 0x60 PUSH1 0x0 PUSH1 0x3 DUP1 SLOAD SWAP1 POP PUSH8 0xFFFFFFFFFFFFFFFF DUP2 GT ISZERO PUSH2 0x2345 JUMPI PUSH2 0x2344 PUSH2 0x33A9 JUMP JUMPDEST JUMPDEST PUSH1 0x40 MLOAD SWAP1 DUP1 DUP3 MSTORE DUP1 PUSH1 0x20 MUL PUSH1 0x20 ADD DUP3 ADD PUSH1 0x40 MSTORE DUP1 ISZERO PUSH2 0x237E JUMPI DUP2 PUSH1 0x20 ADD JUMPDEST PUSH2 0x236B PUSH2 0x2BB5 JUMP JUMPDEST DUP2 MSTORE PUSH1 0x20 ADD SWAP1 PUSH1 0x1 SWAP1 SUB SWAP1 DUP2 PUSH2 0x2363 JUMPI SWAP1 POP JUMPDEST POP SWAP1 POP PUSH1 0x0 JUMPDEST PUSH1 0x3 DUP1 SLOAD SWAP1 POP DUP2 LT ISZERO PUSH2 0x24C3 JUMPI PUSH1 0x6 PUSH1 0x0 PUSH1 0x3 DUP4 DUP2 SLOAD DUP2 LT PUSH2 0x23A9 JUMPI PUSH2 0x23A8 PUSH2 0x3BC6 JUMP JUMPDEST JUMPDEST SWAP1 PUSH1 0x0 MSTORE PUSH1 0x20 PUSH1 0x0 KECCAK256 ADD SLOAD DUP2 MSTORE PUSH1 0x20 ADD SWAP1 DUP2 MSTORE PUSH1 0x20 ADD PUSH1 0x0 KECCAK256 PUSH1 0x40 MLOAD DUP1 PUSH1 0xA0 ADD PUSH1 0x40 MSTORE SWAP1 DUP2 PUSH1 0x0 DUP3 ADD SLOAD DUP2 MSTORE PUSH1 0x20 ADD PUSH1 0x1 DUP3 ADD DUP1 SLOAD PUSH2 0x23E7 SWAP1 PUSH2 0x3618 JUMP JUMPDEST DUP1 PUSH1 0x1F ADD PUSH1 0x20 DUP1 SWAP2 DIV MUL PUSH1 0x20 ADD PUSH1 0x40 MLOAD SWAP1 DUP2 ADD PUSH1 0x40 MSTORE DUP1 SWAP3 SWAP2 SWAP1 DUP2 DUP2 MSTORE PUSH1 0x20 ADD DUP3 DUP1 SLOAD PUSH2 0x2413 SWAP1 PUSH2 0x3618 JUMP JUMPDEST DUP1 ISZERO PUSH2 0x2460 JUMPI DUP1 PUSH1 0x1F LT PUSH2 0x2435 JUMPI PUSH2 0x100 DUP1 DUP4 SLOAD DIV MUL DUP4 MSTORE SWAP2 PUSH1 0x20 ADD SWAP2 PUSH2 0x2460 JUMP JUMPDEST DUP3 ADD SWAP2 SWAP1 PUSH1 0x0 MSTORE PUSH1 0x20 PUSH1 0x0 KECCAK256 SWAP1 JUMPDEST DUP2 SLOAD DUP2 MSTORE SWAP1 PUSH1 0x1 ADD SWAP1 PUSH1 0x20 ADD DUP1 DUP4 GT PUSH2 0x2443 JUMPI DUP3 SWAP1 SUB PUSH1 0x1F AND DUP3 ADD SWAP2 JUMPDEST POP POP POP POP POP DUP2 MSTORE PUSH1 0x20 ADD PUSH1 0x2 DUP3 ADD SLOAD DUP2 MSTORE PUSH1 0x20 ADD PUSH1 0x3 DUP3 ADD SLOAD DUP2 MSTORE PUSH1 0x20 ADD PUSH1 0x4 DUP3 ADD PUSH1 0x0 SWAP1 SLOAD SWAP1 PUSH2 0x100 EXP SWAP1 DIV PUSH1 0xFF AND ISZERO ISZERO ISZERO ISZERO DUP2 MSTORE POP POP DUP3 DUP3 DUP2 MLOAD DUP2 LT PUSH2 0x24AB JUMPI PUSH2 0x24AA PUSH2 0x3BC6 JUMP JUMPDEST JUMPDEST PUSH1 0x20 MUL PUSH1 0x20 ADD ADD DUP2 SWAP1 MSTORE POP DUP1 DUP1 PUSH1 0x1 ADD SWAP2 POP POP PUSH2 0x2384 JUMP JUMPDEST POP DUP1 SWAP2 POP POP SWAP1 JUMP JUMPDEST PUSH32 0xDED9B5E0E0E3A2B3F09A0BC36EC64B9BF7A7C2319F3C4D9CFF5CE48714257B21 DUP2 JUMP JUMPDEST PUSH2 0x24F8 DUP3 PUSH2 0x9E6 JUMP JUMPDEST PUSH2 0x2501 DUP2 PUSH2 0x2965 JUMP JUMPDEST PUSH2 0x250B DUP4 DUP4 PUSH2 0x2A72 JUMP JUMPDEST POP POP POP POP JUMP JUMPDEST PUSH1 0x1 PUSH1 0x0 SWAP1 SLOAD SWAP1 PUSH2 0x100 EXP SWAP1 DIV PUSH20 0xFFFFFFFFFFFFFFFFFFFFFFFFFFFFFFFFFFFFFFFF AND DUP2 JUMP JUMPDEST PUSH2 0x2561 PUSH32 0xEEFB95E842A3287179D933B4460BE539A1D5AF11AA8B325BB45C5C8DC92DE4ED CALLER PUSH2 0x18DE JUMP JUMPDEST PUSH2 0x25A0 JUMPI PUSH1 0x40 MLOAD PUSH32 0x8C379A000000000000000000000000000000000000000000000000000000000 DUP2 MSTORE PUSH1 0x4 ADD PUSH2 0x2597 SWAP1 PUSH2 0x3C89 JUMP JUMPDEST PUSH1 0x40 MLOAD DUP1 SWAP2 SUB SWAP1 REVERT JUMPDEST PUSH1 0x0 DUP1 PUSH1 0x5 PUSH1 0x0 DUP8 DUP2 MSTORE PUSH1 0x20 ADD SWAP1 DUP2 MSTORE PUSH1 0x20 ADD PUSH1 0x0 KECCAK256 PUSH1 0x3 ADD SLOAD EQ SWAP1 POP DUP1 ISZERO PUSH2 0x2685 JUMPI PUSH1 0x40 MLOAD DUP1 PUSH1 0xA0 ADD PUSH1 0x40 MSTORE DUP1 DUP7 DUP2 MSTORE PUSH1 0x20 ADD DUP6 DUP2 MSTORE PUSH1 0x20 ADD DUP5 DUP2 MSTORE PUSH1 0x20 ADD DUP4 DUP2 MSTORE PUSH1 0x20 ADD PUSH1 0x0 ISZERO ISZERO DUP2 MSTORE POP PUSH1 0x5 PUSH1 0x0 DUP8 DUP2 MSTORE PUSH1 0x20 ADD SWAP1 DUP2 MSTORE PUSH1 0x20 ADD PUSH1 0x0 KECCAK256 PUSH1 0x0 DUP3 ADD MLOAD DUP2 PUSH1 0x0 ADD SSTORE PUSH1 0x20 DUP3 ADD MLOAD DUP2 PUSH1 0x1 ADD SWAP1 DUP2 PUSH2 0x261F SWAP2 SWAP1 PUSH2 0x3941 JUMP JUMPDEST POP PUSH1 0x40 DUP3 ADD MLOAD DUP2 PUSH1 0x2 ADD SSTORE PUSH1 0x60 DUP3 ADD MLOAD DUP2 PUSH1 0x3 ADD SSTORE PUSH1 0x80 DUP3 ADD MLOAD DUP2 PUSH1 0x4 ADD PUSH1 0x0 PUSH2 0x100 EXP DUP2 SLOAD DUP2 PUSH1 0xFF MUL NOT AND SWAP1 DUP4 ISZERO ISZERO MUL OR SWAP1 SSTORE POP SWAP1 POP POP PUSH1 0x3 DUP6 SWAP1 DUP1 PUSH1 0x1 DUP2 SLOAD ADD DUP1 DUP3 SSTORE DUP1 SWAP2 POP POP PUSH1 0x1 SWAP1 SUB SWAP1 PUSH1 0x0 MSTORE PUSH1 0x20 PUSH1 0x0 KECCAK256 ADD PUSH1 0x0 SWAP1 SWAP2 SWAP1 SWAP2 SWAP1 SWAP2 POP SSTORE PUSH2 0x26B3 JUMP JUMPDEST DUP2 PUSH1 0x5 PUSH1 0x0 DUP8 DUP2 MSTORE PUSH1 0x20 ADD SWAP1 DUP2 MSTORE PUSH1 0x20 ADD PUSH1 0x0 KECCAK256 PUSH1 0x3 ADD PUSH1 0x0 DUP3 DUP3 SLOAD PUSH2 0x26AB SWAP2 SWAP1 PUSH2 0x3B69 JUMP JUMPDEST SWAP3 POP POP DUP2 SWAP1 SSTORE POP JUMPDEST PUSH32 0x8D3D82130AEBBA03BB48B5D158BC2BBB4647856765B1089E7250507307965AF9 DUP6 DUP6 DUP6 DUP6 PUSH1 0x40 MLOAD PUSH2 0x26E8 SWAP5 SWAP4 SWAP3 SWAP2 SWAP1 PUSH2 0x41CC JUMP JUMPDEST PUSH1 0x40 MLOAD DUP1 SWAP2 SUB SWAP1 LOG1 POP POP POP POP POP JUMP JUMPDEST PUSH2 0x2704 PUSH1 0x0 DUP1 SHL CALLER PUSH2 0x18DE JUMP JUMPDEST PUSH2 0x2743 JUMPI PUSH1 0x40 MLOAD PUSH32 0x8C379A000000000000000000000000000000000000000000000000000000000 DUP2 MSTORE PUSH1 0x4 ADD PUSH2 0x273A SWAP1 PUSH2 0x4264 JUMP JUMPDEST PUSH1 0x40 MLOAD DUP1 SWAP2 SUB SWAP1 REVERT JUMPDEST PUSH2 0x274D DUP3 DUP3 PUSH2 0x2979 JUMP JUMPDEST POP POP POP JUMP JUMPDEST PUSH1 0x60 PUSH1 0x0 PUSH1 0x3 DUP1 SLOAD SWAP1 POP PUSH8 0xFFFFFFFFFFFFFFFF DUP2 GT ISZERO PUSH2 0x2775 JUMPI PUSH2 0x2774 PUSH2 0x33A9 JUMP JUMPDEST JUMPDEST PUSH1 0x40 MLOAD SWAP1 DUP1 DUP3 MSTORE DUP1 PUSH1 0x20 MUL PUSH1 0x20 ADD DUP3 ADD PUSH1 0x40 MSTORE DUP1 ISZERO PUSH2 0x27AE JUMPI DUP2 PUSH1 0x20 ADD JUMPDEST PUSH2 0x279B PUSH2 0x2BB5 JUMP JUMPDEST DUP2 MSTORE PUSH1 0x20 ADD SWAP1 PUSH1 0x1 SWAP1 SUB SWAP1 DUP2 PUSH2 0x2793 JUMPI SWAP1 POP JUMPDEST POP SWAP1 POP PUSH1 0x0 JUMPDEST PUSH1 0x3 DUP1 SLOAD SWAP1 POP DUP2 LT ISZERO PUSH2 0x28F3 JUMPI PUSH1 0x5 PUSH1 0x0 PUSH1 0x3 DUP4 DUP2 SLOAD DUP2 LT PUSH2 0x27D9 JUMPI PUSH2 0x27D8 PUSH2 0x3BC6 JUMP JUMPDEST JUMPDEST SWAP1 PUSH1 0x0 MSTORE PUSH1 0x20 PUSH1 0x0 KECCAK256 ADD SLOAD DUP2 MSTORE PUSH1 0x20 ADD SWAP1 DUP2 MSTORE PUSH1 0x20 ADD PUSH1 0x0 KECCAK256 PUSH1 0x40 MLOAD DUP1 PUSH1 0xA0 ADD PUSH1 0x40 MSTORE SWAP1 DUP2 PUSH1 0x0 DUP3 ADD SLOAD DUP2 MSTORE PUSH1 0x20 ADD PUSH1 0x1 DUP3 ADD DUP1 SLOAD PUSH2 0x2817 SWAP1 PUSH2 0x3618 JUMP JUMPDEST DUP1 PUSH1 0x1F ADD PUSH1 0x20 DUP1 SWAP2 DIV MUL PUSH1 0x20 ADD PUSH1 0x40 MLOAD SWAP1 DUP2 ADD PUSH1 0x40 MSTORE DUP1 SWAP3 SWAP2 SWAP1 DUP2 DUP2 MSTORE PUSH1 0x20 ADD DUP3 DUP1 SLOAD PUSH2 0x2843 SWAP1 PUSH2 0x3618 JUMP JUMPDEST DUP1 ISZERO PUSH2 0x2890 JUMPI DUP1 PUSH1 0x1F LT PUSH2 0x2865 JUMPI PUSH2 0x100 DUP1 DUP4 SLOAD DIV MUL DUP4 MSTORE SWAP2 PUSH1 0x20 ADD SWAP2 PUSH2 0x2890 JUMP JUMPDEST DUP3 ADD SWAP2 SWAP1 PUSH1 0x0 MSTORE PUSH1 0x20 PUSH1 0x0 KECCAK256 SWAP1 JUMPDEST DUP2 SLOAD DUP2 MSTORE SWAP1 PUSH1 0x1 ADD SWAP1 PUSH1 0x20 ADD DUP1 DUP4 GT PUSH2 0x2873 JUMPI DUP3 SWAP1 SUB PUSH1 0x1F AND DUP3 ADD SWAP2 JUMPDEST POP POP POP POP POP DUP2 MSTORE PUSH1 0x20 ADD PUSH1 0x2 DUP3 ADD SLOAD DUP2 MSTORE PUSH1 0x20 ADD PUSH1 0x3 DUP3 ADD SLOAD DUP2 MSTORE PUSH1 0x20 ADD PUSH1 0x4 DUP3 ADD PUSH1 0x0 SWAP1 SLOAD SWAP1 PUSH2 0x100 EXP SWAP1 DIV PUSH1 0xFF AND ISZERO ISZERO ISZERO ISZERO DUP2 MSTORE POP POP DUP3 DUP3 DUP2 MLOAD DUP2 LT PUSH2 0x28DB JUMPI PUSH2 0x28DA PUSH2 0x3BC6 JUMP JUMPDEST JUMPDEST PUSH1 0x20 MUL PUSH1 0x20 ADD ADD DUP2 SWAP1 MSTORE POP DUP1 DUP1 PUSH1 0x1 ADD SWAP2 POP POP PUSH2 0x27B4 JUMP JUMPDEST POP DUP1 SWAP2 POP POP SWAP1 JUMP JUMPDEST PUSH1 0x0 PUSH32 0x1FFC9A700000000000000000000000000000000000000000000000000000000 PUSH28 0xFFFFFFFFFFFFFFFFFFFFFFFFFFFFFFFFFFFFFFFFFFFFFFFFFFFFFFFF NOT AND DUP3 PUSH28 0xFFFFFFFFFFFFFFFFFFFFFFFFFFFFFFFFFFFFFFFFFFFFFFFFFFFFFFFF NOT AND EQ SWAP1 POP SWAP2 SWAP1 POP JUMP JUMPDEST PUSH2 0x2976 DUP2 PUSH2 0x2971 PUSH2 0x2A6A JUMP JUMPDEST PUSH2 0x2B64 JUMP JUMPDEST POP JUMP JUMPDEST PUSH1 0x0 PUSH2 0x2985 DUP4 DUP4 PUSH2 0x18DE JUMP JUMPDEST PUSH2 0x2A5F JUMPI PUSH1 0x1 PUSH1 0x0 DUP1 DUP6 DUP2 MSTORE PUSH1 0x20 ADD SWAP1 DUP2 MSTORE PUSH1 0x20 ADD PUSH1 0x0 KECCAK256 PUSH1 0x0 ADD PUSH1 0x0 DUP5 PUSH20 0xFFFFFFFFFFFFFFFFFFFFFFFFFFFFFFFFFFFFFFFF AND PUSH20 0xFFFFFFFFFFFFFFFFFFFFFFFFFFFFFFFFFFFFFFFF AND DUP2 MSTORE PUSH1 0x20 ADD SWAP1 DUP2 MSTORE PUSH1 0x20 ADD PUSH1 0x0 KECCAK256 PUSH1 0x0 PUSH2 0x100 EXP DUP2 SLOAD DUP2 PUSH1 0xFF MUL NOT AND SWAP1 DUP4 ISZERO ISZERO MUL OR SWAP1 SSTORE POP PUSH2 0x29FC PUSH2 0x2A6A JUMP JUMPDEST PUSH20 0xFFFFFFFFFFFFFFFFFFFFFFFFFFFFFFFFFFFFFFFF AND DUP3 PUSH20 0xFFFFFFFFFFFFFFFFFFFFFFFFFFFFFFFFFFFFFFFF AND DUP5 PUSH32 0x2F8788117E7EFF1D82E926EC794901D17C78024A50270940304540A733656F0D PUSH1 0x40 MLOAD PUSH1 0x40 MLOAD DUP1 SWAP2 SUB SWAP1 LOG4 PUSH1 0x1 SWAP1 POP PUSH2 0x2A64 JUMP JUMPDEST PUSH1 0x0 SWAP1 POP JUMPDEST SWAP3 SWAP2 POP POP JUMP JUMPDEST PUSH1 0x0 CALLER SWAP1 POP SWAP1 JUMP JUMPDEST PUSH1 0x0 PUSH2 0x2A7E DUP4 DUP4 PUSH2 0x18DE JUMP JUMPDEST ISZERO PUSH2 0x2B59 JUMPI PUSH1 0x0 DUP1 PUSH1 0x0 DUP6 DUP2 MSTORE PUSH1 0x20 ADD SWAP1 DUP2 MSTORE PUSH1 0x20 ADD PUSH1 0x0 KECCAK256 PUSH1 0x0 ADD PUSH1 0x0 DUP5 PUSH20 0xFFFFFFFFFFFFFFFFFFFFFFFFFFFFFFFFFFFFFFFF AND PUSH20 0xFFFFFFFFFFFFFFFFFFFFFFFFFFFFFFFFFFFFFFFF AND DUP2 MSTORE PUSH1 0x20 ADD SWAP1 DUP2 MSTORE PUSH1 0x20 ADD PUSH1 0x0 KECCAK256 PUSH1 0x0 PUSH2 0x100 EXP DUP2 SLOAD DUP2 PUSH1 0xFF MUL NOT AND SWAP1 DUP4 ISZERO ISZERO MUL OR SWAP1 SSTORE POP PUSH2 0x2AF6 PUSH2 0x2A6A JUMP JUMPDEST PUSH20 0xFFFFFFFFFFFFFFFFFFFFFFFFFFFFFFFFFFFFFFFF AND DUP3 PUSH20 0xFFFFFFFFFFFFFFFFFFFFFFFFFFFFFFFFFFFFFFFF AND DUP5 PUSH32 0xF6391F5C32D9C69D2A47EA670B442974B53935D1EDC7FD64EB21E047A839171B PUSH1 0x40 MLOAD PUSH1 0x40 MLOAD DUP1 SWAP2 SUB SWAP1 LOG4 PUSH1 0x1 SWAP1 POP PUSH2 0x2B5E JUMP JUMPDEST PUSH1 0x0 SWAP1 POP JUMPDEST SWAP3 SWAP2 POP POP JUMP JUMPDEST PUSH2 0x2B6E DUP3 DUP3 PUSH2 0x18DE JUMP JUMPDEST PUSH2 0x2BB1 JUMPI DUP1 DUP3 PUSH1 0x40 MLOAD PUSH32 0xE2517D3F00000000000000000000000000000000000000000000000000000000 DUP2 MSTORE PUSH1 0x4 ADD PUSH2 0x2BA8 SWAP3 SWAP2 SWAP1 PUSH2 0x4284 JUMP JUMPDEST PUSH1 0x40 MLOAD DUP1 SWAP2 SUB SWAP1 REVERT JUMPDEST POP POP JUMP JUMPDEST PUSH1 0x40 MLOAD DUP1 PUSH1 0xA0 ADD PUSH1 0x40 MSTORE DUP1 PUSH1 0x0 DUP2 MSTORE PUSH1 0x20 ADD PUSH1 0x60 DUP2 MSTORE PUSH1 0x20 ADD PUSH1 0x0 DUP2 MSTORE PUSH1 0x20 ADD PUSH1 0x0 DUP2 MSTORE PUSH1 0x20 ADD PUSH1 0x0 ISZERO ISZERO DUP2 MSTORE POP SWAP1 JUMP JUMPDEST PUSH1 0x40 MLOAD DUP1 PUSH1 0x60 ADD PUSH1 0x40 MSTORE DUP1 PUSH1 0x0 DUP2 MSTORE PUSH1 0x20 ADD PUSH1 0x60 DUP2 MSTORE PUSH1 0x20 ADD PUSH1 0x0 DUP2 MSTORE POP SWAP1 JUMP JUMPDEST PUSH1 0x0 PUSH1 0x40 MLOAD SWAP1 POP SWAP1 JUMP JUMPDEST PUSH1 0x0 DUP1 REVERT JUMPDEST PUSH1 0x0 DUP1 REVERT JUMPDEST PUSH1 0x0 PUSH32 0xFFFFFFFF00000000000000000000000000000000000000000000000000000000 DUP3 AND SWAP1 POP SWAP2 SWAP1 POP JUMP JUMPDEST PUSH2 0x2C50 DUP2 PUSH2 0x2C1B JUMP JUMPDEST DUP2 EQ PUSH2 0x2C5B JUMPI PUSH1 0x0 DUP1 REVERT JUMPDEST POP JUMP JUMPDEST PUSH1 0x0 DUP2 CALLDATALOAD SWAP1 POP PUSH2 0x2C6D DUP2 PUSH2 0x2C47 JUMP JUMPDEST SWAP3 SWAP2 POP POP JUMP JUMPDEST PUSH1 0x0 PUSH1 0x20 DUP3 DUP5 SUB SLT ISZERO PUSH2 0x2C89 JUMPI PUSH2 0x2C88 PUSH2 0x2C11 JUMP JUMPDEST JUMPDEST PUSH1 0x0 PUSH2 0x2C97 DUP5 DUP3 DUP6 ADD PUSH2 0x2C5E JUMP JUMPDEST SWAP2 POP POP SWAP3 SWAP2 POP POP JUMP JUMPDEST PUSH1 0x0 DUP2 ISZERO ISZERO SWAP1 POP SWAP2 SWAP1 POP JUMP JUMPDEST PUSH2 0x2CB5 DUP2 PUSH2 0x2CA0 JUMP JUMPDEST DUP3 MSTORE POP POP JUMP JUMPDEST PUSH1 0x0 PUSH1 0x20 DUP3 ADD SWAP1 POP PUSH2 0x2CD0 PUSH1 0x0 DUP4 ADD DUP5 PUSH2 0x2CAC JUMP JUMPDEST SWAP3 SWAP2 POP POP JUMP JUMPDEST PUSH1 0x0 DUP2 SWAP1 POP SWAP2 SWAP1 POP JUMP JUMPDEST PUSH2 0x2CE9 DUP2 PUSH2 0x2CD6 JUMP JUMPDEST DUP2 EQ PUSH2 0x2CF4 JUMPI PUSH1 0x0 DUP1 REVERT JUMPDEST POP JUMP JUMPDEST PUSH1 0x0 DUP2 CALLDATALOAD SWAP1 POP PUSH2 0x2D06 DUP2 PUSH2 0x2CE0 JUMP JUMPDEST SWAP3 SWAP2 POP POP JUMP JUMPDEST PUSH1 0x0 DUP1 PUSH1 0x40 DUP4 DUP6 SUB SLT ISZERO PUSH2 0x2D23 JUMPI PUSH2 0x2D22 PUSH2 0x2C11 JUMP JUMPDEST JUMPDEST PUSH1 0x0 PUSH2 0x2D31 DUP6 DUP3 DUP7 ADD PUSH2 0x2CF7 JUMP JUMPDEST SWAP3 POP POP PUSH1 0x20 PUSH2 0x2D42 DUP6 DUP3 DUP7 ADD PUSH2 0x2CF7 JUMP JUMPDEST SWAP2 POP POP SWAP3 POP SWAP3 SWAP1 POP JUMP JUMPDEST PUSH1 0x0 DUP2 SWAP1 POP SWAP2 SWAP1 POP JUMP JUMPDEST PUSH2 0x2D5F DUP2 PUSH2 0x2D4C JUMP JUMPDEST DUP3 MSTORE POP POP JUMP JUMPDEST PUSH1 0x0 PUSH1 0x20 DUP3 ADD SWAP1 POP PUSH2 0x2D7A PUSH1 0x0 DUP4 ADD DUP5 PUSH2 0x2D56 JUMP JUMPDEST SWAP3 SWAP2 POP POP JUMP JUMPDEST PUSH2 0x2D89 DUP2 PUSH2 0x2D4C JUMP JUMPDEST DUP2 EQ PUSH2 0x2D94 JUMPI PUSH1 0x0 DUP1 REVERT JUMPDEST POP JUMP JUMPDEST PUSH1 0x0 DUP2 CALLDATALOAD SWAP1 POP PUSH2 0x2DA6 DUP2 PUSH2 0x2D80 JUMP JUMPDEST SWAP3 SWAP2 POP POP JUMP JUMPDEST PUSH1 0x0 PUSH1 0x20 DUP3 DUP5 SUB SLT ISZERO PUSH2 0x2DC2 JUMPI PUSH2 0x2DC1 PUSH2 0x2C11 JUMP JUMPDEST JUMPDEST PUSH1 0x0 PUSH2 0x2DD0 DUP5 DUP3 DUP6 ADD PUSH2 0x2D97 JUMP JUMPDEST SWAP2 POP POP SWAP3 SWAP2 POP POP JUMP JUMPDEST PUSH1 0x0 PUSH1 0x20 DUP3 DUP5 SUB SLT ISZERO PUSH2 0x2DEF JUMPI PUSH2 0x2DEE PUSH2 0x2C11 JUMP JUMPDEST JUMPDEST PUSH1 0x0 PUSH2 0x2DFD DUP5 DUP3 DUP6 ADD PUSH2 0x2CF7 JUMP JUMPDEST SWAP2 POP POP SWAP3 SWAP2 POP POP JUMP JUMPDEST PUSH1 0x0 PUSH20 0xFFFFFFFFFFFFFFFFFFFFFFFFFFFFFFFFFFFFFFFF DUP3 AND SWAP1 POP SWAP2 SWAP1 POP JUMP JUMPDEST PUSH1 0x0 PUSH2 0x2E31 DUP3 PUSH2 0x2E06 JUMP JUMPDEST SWAP1 POP SWAP2 SWAP1 POP JUMP JUMPDEST PUSH2 0x2E41 DUP2 PUSH2 0x2E26 JUMP JUMPDEST DUP2 EQ PUSH2 0x2E4C JUMPI PUSH1 0x0 DUP1 REVERT JUMPDEST POP JUMP JUMPDEST PUSH1 0x0 DUP2 CALLDATALOAD SWAP1 POP PUSH2 0x2E5E DUP2 PUSH2 0x2E38 JUMP JUMPDEST SWAP3 SWAP2 POP POP JUMP JUMPDEST PUSH1 0x0 DUP1 PUSH1 0x40 DUP4 DUP6 SUB SLT ISZERO PUSH2 0x2E7B JUMPI PUSH2 0x2E7A PUSH2 0x2C11 JUMP JUMPDEST JUMPDEST PUSH1 0x0 PUSH2 0x2E89 DUP6 DUP3 DUP7 ADD PUSH2 0x2D97 JUMP JUMPDEST SWAP3 POP POP PUSH1 0x20 PUSH2 0x2E9A DUP6 DUP3 DUP7 ADD PUSH2 0x2E4F JUMP JUMPDEST SWAP2 POP POP SWAP3 POP SWAP3 SWAP1 POP JUMP JUMPDEST PUSH1 0x0 DUP1 PUSH1 0x40 DUP4 DUP6 SUB SLT ISZERO PUSH2 0x2EBB JUMPI PUSH2 0x2EBA PUSH2 0x2C11 JUMP JUMPDEST JUMPDEST PUSH1 0x0 PUSH2 0x2EC9 DUP6 DUP3 DUP7 ADD PUSH2 0x2E4F JUMP JUMPDEST SWAP3 POP POP PUSH1 0x20 PUSH2 0x2EDA DUP6 DUP3 DUP7 ADD PUSH2 0x2CF7 JUMP JUMPDEST SWAP2 POP POP SWAP3 POP SWAP3 SWAP1 POP JUMP JUMPDEST PUSH2 0x2EED DUP2 PUSH2 0x2CD6 JUMP JUMPDEST DUP3 MSTORE POP POP JUMP JUMPDEST PUSH1 0x0 DUP2 MLOAD SWAP1 POP SWAP2 SWAP1 POP JUMP JUMPDEST PUSH1 0x0 DUP3 DUP3 MSTORE PUSH1 0x20 DUP3 ADD SWAP1 POP SWAP3 SWAP2 POP POP JUMP JUMPDEST PUSH1 0x0 JUMPDEST DUP4 DUP2 LT ISZERO PUSH2 0x2F2D JUMPI DUP1 DUP3 ADD MLOAD DUP2 DUP5 ADD MSTORE PUSH1 0x20 DUP2 ADD SWAP1 POP PUSH2 0x2F12 JUMP JUMPDEST PUSH1 0x0 DUP5 DUP5 ADD MSTORE POP POP POP POP JUMP JUMPDEST PUSH1 0x0 PUSH1 0x1F NOT PUSH1 0x1F DUP4 ADD AND SWAP1 POP SWAP2 SWAP1 POP JUMP JUMPDEST PUSH1 0x0 PUSH2 0x2F55 DUP3 PUSH2 0x2EF3 JUMP JUMPDEST PUSH2 0x2F5F DUP2 DUP6 PUSH2 0x2EFE JUMP JUMPDEST SWAP4 POP PUSH2 0x2F6F DUP2 DUP6 PUSH1 0x20 DUP7 ADD PUSH2 0x2F0F JUMP JUMPDEST PUSH2 0x2F78 DUP2 PUSH2 0x2F39 JUMP JUMPDEST DUP5 ADD SWAP2 POP POP SWAP3 SWAP2 POP POP JUMP JUMPDEST PUSH1 0x0 PUSH1 0xA0 DUP3 ADD SWAP1 POP PUSH2 0x2F98 PUSH1 0x0 DUP4 ADD DUP9 PUSH2 0x2EE4 JUMP JUMPDEST DUP2 DUP2 SUB PUSH1 0x20 DUP4 ADD MSTORE PUSH2 0x2FAA DUP2 DUP8 PUSH2 0x2F4A JUMP JUMPDEST SWAP1 POP PUSH2 0x2FB9 PUSH1 0x40 DUP4 ADD DUP7 PUSH2 0x2EE4 JUMP JUMPDEST PUSH2 0x2FC6 PUSH1 0x60 DUP4 ADD DUP6 PUSH2 0x2EE4 JUMP JUMPDEST PUSH2 0x2FD3 PUSH1 0x80 DUP4 ADD DUP5 PUSH2 0x2CAC JUMP JUMPDEST SWAP7 SWAP6 POP POP POP POP POP POP JUMP JUMPDEST PUSH1 0x0 PUSH1 0x20 DUP3 DUP5 SUB SLT ISZERO PUSH2 0x2FF3 JUMPI PUSH2 0x2FF2 PUSH2 0x2C11 JUMP JUMPDEST JUMPDEST PUSH1 0x0 PUSH2 0x3001 DUP5 DUP3 DUP6 ADD PUSH2 0x2E4F JUMP JUMPDEST SWAP2 POP POP SWAP3 SWAP2 POP POP JUMP JUMPDEST PUSH1 0x0 DUP2 MLOAD SWAP1 POP SWAP2 SWAP1 POP JUMP JUMPDEST PUSH1 0x0 DUP3 DUP3 MSTORE PUSH1 0x20 DUP3 ADD SWAP1 POP SWAP3 SWAP2 POP POP JUMP JUMPDEST PUSH1 0x0 DUP2 SWAP1 POP PUSH1 0x20 DUP3 ADD SWAP1 POP SWAP2 SWAP1 POP JUMP JUMPDEST PUSH2 0x303F DUP2 PUSH2 0x2CD6 JUMP JUMPDEST DUP3 MSTORE POP POP JUMP JUMPDEST PUSH1 0x0 DUP3 DUP3 MSTORE PUSH1 0x20 DUP3 ADD SWAP1 POP SWAP3 SWAP2 POP POP JUMP JUMPDEST PUSH1 0x0 PUSH2 0x3061 DUP3 PUSH2 0x2EF3 JUMP JUMPDEST PUSH2 0x306B DUP2 DUP6 PUSH2 0x3045 JUMP JUMPDEST SWAP4 POP PUSH2 0x307B DUP2 DUP6 PUSH1 0x20 DUP7 ADD PUSH2 0x2F0F JUMP JUMPDEST PUSH2 0x3084 DUP2 PUSH2 0x2F39 JUMP JUMPDEST DUP5 ADD SWAP2 POP POP SWAP3 SWAP2 POP POP JUMP JUMPDEST PUSH2 0x3098 DUP2 PUSH2 0x2CA0 JUMP JUMPDEST DUP3 MSTORE POP POP JUMP JUMPDEST PUSH1 0x0 PUSH1 0xA0 DUP4 ADD PUSH1 0x0 DUP4 ADD MLOAD PUSH2 0x30B6 PUSH1 0x0 DUP7 ADD DUP3 PUSH2 0x3036 JUMP JUMPDEST POP PUSH1 0x20 DUP4 ADD MLOAD DUP5 DUP3 SUB PUSH1 0x20 DUP7 ADD MSTORE PUSH2 0x30CE DUP3 DUP3 PUSH2 0x3056 JUMP JUMPDEST SWAP2 POP POP PUSH1 0x40 DUP4 ADD MLOAD PUSH2 0x30E3 PUSH1 0x40 DUP7 ADD DUP3 PUSH2 0x3036 JUMP JUMPDEST POP PUSH1 0x60 DUP4 ADD MLOAD PUSH2 0x30F6 PUSH1 0x60 DUP7 ADD DUP3 PUSH2 0x3036 JUMP JUMPDEST POP PUSH1 0x80 DUP4 ADD MLOAD PUSH2 0x3109 PUSH1 0x80 DUP7 ADD DUP3 PUSH2 0x308F JUMP JUMPDEST POP DUP1 SWAP2 POP POP SWAP3 SWAP2 POP POP JUMP JUMPDEST PUSH1 0x0 PUSH2 0x3120 DUP4 DUP4 PUSH2 0x309E JUMP JUMPDEST SWAP1 POP SWAP3 SWAP2 POP POP JUMP JUMPDEST PUSH1 0x0 PUSH1 0x20 DUP3 ADD SWAP1 POP SWAP2 SWAP1 POP JUMP JUMPDEST PUSH1 0x0 PUSH2 0x3140 DUP3 PUSH2 0x300A JUMP JUMPDEST PUSH2 0x314A DUP2 DUP6 PUSH2 0x3015 JUMP JUMPDEST SWAP4 POP DUP4 PUSH1 0x20 DUP3 MUL DUP6 ADD PUSH2 0x315C DUP6 PUSH2 0x3026 JUMP JUMPDEST DUP1 PUSH1 0x0 JUMPDEST DUP6 DUP2 LT ISZERO PUSH2 0x3198 JUMPI DUP5 DUP5 SUB DUP10 MSTORE DUP2 MLOAD PUSH2 0x3179 DUP6 DUP3 PUSH2 0x3114 JUMP JUMPDEST SWAP5 POP PUSH2 0x3184 DUP4 PUSH2 0x3128 JUMP JUMPDEST SWAP3 POP PUSH1 0x20 DUP11 ADD SWAP10 POP POP PUSH1 0x1 DUP2 ADD SWAP1 POP PUSH2 0x3160 JUMP JUMPDEST POP DUP3 SWAP8 POP DUP8 SWAP6 POP POP POP POP POP POP SWAP3 SWAP2 POP POP JUMP JUMPDEST PUSH1 0x0 PUSH1 0x20 DUP3 ADD SWAP1 POP DUP2 DUP2 SUB PUSH1 0x0 DUP4 ADD MSTORE PUSH2 0x31C4 DUP2 DUP5 PUSH2 0x3135 JUMP JUMPDEST SWAP1 POP SWAP3 SWAP2 POP POP JUMP JUMPDEST PUSH1 0x0 PUSH1 0x60 DUP3 ADD SWAP1 POP PUSH2 0x31E1 PUSH1 0x0 DUP4 ADD DUP7 PUSH2 0x2EE4 JUMP JUMPDEST DUP2 DUP2 SUB PUSH1 0x20 DUP4 ADD MSTORE PUSH2 0x31F3 DUP2 DUP6 PUSH2 0x2F4A JUMP JUMPDEST SWAP1 POP PUSH2 0x3202 PUSH1 0x40 DUP4 ADD DUP5 PUSH2 0x2EE4 JUMP JUMPDEST SWAP5 SWAP4 POP POP POP POP JUMP JUMPDEST PUSH2 0x3213 DUP2 PUSH2 0x2E26 JUMP JUMPDEST DUP3 MSTORE POP POP JUMP JUMPDEST PUSH1 0x0 PUSH1 0x20 DUP3 ADD SWAP1 POP PUSH2 0x322E PUSH1 0x0 DUP4 ADD DUP5 PUSH2 0x320A JUMP JUMPDEST SWAP3 SWAP2 POP POP JUMP JUMPDEST PUSH1 0x0 PUSH1 0x60 DUP3 ADD SWAP1 POP PUSH2 0x3249 PUSH1 0x0 DUP4 ADD DUP7 PUSH2 0x2CAC JUMP JUMPDEST PUSH2 0x3256 PUSH1 0x20 DUP4 ADD DUP6 PUSH2 0x2CAC JUMP JUMPDEST PUSH2 0x3263 PUSH1 0x40 DUP4 ADD DUP5 PUSH2 0x2EE4 JUMP JUMPDEST SWAP5 SWAP4 POP POP POP POP JUMP JUMPDEST PUSH1 0x0 DUP2 MLOAD SWAP1 POP SWAP2 SWAP1 POP JUMP JUMPDEST PUSH1 0x0 DUP3 DUP3 MSTORE PUSH1 0x20 DUP3 ADD SWAP1 POP SWAP3 SWAP2 POP POP JUMP JUMPDEST PUSH1 0x0 DUP2 SWAP1 POP PUSH1 0x20 DUP3 ADD SWAP1 POP SWAP2 SWAP1 POP JUMP JUMPDEST PUSH1 0x0 PUSH1 0x60 DUP4 ADD PUSH1 0x0 DUP4 ADD MLOAD PUSH2 0x32AF PUSH1 0x0 DUP7 ADD DUP3 PUSH2 0x3036 JUMP JUMPDEST POP PUSH1 0x20 DUP4 ADD MLOAD DUP5 DUP3 SUB PUSH1 0x20 DUP7 ADD MSTORE PUSH2 0x32C7 DUP3 DUP3 PUSH2 0x3056 JUMP JUMPDEST SWAP2 POP POP PUSH1 0x40 DUP4 ADD MLOAD PUSH2 0x32DC PUSH1 0x40 DUP7 ADD DUP3 PUSH2 0x3036 JUMP JUMPDEST POP DUP1 SWAP2 POP POP SWAP3 SWAP2 POP POP JUMP JUMPDEST PUSH1 0x0 PUSH2 0x32F3 DUP4 DUP4 PUSH2 0x3297 JUMP JUMPDEST SWAP1 POP SWAP3 SWAP2 POP POP JUMP JUMPDEST PUSH1 0x0 PUSH1 0x20 DUP3 ADD SWAP1 POP SWAP2 SWAP1 POP JUMP JUMPDEST PUSH1 0x0 PUSH2 0x3313 DUP3 PUSH2 0x326B JUMP JUMPDEST PUSH2 0x331D DUP2 DUP6 PUSH2 0x3276 JUMP JUMPDEST SWAP4 POP DUP4 PUSH1 0x20 DUP3 MUL DUP6 ADD PUSH2 0x332F DUP6 PUSH2 0x3287 JUMP JUMPDEST DUP1 PUSH1 0x0 JUMPDEST DUP6 DUP2 LT ISZERO PUSH2 0x336B JUMPI DUP5 DUP5 SUB DUP10 MSTORE DUP2 MLOAD PUSH2 0x334C DUP6 DUP3 PUSH2 0x32E7 JUMP JUMPDEST SWAP5 POP PUSH2 0x3357 DUP4 PUSH2 0x32FB JUMP JUMPDEST SWAP3 POP PUSH1 0x20 DUP11 ADD SWAP10 POP POP PUSH1 0x1 DUP2 ADD SWAP1 POP PUSH2 0x3333 JUMP JUMPDEST POP DUP3 SWAP8 POP DUP8 SWAP6 POP POP POP POP POP POP SWAP3 SWAP2 POP POP JUMP JUMPDEST PUSH1 0x0 PUSH1 0x20 DUP3 ADD SWAP1 POP DUP2 DUP2 SUB PUSH1 0x0 DUP4 ADD MSTORE PUSH2 0x3397 DUP2 DUP5 PUSH2 0x3308 JUMP JUMPDEST SWAP1 POP SWAP3 SWAP2 POP POP JUMP JUMPDEST PUSH1 0x0 DUP1 REVERT JUMPDEST PUSH1 0x0 DUP1 REVERT JUMPDEST PUSH32 0x4E487B7100000000000000000000000000000000000000000000000000000000 PUSH1 0x0 MSTORE PUSH1 0x41 PUSH1 0x4 MSTORE PUSH1 0x24 PUSH1 0x0 REVERT JUMPDEST PUSH2 0x33E1 DUP3 PUSH2 0x2F39 JUMP JUMPDEST DUP2 ADD DUP2 DUP2 LT PUSH8 0xFFFFFFFFFFFFFFFF DUP3 GT OR ISZERO PUSH2 0x3400 JUMPI PUSH2 0x33FF PUSH2 0x33A9 JUMP JUMPDEST JUMPDEST DUP1 PUSH1 0x40 MSTORE POP POP POP JUMP JUMPDEST PUSH1 0x0 PUSH2 0x3413 PUSH2 0x2C07 JUMP JUMPDEST SWAP1 POP PUSH2 0x341F DUP3 DUP3 PUSH2 0x33D8 JUMP JUMPDEST SWAP2 SWAP1 POP JUMP JUMPDEST PUSH1 0x0 PUSH8 0xFFFFFFFFFFFFFFFF DUP3 GT ISZERO PUSH2 0x343F JUMPI PUSH2 0x343E PUSH2 0x33A9 JUMP JUMPDEST JUMPDEST PUSH2 0x3448 DUP3 PUSH2 0x2F39 JUMP JUMPDEST SWAP1 POP PUSH1 0x20 DUP2 ADD SWAP1 POP SWAP2 SWAP1 POP JUMP JUMPDEST DUP3 DUP2 DUP4 CALLDATACOPY PUSH1 0x0 DUP4 DUP4 ADD MSTORE POP POP POP JUMP JUMPDEST PUSH1 0x0 PUSH2 0x3477 PUSH2 0x3472 DUP5 PUSH2 0x3424 JUMP JUMPDEST PUSH2 0x3409 JUMP JUMPDEST SWAP1 POP DUP3 DUP2 MSTORE PUSH1 0x20 DUP2 ADD DUP5 DUP5 DUP5 ADD GT ISZERO PUSH2 0x3493 JUMPI PUSH2 0x3492 PUSH2 0x33A4 JUMP JUMPDEST JUMPDEST PUSH2 0x349E DUP5 DUP3 DUP6 PUSH2 0x3455 JUMP JUMPDEST POP SWAP4 SWAP3 POP POP POP JUMP JUMPDEST PUSH1 0x0 DUP3 PUSH1 0x1F DUP4 ADD SLT PUSH2 0x34BB JUMPI PUSH2 0x34BA PUSH2 0x339F JUMP JUMPDEST JUMPDEST DUP2 CALLDATALOAD PUSH2 0x34CB DUP5 DUP3 PUSH1 0x20 DUP7 ADD PUSH2 0x3464 JUMP JUMPDEST SWAP2 POP POP SWAP3 SWAP2 POP POP JUMP JUMPDEST PUSH1 0x0 DUP1 PUSH1 0x0 DUP1 PUSH1 0x80 DUP6 DUP8 SUB SLT ISZERO PUSH2 0x34EE JUMPI PUSH2 0x34ED PUSH2 0x2C11 JUMP JUMPDEST JUMPDEST PUSH1 0x0 PUSH2 0x34FC DUP8 DUP3 DUP9 ADD PUSH2 0x2CF7 JUMP JUMPDEST SWAP5 POP POP PUSH1 0x20 DUP6 ADD CALLDATALOAD PUSH8 0xFFFFFFFFFFFFFFFF DUP2 GT ISZERO PUSH2 0x351D JUMPI PUSH2 0x351C PUSH2 0x2C16 JUMP JUMPDEST JUMPDEST PUSH2 0x3529 DUP8 DUP3 DUP9 ADD PUSH2 0x34A6 JUMP JUMPDEST SWAP4 POP POP PUSH1 0x40 PUSH2 0x353A DUP8 DUP3 DUP9 ADD PUSH2 0x2CF7 JUMP JUMPDEST SWAP3 POP POP PUSH1 0x60 PUSH2 0x354B DUP8 DUP3 DUP9 ADD PUSH2 0x2CF7 JUMP JUMPDEST SWAP2 POP POP SWAP3 SWAP6 SWAP2 SWAP5 POP SWAP3 POP JUMP JUMPDEST PUSH32 0x43616C6C6572206973206E6F742061206C6F676973746963732070726F766964 PUSH1 0x0 DUP3 ADD MSTORE PUSH32 0x6572000000000000000000000000000000000000000000000000000000000000 PUSH1 0x20 DUP3 ADD MSTORE POP JUMP JUMPDEST PUSH1 0x0 PUSH2 0x35B3 PUSH1 0x22 DUP4 PUSH2 0x2EFE JUMP JUMPDEST SWAP2 POP PUSH2 0x35BE DUP3 PUSH2 0x3557 JUMP JUMPDEST PUSH1 0x40 DUP3 ADD SWAP1 POP SWAP2 SWAP1 POP JUMP JUMPDEST PUSH1 0x0 PUSH1 0x20 DUP3 ADD SWAP1 POP DUP2 DUP2 SUB PUSH1 0x0 DUP4 ADD MSTORE PUSH2 0x35E2 DUP2 PUSH2 0x35A6 JUMP JUMPDEST SWAP1 POP SWAP2 SWAP1 POP JUMP JUMPDEST PUSH32 0x4E487B7100000000000000000000000000000000000000000000000000000000 PUSH1 0x0 MSTORE PUSH1 0x22 PUSH1 0x4 MSTORE PUSH1 0x24 PUSH1 0x0 REVERT JUMPDEST PUSH1 0x0 PUSH1 0x2 DUP3 DIV SWAP1 POP PUSH1 0x1 DUP3 AND DUP1 PUSH2 0x3630 JUMPI PUSH1 0x7F DUP3 AND SWAP2 POP JUMPDEST PUSH1 0x20 DUP3 LT DUP2 SUB PUSH2 0x3643 JUMPI PUSH2 0x3642 PUSH2 0x35E9 JUMP JUMPDEST JUMPDEST POP SWAP2 SWAP1 POP JUMP JUMPDEST PUSH1 0x0 DUP2 SWAP1 POP SWAP3 SWAP2 POP POP JUMP JUMPDEST PUSH1 0x0 DUP2 SWAP1 POP DUP2 PUSH1 0x0 MSTORE PUSH1 0x20 PUSH1 0x0 KECCAK256 SWAP1 POP SWAP2 SWAP1 POP JUMP JUMPDEST PUSH1 0x0 DUP2 SLOAD PUSH2 0x3676 DUP2 PUSH2 0x3618 JUMP JUMPDEST PUSH2 0x3680 DUP2 DUP7 PUSH2 0x3649 JUMP JUMPDEST SWAP5 POP PUSH1 0x1 DUP3 AND PUSH1 0x0 DUP2 EQ PUSH2 0x369B JUMPI PUSH1 0x1 DUP2 EQ PUSH2 0x36B0 JUMPI PUSH2 0x36E3 JUMP JUMPDEST PUSH1 0xFF NOT DUP4 AND DUP7 MSTORE DUP2 ISZERO ISZERO DUP3 MUL DUP7 ADD SWAP4 POP PUSH2 0x36E3 JUMP JUMPDEST PUSH2 0x36B9 DUP6 PUSH2 0x3654 JUMP JUMPDEST PUSH1 0x0 JUMPDEST DUP4 DUP2 LT ISZERO PUSH2 0x36DB JUMPI DUP2 SLOAD DUP2 DUP10 ADD MSTORE PUSH1 0x1 DUP3 ADD SWAP2 POP PUSH1 0x20 DUP2 ADD SWAP1 POP PUSH2 0x36BC JUMP JUMPDEST DUP4 DUP9 ADD SWAP6 POP POP POP JUMPDEST POP POP POP SWAP3 SWAP2 POP POP JUMP JUMPDEST PUSH1 0x0 PUSH2 0x36F8 DUP3 DUP5 PUSH2 0x3669 JUMP JUMPDEST SWAP2 POP DUP2 SWAP1 POP SWAP3 SWAP2 POP POP JUMP JUMPDEST PUSH32 0x50726F64756374206973206E6F7420726561647920666F7220736869706D656E PUSH1 0x0 DUP3 ADD MSTORE PUSH32 0x7400000000000000000000000000000000000000000000000000000000000000 PUSH1 0x20 DUP3 ADD MSTORE POP JUMP JUMPDEST PUSH1 0x0 PUSH2 0x375F PUSH1 0x21 DUP4 PUSH2 0x2EFE JUMP JUMPDEST SWAP2 POP PUSH2 0x376A DUP3 PUSH2 0x3703 JUMP JUMPDEST PUSH1 0x40 DUP3 ADD SWAP1 POP SWAP2 SWAP1 POP JUMP JUMPDEST PUSH1 0x0 PUSH1 0x20 DUP3 ADD SWAP1 POP DUP2 DUP2 SUB PUSH1 0x0 DUP4 ADD MSTORE PUSH2 0x378E DUP2 PUSH2 0x3752 JUMP JUMPDEST SWAP1 POP SWAP2 SWAP1 POP JUMP JUMPDEST PUSH1 0x0 DUP2 SWAP1 POP DUP2 PUSH1 0x0 MSTORE PUSH1 0x20 PUSH1 0x0 KECCAK256 SWAP1 POP SWAP2 SWAP1 POP JUMP JUMPDEST PUSH1 0x0 PUSH1 0x20 PUSH1 0x1F DUP4 ADD DIV SWAP1 POP SWAP2 SWAP1 POP JUMP JUMPDEST PUSH1 0x0 DUP3 DUP3 SHL SWAP1 POP SWAP3 SWAP2 POP POP JUMP JUMPDEST PUSH1 0x0 PUSH1 0x8 DUP4 MUL PUSH2 0x37F7 PUSH32 0xFFFFFFFFFFFFFFFFFFFFFFFFFFFFFFFFFFFFFFFFFFFFFFFFFFFFFFFFFFFFFFFF DUP3 PUSH2 0x37BA JUMP JUMPDEST PUSH2 0x3801 DUP7 DUP4 PUSH2 0x37BA JUMP JUMPDEST SWAP6 POP DUP1 NOT DUP5 AND SWAP4 POP DUP1 DUP7 AND DUP5 OR SWAP3 POP POP POP SWAP4 SWAP3 POP POP POP JUMP JUMPDEST PUSH1 0x0 DUP2 SWAP1 POP SWAP2 SWAP1 POP JUMP JUMPDEST PUSH1 0x0 PUSH2 0x383E PUSH2 0x3839 PUSH2 0x3834 DUP5 PUSH2 0x2CD6 JUMP JUMPDEST PUSH2 0x3819 JUMP JUMPDEST PUSH2 0x2CD6 JUMP JUMPDEST SWAP1 POP SWAP2 SWAP1 POP JUMP JUMPDEST PUSH1 0x0 DUP2 SWAP1 POP SWAP2 SWAP1 POP JUMP JUMPDEST PUSH2 0x3858 DUP4 PUSH2 0x3823 JUMP JUMPDEST PUSH2 0x386C PUSH2 0x3864 DUP3 PUSH2 0x3845 JUMP JUMPDEST DUP5 DUP5 SLOAD PUSH2 0x37C7 JUMP JUMPDEST DUP3 SSTORE POP POP POP POP JUMP JUMPDEST PUSH1 0x0 SWAP1 JUMP JUMPDEST PUSH2 0x3881 PUSH2 0x3874 JUMP JUMPDEST PUSH2 0x388C DUP2 DUP5 DUP5 PUSH2 0x384F JUMP JUMPDEST POP POP POP JUMP JUMPDEST JUMPDEST DUP2 DUP2 LT ISZERO PUSH2 0x38B0 JUMPI PUSH2 0x38A5 PUSH1 0x0 DUP3 PUSH2 0x3879 JUMP JUMPDEST PUSH1 0x1 DUP2 ADD SWAP1 POP PUSH2 0x3892 JUMP JUMPDEST POP POP JUMP JUMPDEST PUSH1 0x1F DUP3 GT ISZERO PUSH2 0x38F5 JUMPI PUSH2 0x38C6 DUP2 PUSH2 0x3795 JUMP JUMPDEST PUSH2 0x38CF DUP5 PUSH2 0x37AA JUMP JUMPDEST DUP2 ADD PUSH1 0x20 DUP6 LT ISZERO PUSH2 0x38DE JUMPI DUP2 SWAP1 POP JUMPDEST PUSH2 0x38F2 PUSH2 0x38EA DUP6 PUSH2 0x37AA JUMP JUMPDEST DUP4 ADD DUP3 PUSH2 0x3891 JUMP JUMPDEST POP POP JUMPDEST POP POP POP JUMP JUMPDEST PUSH1 0x0 DUP3 DUP3 SHR SWAP1 POP SWAP3 SWAP2 POP POP JUMP JUMPDEST PUSH1 0x0 PUSH2 0x3918 PUSH1 0x0 NOT DUP5 PUSH1 0x8 MUL PUSH2 0x38FA JUMP JUMPDEST NOT DUP1 DUP4 AND SWAP2 POP POP SWAP3 SWAP2 POP POP JUMP JUMPDEST PUSH1 0x0 PUSH2 0x3931 DUP4 DUP4 PUSH2 0x3907 JUMP JUMPDEST SWAP2 POP DUP3 PUSH1 0x2 MUL DUP3 OR SWAP1 POP SWAP3 SWAP2 POP POP JUMP JUMPDEST PUSH2 0x394A DUP3 PUSH2 0x2EF3 JUMP JUMPDEST PUSH8 0xFFFFFFFFFFFFFFFF DUP2 GT ISZERO PUSH2 0x3963 JUMPI PUSH2 0x3962 PUSH2 0x33A9 JUMP JUMPDEST JUMPDEST PUSH2 0x396D DUP3 SLOAD PUSH2 0x3618 JUMP JUMPDEST PUSH2 0x3978 DUP3 DUP3 DUP6 PUSH2 0x38B4 JUMP JUMPDEST PUSH1 0x0 PUSH1 0x20 SWAP1 POP PUSH1 0x1F DUP4 GT PUSH1 0x1 DUP2 EQ PUSH2 0x39AB JUMPI PUSH1 0x0 DUP5 ISZERO PUSH2 0x3999 JUMPI DUP3 DUP8 ADD MLOAD SWAP1 POP JUMPDEST PUSH2 0x39A3 DUP6 DUP3 PUSH2 0x3925 JUMP JUMPDEST DUP7 SSTORE POP PUSH2 0x3A0B JUMP JUMPDEST PUSH1 0x1F NOT DUP5 AND PUSH2 0x39B9 DUP7 PUSH2 0x3795 JUMP JUMPDEST PUSH1 0x0 JUMPDEST DUP3 DUP2 LT ISZERO PUSH2 0x39E1 JUMPI DUP5 DUP10 ADD MLOAD DUP3 SSTORE PUSH1 0x1 DUP3 ADD SWAP2 POP PUSH1 0x20 DUP6 ADD SWAP5 POP PUSH1 0x20 DUP2 ADD SWAP1 POP PUSH2 0x39BC JUMP JUMPDEST DUP7 DUP4 LT ISZERO PUSH2 0x39FE JUMPI DUP5 DUP10 ADD MLOAD PUSH2 0x39FA PUSH1 0x1F DUP10 AND DUP3 PUSH2 0x3907 JUMP JUMPDEST DUP4 SSTORE POP JUMPDEST PUSH1 0x1 PUSH1 0x2 DUP9 MUL ADD DUP9 SSTORE POP POP POP JUMPDEST POP POP POP POP POP POP JUMP JUMPDEST PUSH32 0x4E487B7100000000000000000000000000000000000000000000000000000000 PUSH1 0x0 MSTORE PUSH1 0x11 PUSH1 0x4 MSTORE PUSH1 0x24 PUSH1 0x0 REVERT JUMPDEST PUSH1 0x0 PUSH2 0x3A4D DUP3 PUSH2 0x2CD6 JUMP JUMPDEST SWAP2 POP PUSH2 0x3A58 DUP4 PUSH2 0x2CD6 JUMP JUMPDEST SWAP3 POP DUP3 DUP3 SUB SWAP1 POP DUP2 DUP2 GT ISZERO PUSH2 0x3A70 JUMPI PUSH2 0x3A6F PUSH2 0x3A13 JUMP JUMPDEST JUMPDEST SWAP3 SWAP2 POP POP JUMP JUMPDEST PUSH1 0x0 PUSH1 0x20 DUP3 ADD SWAP1 POP PUSH2 0x3A8B PUSH1 0x0 DUP4 ADD DUP5 PUSH2 0x2EE4 JUMP JUMPDEST SWAP3 SWAP2 POP POP JUMP JUMPDEST PUSH32 0x43616C6C6572206973206E6F7420612072657461696C65720000000000000000 PUSH1 0x0 DUP3 ADD MSTORE POP JUMP JUMPDEST PUSH1 0x0 PUSH2 0x3AC7 PUSH1 0x18 DUP4 PUSH2 0x2EFE JUMP JUMPDEST SWAP2 POP PUSH2 0x3AD2 DUP3 PUSH2 0x3A91 JUMP JUMPDEST PUSH1 0x20 DUP3 ADD SWAP1 POP SWAP2 SWAP1 POP JUMP JUMPDEST PUSH1 0x0 PUSH1 0x20 DUP3 ADD SWAP1 POP DUP2 DUP2 SUB PUSH1 0x0 DUP4 ADD MSTORE PUSH2 0x3AF6 DUP2 PUSH2 0x3ABA JUMP JUMPDEST SWAP1 POP SWAP2 SWAP1 POP JUMP JUMPDEST PUSH32 0x50726F6475637420686173206E6F74206265656E207368697070656400000000 PUSH1 0x0 DUP3 ADD MSTORE POP JUMP JUMPDEST PUSH1 0x0 PUSH2 0x3B33 PUSH1 0x1C DUP4 PUSH2 0x2EFE JUMP JUMPDEST SWAP2 POP PUSH2 0x3B3E DUP3 PUSH2 0x3AFD JUMP JUMPDEST PUSH1 0x20 DUP3 ADD SWAP1 POP SWAP2 SWAP1 POP JUMP JUMPDEST PUSH1 0x0 PUSH1 0x20 DUP3 ADD SWAP1 POP DUP2 DUP2 SUB PUSH1 0x0 DUP4 ADD MSTORE PUSH2 0x3B62 DUP2 PUSH2 0x3B26 JUMP JUMPDEST SWAP1 POP SWAP2 SWAP1 POP JUMP JUMPDEST PUSH1 0x0 PUSH2 0x3B74 DUP3 PUSH2 0x2CD6 JUMP JUMPDEST SWAP2 POP PUSH2 0x3B7F DUP4 PUSH2 0x2CD6 JUMP JUMPDEST SWAP3 POP DUP3 DUP3 ADD SWAP1 POP DUP1 DUP3 GT ISZERO PUSH2 0x3B97 JUMPI PUSH2 0x3B96 PUSH2 0x3A13 JUMP JUMPDEST JUMPDEST SWAP3 SWAP2 POP POP JUMP JUMPDEST PUSH1 0x0 PUSH1 0x40 DUP3 ADD SWAP1 POP PUSH2 0x3BB2 PUSH1 0x0 DUP4 ADD DUP6 PUSH2 0x2EE4 JUMP JUMPDEST PUSH2 0x3BBF PUSH1 0x20 DUP4 ADD DUP5 PUSH2 0x320A JUMP JUMPDEST SWAP4 SWAP3 POP POP POP JUMP JUMPDEST PUSH32 0x4E487B7100000000000000000000000000000000000000000000000000000000 PUSH1 0x0 MSTORE PUSH1 0x32 PUSH1 0x4 MSTORE PUSH1 0x24 PUSH1 0x0 REVERT JUMPDEST PUSH1 0x0 PUSH2 0x3C00 DUP3 PUSH2 0x2CD6 JUMP JUMPDEST SWAP2 POP PUSH32 0xFFFFFFFFFFFFFFFFFFFFFFFFFFFFFFFFFFFFFFFFFFFFFFFFFFFFFFFFFFFFFFFF DUP3 SUB PUSH2 0x3C32 JUMPI PUSH2 0x3C31 PUSH2 0x3A13 JUMP JUMPDEST JUMPDEST PUSH1 0x1 DUP3 ADD SWAP1 POP SWAP2 SWAP1 POP JUMP JUMPDEST PUSH32 0x43616C6C6572206973206E6F742061206D616E75666163747572657200000000 PUSH1 0x0 DUP3 ADD MSTORE POP JUMP JUMPDEST PUSH1 0x0 PUSH2 0x3C73 PUSH1 0x1C DUP4 PUSH2 0x2EFE JUMP JUMPDEST SWAP2 POP PUSH2 0x3C7E DUP3 PUSH2 0x3C3D JUMP JUMPDEST PUSH1 0x20 DUP3 ADD SWAP1 POP SWAP2 SWAP1 POP JUMP JUMPDEST PUSH1 0x0 PUSH1 0x20 DUP3 ADD SWAP1 POP DUP2 DUP2 SUB PUSH1 0x0 DUP4 ADD MSTORE PUSH2 0x3CA2 DUP2 PUSH2 0x3C66 JUMP JUMPDEST SWAP1 POP SWAP2 SWAP1 POP JUMP JUMPDEST PUSH32 0x496E73756666696369656E74207175616E7469747920696E206D616E75666163 PUSH1 0x0 DUP3 ADD MSTORE PUSH32 0x7475726572277320696E76656E746F7279000000000000000000000000000000 PUSH1 0x20 DUP3 ADD MSTORE POP JUMP JUMPDEST PUSH1 0x0 PUSH2 0x3D05 PUSH1 0x31 DUP4 PUSH2 0x2EFE JUMP JUMPDEST SWAP2 POP PUSH2 0x3D10 DUP3 PUSH2 0x3CA9 JUMP JUMPDEST PUSH1 0x40 DUP3 ADD SWAP1 POP SWAP2 SWAP1 POP JUMP JUMPDEST PUSH1 0x0 PUSH1 0x20 DUP3 ADD SWAP1 POP DUP2 DUP2 SUB PUSH1 0x0 DUP4 ADD MSTORE PUSH2 0x3D34 DUP2 PUSH2 0x3CF8 JUMP JUMPDEST SWAP1 POP SWAP2 SWAP1 POP JUMP JUMPDEST PUSH32 0x4E6F206F7264657220666F72207468652070726F647563747300000000000000 PUSH1 0x0 DUP3 ADD MSTORE POP JUMP JUMPDEST PUSH1 0x0 PUSH2 0x3D71 PUSH1 0x19 DUP4 PUSH2 0x2EFE JUMP JUMPDEST SWAP2 POP PUSH2 0x3D7C DUP3 PUSH2 0x3D3B JUMP JUMPDEST PUSH1 0x20 DUP3 ADD SWAP1 POP SWAP2 SWAP1 POP JUMP JUMPDEST PUSH1 0x0 PUSH1 0x20 DUP3 ADD SWAP1 POP DUP2 DUP2 SUB PUSH1 0x0 DUP4 ADD MSTORE PUSH2 0x3DA0 DUP2 PUSH2 0x3D64 JUMP JUMPDEST SWAP1 POP SWAP2 SWAP1 POP JUMP JUMPDEST PUSH32 0x43616C6C6572206973206E6F74206120636F6E73756D65720000000000000000 PUSH1 0x0 DUP3 ADD MSTORE POP JUMP JUMPDEST PUSH1 0x0 PUSH2 0x3DDD PUSH1 0x18 DUP4 PUSH2 0x2EFE JUMP JUMPDEST SWAP2 POP PUSH2 0x3DE8 DUP3 PUSH2 0x3DA7 JUMP JUMPDEST PUSH1 0x20 DUP3 ADD SWAP1 POP SWAP2 SWAP1 POP JUMP JUMPDEST PUSH1 0x0 PUSH1 0x20 DUP3 ADD SWAP1 POP DUP2 DUP2 SUB PUSH1 0x0 DUP4 ADD MSTORE PUSH2 0x3E0C DUP2 PUSH2 0x3DD0 JUMP JUMPDEST SWAP1 POP SWAP2 SWAP1 POP JUMP JUMPDEST PUSH32 0x50726F64756374206973206E6F7420666F722073616C65000000000000000000 PUSH1 0x0 DUP3 ADD MSTORE POP JUMP JUMPDEST PUSH1 0x0 PUSH2 0x3E49 PUSH1 0x17 DUP4 PUSH2 0x2EFE JUMP JUMPDEST SWAP2 POP PUSH2 0x3E54 DUP3 PUSH2 0x3E13 JUMP JUMPDEST PUSH1 0x20 DUP3 ADD SWAP1 POP SWAP2 SWAP1 POP JUMP JUMPDEST PUSH1 0x0 PUSH1 0x20 DUP3 ADD SWAP1 POP DUP2 DUP2 SUB PUSH1 0x0 DUP4 ADD MSTORE PUSH2 0x3E78 DUP2 PUSH2 0x3E3C JUMP JUMPDEST SWAP1 POP SWAP2 SWAP1 POP JUMP JUMPDEST PUSH32 0x4E6F7420656E6F7567682070726F6475637420617661696C61626C6520666F72 PUSH1 0x0 DUP3 ADD MSTORE PUSH32 0x2070757263686173650000000000000000000000000000000000000000000000 PUSH1 0x20 DUP3 ADD MSTORE POP JUMP JUMPDEST PUSH1 0x0 PUSH2 0x3EDB PUSH1 0x29 DUP4 PUSH2 0x2EFE JUMP JUMPDEST SWAP2 POP PUSH2 0x3EE6 DUP3 PUSH2 0x3E7F JUMP JUMPDEST PUSH1 0x40 DUP3 ADD SWAP1 POP SWAP2 SWAP1 POP JUMP JUMPDEST PUSH1 0x0 PUSH1 0x20 DUP3 ADD SWAP1 POP DUP2 DUP2 SUB PUSH1 0x0 DUP4 ADD MSTORE PUSH2 0x3F0A DUP2 PUSH2 0x3ECE JUMP JUMPDEST SWAP1 POP SWAP2 SWAP1 POP JUMP JUMPDEST PUSH1 0x0 PUSH2 0x3F1C DUP3 PUSH2 0x2CD6 JUMP JUMPDEST SWAP2 POP PUSH2 0x3F27 DUP4 PUSH2 0x2CD6 JUMP JUMPDEST SWAP3 POP DUP3 DUP3 MUL PUSH2 0x3F35 DUP2 PUSH2 0x2CD6 JUMP JUMPDEST SWAP2 POP DUP3 DUP3 DIV DUP5 EQ DUP4 ISZERO OR PUSH2 0x3F4C JUMPI PUSH2 0x3F4B PUSH2 0x3A13 JUMP JUMPDEST JUMPDEST POP SWAP3 SWAP2 POP POP JUMP JUMPDEST PUSH32 0x496E73756666696369656E74207061796D656E74000000000000000000000000 PUSH1 0x0 DUP3 ADD MSTORE POP JUMP JUMPDEST PUSH1 0x0 PUSH2 0x3F89 PUSH1 0x14 DUP4 PUSH2 0x2EFE JUMP JUMPDEST SWAP2 POP PUSH2 0x3F94 DUP3 PUSH2 0x3F53 JUMP JUMPDEST PUSH1 0x20 DUP3 ADD SWAP1 POP SWAP2 SWAP1 POP JUMP JUMPDEST PUSH1 0x0 PUSH1 0x20 DUP3 ADD SWAP1 POP DUP2 DUP2 SUB PUSH1 0x0 DUP4 ADD MSTORE PUSH2 0x3FB8 DUP2 PUSH2 0x3F7C JUMP JUMPDEST SWAP1 POP SWAP2 SWAP1 POP JUMP JUMPDEST PUSH1 0x0 PUSH1 0x60 DUP3 ADD SWAP1 POP PUSH2 0x3FD4 PUSH1 0x0 DUP4 ADD DUP7 PUSH2 0x2EE4 JUMP JUMPDEST PUSH2 0x3FE1 PUSH1 0x20 DUP4 ADD DUP6 PUSH2 0x2EE4 JUMP JUMPDEST PUSH2 0x3FEE PUSH1 0x40 DUP4 ADD DUP5 PUSH2 0x320A JUMP JUMPDEST SWAP5 SWAP4 POP POP POP POP JUMP JUMPDEST PUSH32 0x4E6F206974656D20746F206C69737420666F722073616C650000000000000000 PUSH1 0x0 DUP3 ADD MSTORE POP JUMP JUMPDEST PUSH1 0x0 PUSH2 0x402C PUSH1 0x18 DUP4 PUSH2 0x2EFE JUMP JUMPDEST SWAP2 POP PUSH2 0x4037 DUP3 PUSH2 0x3FF6 JUMP JUMPDEST PUSH1 0x20 DUP3 ADD SWAP1 POP SWAP2 SWAP1 POP JUMP JUMPDEST PUSH1 0x0 PUSH1 0x20 DUP3 ADD SWAP1 POP DUP2 DUP2 SUB PUSH1 0x0 DUP4 ADD MSTORE PUSH2 0x405B DUP2 PUSH2 0x401F JUMP JUMPDEST SWAP1 POP SWAP2 SWAP1 POP JUMP JUMPDEST PUSH32 0x596F7520616C72656164792068617665206120736869706D656E740000000000 PUSH1 0x0 DUP3 ADD MSTORE POP JUMP JUMPDEST PUSH1 0x0 PUSH2 0x4098 PUSH1 0x1B DUP4 PUSH2 0x2EFE JUMP JUMPDEST SWAP2 POP PUSH2 0x40A3 DUP3 PUSH2 0x4062 JUMP JUMPDEST PUSH1 0x20 DUP3 ADD SWAP1 POP SWAP2 SWAP1 POP JUMP JUMPDEST PUSH1 0x0 PUSH1 0x20 DUP3 ADD SWAP1 POP DUP2 DUP2 SUB PUSH1 0x0 DUP4 ADD MSTORE PUSH2 0x40C7 DUP2 PUSH2 0x408B JUMP JUMPDEST SWAP1 POP SWAP2 SWAP1 POP JUMP JUMPDEST PUSH32 0x50726F64756374206973206F7574206F662073746F636B000000000000000000 PUSH1 0x0 DUP3 ADD MSTORE POP JUMP JUMPDEST PUSH1 0x0 PUSH2 0x4104 PUSH1 0x17 DUP4 PUSH2 0x2EFE JUMP JUMPDEST SWAP2 POP PUSH2 0x410F DUP3 PUSH2 0x40CE JUMP JUMPDEST PUSH1 0x20 DUP3 ADD SWAP1 POP SWAP2 SWAP1 POP JUMP JUMPDEST PUSH1 0x0 PUSH1 0x20 DUP3 ADD SWAP1 POP DUP2 DUP2 SUB PUSH1 0x0 DUP4 ADD MSTORE PUSH2 0x4133 DUP2 PUSH2 0x40F7 JUMP JUMPDEST SWAP1 POP SWAP2 SWAP1 POP JUMP JUMPDEST PUSH32 0x496E73756666696369656E74207061796D656E7420666F7220746865206F7264 PUSH1 0x0 DUP3 ADD MSTORE PUSH32 0x6572000000000000000000000000000000000000000000000000000000000000 PUSH1 0x20 DUP3 ADD MSTORE POP JUMP JUMPDEST PUSH1 0x0 PUSH2 0x4196 PUSH1 0x22 DUP4 PUSH2 0x2EFE JUMP JUMPDEST SWAP2 POP PUSH2 0x41A1 DUP3 PUSH2 0x413A JUMP JUMPDEST PUSH1 0x40 DUP3 ADD SWAP1 POP SWAP2 SWAP1 POP JUMP JUMPDEST PUSH1 0x0 PUSH1 0x20 DUP3 ADD SWAP1 POP DUP2 DUP2 SUB PUSH1 0x0 DUP4 ADD MSTORE PUSH2 0x41C5 DUP2 PUSH2 0x4189 JUMP JUMPDEST SWAP1 POP SWAP2 SWAP1 POP JUMP JUMPDEST PUSH1 0x0 PUSH1 0x80 DUP3 ADD SWAP1 POP PUSH2 0x41E1 PUSH1 0x0 DUP4 ADD DUP8 PUSH2 0x2EE4 JUMP JUMPDEST DUP2 DUP2 SUB PUSH1 0x20 DUP4 ADD MSTORE PUSH2 0x41F3 DUP2 DUP7 PUSH2 0x2F4A JUMP JUMPDEST SWAP1 POP PUSH2 0x4202 PUSH1 0x40 DUP4 ADD DUP6 PUSH2 0x2EE4 JUMP JUMPDEST PUSH2 0x420F PUSH1 0x60 DUP4 ADD DUP5 PUSH2 0x2EE4 JUMP JUMPDEST SWAP6 SWAP5 POP POP POP POP POP JUMP JUMPDEST PUSH32 0x43616C6C6572206973206E6F7420616E2061646D696E00000000000000000000 PUSH1 0x0 DUP3 ADD MSTORE POP JUMP JUMPDEST PUSH1 0x0 PUSH2 0x424E PUSH1 0x16 DUP4 PUSH2 0x2EFE JUMP JUMPDEST SWAP2 POP PUSH2 0x4259 DUP3 PUSH2 0x4218 JUMP JUMPDEST PUSH1 0x20 DUP3 ADD SWAP1 POP SWAP2 SWAP1 POP JUMP JUMPDEST PUSH1 0x0 PUSH1 0x20 DUP3 ADD SWAP1 POP DUP2 DUP2 SUB PUSH1 0x0 DUP4 ADD MSTORE PUSH2 0x427D DUP2 PUSH2 0x4241 JUMP JUMPDEST SWAP1 POP SWAP2 SWAP1 POP JUMP JUMPDEST PUSH1 0x0 PUSH1 0x40 DUP3 ADD SWAP1 POP PUSH2 0x4299 PUSH1 0x0 DUP4 ADD DUP6 PUSH2 0x320A JUMP JUMPDEST PUSH2 0x42A6 PUSH1 0x20 DUP4 ADD DUP5 PUSH2 0x2D56 JUMP JUMPDEST SWAP4 SWAP3 POP POP POP JUMP INVALID LOG2 PUSH5 0x6970667358 0x22 SLT KECCAK256 DUP7 0xC0 BASEFEE 0xA5 PUSH7 0xF6EFCBC35EE76C SMOD 0xDB EXTCODECOPY RETURNDATASIZE 0xB5 DUP2 SMOD 0xC6 DUP11 0xD5 0xCA SWAP13 0x4B PUSH19 0x39EFBE4FA9B564736F6C634300081800330000 "},"methodIdentifiers":{"CONSUMER_ROLE()":"4bc02da6","DEFAULT_ADMIN_ROLE()":"a217fddf","LOGISTICS_ROLE()":"c602d3fb","MANUFACTURER_ROLE()":"965288b0","RETAILER_ROLE()":"2115e7bf","consumerPurchases(address,uint256)":"4734808c","createProduct(uint256,string,uint256,uint256)":"f4a44d2d","deliveryList(uint256)":"517b65e2","getAllConsumerPurchases(address)":"4a23024d","getAllDeliveries()":"8f00c315","getAllManufacturerProducts()":"fafa9800","getAllRetailerProducts()":"bc2ebf75","getRoleAdmin(bytes32)":"248a9ca3","grantRole(bytes32,address)":"2f2ff15d","hasRole(bytes32,address)":"91d14854","listProductForSale(uint256,uint256)":"b17fd27b","manufacturerAddress()":"f1f8ec43","manufacturerInventory(uint256)":"7762856e","orderProduct(uint256,uint256)":"b7df2fde","purchaseProduct(uint256,uint256)":"a0440426","receiveProduct(uint256)":"29d78328","renounceRole(bytes32,address)":"36568abe","requestDistribution(uint256,uint256)":"8b061960","retailerAddress()":"6de2aff6","retailerInventory(uint256)":"73971dee","revokeRole(bytes32,address)":"d547741f","setupRole(bytes32,address)":"fa82ac76","shipProduct(uint256,uint256)":"022ec688","supportsInterface(bytes4)":"01ffc9a7","verifyProductAuthenticity(uint256)":"767bdff1"}}}}}