{
  "_format": "hh-sol-artifact-1",
  "contractName": "SupplyChainManagement",
  "sourceName": "contracts/SupplyChainManagement.sol",
  "abi": [
    {
      "inputs": [
        {
          "internalType": "address",
          "name": "_manufacturer",
          "type": "address"
        },
        {
          "internalType": "address",
          "name": "_retailer",
          "type": "address"
        }
      ],
      "stateMutability": "nonpayable",
      "type": "constructor"
    },
    {
      "inputs": [],
      "name": "AccessControlBadConfirmation",
      "type": "error"
    },
    {
      "inputs": [
        {
          "internalType": "address",
          "name": "account",
          "type": "address"
        },
        {
          "internalType": "bytes32",
          "name": "neededRole",
          "type": "bytes32"
        }
      ],
      "name": "AccessControlUnauthorizedAccount",
      "type": "error"
    },
    {
      "anonymous": false,
      "inputs": [
        {
          "indexed": false,
          "internalType": "uint256",
          "name": "productId",
          "type": "uint256"
        }
      ],
      "name": "DistributionRequested",
      "type": "event"
    },
    {
      "anonymous": false,
      "inputs": [
        {
          "indexed": false,
          "internalType": "uint256",
          "name": "productId",
          "type": "uint256"
        },
        {
          "indexed": false,
          "internalType": "string",
          "name": "name",
          "type": "string"
        },
        {
          "indexed": false,
          "internalType": "uint256",
          "name": "price",
          "type": "uint256"
        },
        {
          "indexed": false,
          "internalType": "uint256",
          "name": "quantity",
          "type": "uint256"
        }
      ],
      "name": "ProductCreated",
      "type": "event"
    },
    {
      "anonymous": false,
      "inputs": [
        {
          "indexed": false,
          "internalType": "uint256",
          "name": "productId",
          "type": "uint256"
        },
        {
          "indexed": false,
          "internalType": "uint256",
          "name": "price",
          "type": "uint256"
        },
        {
          "indexed": false,
          "internalType": "address",
          "name": "listedBy",
          "type": "address"
        }
      ],
      "name": "ProductListedForSale",
      "type": "event"
    },
    {
      "anonymous": false,
      "inputs": [
        {
          "indexed": false,
          "internalType": "uint256",
          "name": "productId",
          "type": "uint256"
        },
        {
          "indexed": false,
          "internalType": "address",
          "name": "orderedBy",
          "type": "address"
        }
      ],
      "name": "ProductOrdered",
      "type": "event"
    },
    {
      "anonymous": false,
      "inputs": [
        {
          "indexed": false,
          "internalType": "uint256",
          "name": "productId",
          "type": "uint256"
        },
        {
          "indexed": false,
          "internalType": "uint256",
          "name": "quantity",
          "type": "uint256"
        },
        {
          "indexed": false,
          "internalType": "address",
          "name": "purchasedBy",
          "type": "address"
        }
      ],
      "name": "ProductPurchased",
      "type": "event"
    },
    {
      "anonymous": false,
      "inputs": [
        {
          "indexed": false,
          "internalType": "uint256",
          "name": "productId",
          "type": "uint256"
        },
        {
          "indexed": false,
          "internalType": "address",
          "name": "receivedBy",
          "type": "address"
        }
      ],
      "name": "ProductReceived",
      "type": "event"
    },
    {
      "anonymous": false,
      "inputs": [
        {
          "indexed": false,
          "internalType": "uint256",
          "name": "productId",
          "type": "uint256"
        }
      ],
      "name": "ProductShipped",
      "type": "event"
    },
    {
      "anonymous": false,
      "inputs": [
        {
          "indexed": true,
          "internalType": "bytes32",
          "name": "role",
          "type": "bytes32"
        },
        {
          "indexed": true,
          "internalType": "bytes32",
          "name": "previousAdminRole",
          "type": "bytes32"
        },
        {
          "indexed": true,
          "internalType": "bytes32",
          "name": "newAdminRole",
          "type": "bytes32"
        }
      ],
      "name": "RoleAdminChanged",
      "type": "event"
    },
    {
      "anonymous": false,
      "inputs": [
        {
          "indexed": true,
          "internalType": "bytes32",
          "name": "role",
          "type": "bytes32"
        },
        {
          "indexed": true,
          "internalType": "address",
          "name": "account",
          "type": "address"
        },
        {
          "indexed": true,
          "internalType": "address",
          "name": "sender",
          "type": "address"
        }
      ],
      "name": "RoleGranted",
      "type": "event"
    },
    {
      "anonymous": false,
      "inputs": [
        {
          "indexed": true,
          "internalType": "bytes32",
          "name": "role",
          "type": "bytes32"
        },
        {
          "indexed": true,
          "internalType": "address",
          "name": "account",
          "type": "address"
        },
        {
          "indexed": true,
          "internalType": "address",
          "name": "sender",
          "type": "address"
        }
      ],
      "name": "RoleRevoked",
      "type": "event"
    },
    {
      "anonymous": false,
      "inputs": [
        {
          "indexed": false,
          "internalType": "uint256",
          "name": "productId",
          "type": "uint256"
        },
        {
          "indexed": false,
          "internalType": "string",
          "name": "newStatus",
          "type": "string"
        }
      ],
      "name": "ShippingStatusUpdated",
      "type": "event"
    },
    {
      "inputs": [],
      "name": "CONSUMER_ROLE",
      "outputs": [
        {
          "internalType": "bytes32",
          "name": "",
          "type": "bytes32"
        }
      ],
      "stateMutability": "view",
      "type": "function"
    },
    {
      "inputs": [],
      "name": "DEFAULT_ADMIN_ROLE",
      "outputs": [
        {
          "internalType": "bytes32",
          "name": "",
          "type": "bytes32"
        }
      ],
      "stateMutability": "view",
      "type": "function"
    },
    {
      "inputs": [],
      "name": "LOGISTICS_ROLE",
      "outputs": [
        {
          "internalType": "bytes32",
          "name": "",
          "type": "bytes32"
        }
      ],
      "stateMutability": "view",
      "type": "function"
    },
    {
      "inputs": [],
      "name": "MANUFACTURER_ROLE",
      "outputs": [
        {
          "internalType": "bytes32",
          "name": "",
          "type": "bytes32"
        }
      ],
      "stateMutability": "view",
      "type": "function"
    },
    {
      "inputs": [],
      "name": "RETAILER_ROLE",
      "outputs": [
        {
          "internalType": "bytes32",
          "name": "",
          "type": "bytes32"
        }
      ],
      "stateMutability": "view",
      "type": "function"
    },
    {
      "inputs": [
        {
          "internalType": "address",
          "name": "",
          "type": "address"
        },
        {
          "internalType": "uint256",
          "name": "",
          "type": "uint256"
        }
      ],
      "name": "consumerPurchases",
      "outputs": [
        {
          "internalType": "uint256",
          "name": "id",
          "type": "uint256"
        },
        {
          "internalType": "string",
          "name": "name",
          "type": "string"
        },
        {
          "internalType": "uint256",
          "name": "price",
          "type": "uint256"
        },
        {
          "internalType": "uint256",
          "name": "quantity",
          "type": "uint256"
        },
        {
          "internalType": "bool",
          "name": "buyable",
          "type": "bool"
        }
      ],
      "stateMutability": "view",
      "type": "function"
    },
    {
      "inputs": [
        {
          "internalType": "uint256",
          "name": "productId",
          "type": "uint256"
        },
        {
          "internalType": "string",
          "name": "name",
          "type": "string"
        },
        {
          "internalType": "uint256",
          "name": "price",
          "type": "uint256"
        },
        {
          "internalType": "uint256",
          "name": "quantity",
          "type": "uint256"
        }
      ],
      "name": "createProduct",
      "outputs": [],
      "stateMutability": "nonpayable",
      "type": "function"
    },
    {
      "inputs": [
        {
          "internalType": "uint256",
          "name": "",
          "type": "uint256"
        }
      ],
      "name": "deliveryList",
      "outputs": [
        {
          "internalType": "uint256",
          "name": "id",
          "type": "uint256"
        },
        {
          "internalType": "string",
          "name": "status",
          "type": "string"
        },
        {
          "internalType": "uint256",
          "name": "quantity",
          "type": "uint256"
        }
      ],
      "stateMutability": "view",
      "type": "function"
    },
    {
      "inputs": [
        {
          "internalType": "address",
          "name": "consumer",
          "type": "address"
        }
      ],
      "name": "getAllConsumerPurchases",
      "outputs": [
        {
          "components": [
            {
              "internalType": "uint256",
              "name": "id",
              "type": "uint256"
            },
            {
              "internalType": "string",
              "name": "name",
              "type": "string"
            },
            {
              "internalType": "uint256",
              "name": "price",
              "type": "uint256"
            },
            {
              "internalType": "uint256",
              "name": "quantity",
              "type": "uint256"
            },
            {
              "internalType": "bool",
              "name": "buyable",
              "type": "bool"
            }
          ],
          "internalType": "struct SupplyChainManagement.Products[]",
          "name": "",
          "type": "tuple[]"
        }
      ],
      "stateMutability": "view",
      "type": "function"
    },
    {
      "inputs": [],
      "name": "getAllDeliveries",
      "outputs": [
        {
          "components": [
            {
              "internalType": "uint256",
              "name": "id",
              "type": "uint256"
            },
            {
              "internalType": "string",
              "name": "status",
              "type": "string"
            },
            {
              "internalType": "uint256",
              "name": "quantity",
              "type": "uint256"
            }
          ],
          "internalType": "struct SupplyChainManagement.Delivery[]",
          "name": "",
          "type": "tuple[]"
        }
      ],
      "stateMutability": "view",
      "type": "function"
    },
    {
      "inputs": [],
      "name": "getAllManufacturerProducts",
      "outputs": [
        {
          "components": [
            {
              "internalType": "uint256",
              "name": "id",
              "type": "uint256"
            },
            {
              "internalType": "string",
              "name": "name",
              "type": "string"
            },
            {
              "internalType": "uint256",
              "name": "price",
              "type": "uint256"
            },
            {
              "internalType": "uint256",
              "name": "quantity",
              "type": "uint256"
            },
            {
              "internalType": "bool",
              "name": "buyable",
              "type": "bool"
            }
          ],
          "internalType": "struct SupplyChainManagement.Products[]",
          "name": "",
          "type": "tuple[]"
        }
      ],
      "stateMutability": "view",
      "type": "function"
    },
    {
      "inputs": [],
      "name": "getAllRetailerProducts",
      "outputs": [
        {
          "components": [
            {
              "internalType": "uint256",
              "name": "id",
              "type": "uint256"
            },
            {
              "internalType": "string",
              "name": "name",
              "type": "string"
            },
            {
              "internalType": "uint256",
              "name": "price",
              "type": "uint256"
            },
            {
              "internalType": "uint256",
              "name": "quantity",
              "type": "uint256"
            },
            {
              "internalType": "bool",
              "name": "buyable",
              "type": "bool"
            }
          ],
          "internalType": "struct SupplyChainManagement.Products[]",
          "name": "",
          "type": "tuple[]"
        }
      ],
      "stateMutability": "view",
      "type": "function"
    },
    {
      "inputs": [
        {
          "internalType": "bytes32",
          "name": "role",
          "type": "bytes32"
        }
      ],
      "name": "getRoleAdmin",
      "outputs": [
        {
          "internalType": "bytes32",
          "name": "",
          "type": "bytes32"
        }
      ],
      "stateMutability": "view",
      "type": "function"
    },
    {
      "inputs": [
        {
          "internalType": "bytes32",
          "name": "role",
          "type": "bytes32"
        },
        {
          "internalType": "address",
          "name": "account",
          "type": "address"
        }
      ],
      "name": "grantRole",
      "outputs": [],
      "stateMutability": "nonpayable",
      "type": "function"
    },
    {
      "inputs": [
        {
          "internalType": "bytes32",
          "name": "role",
          "type": "bytes32"
        },
        {
          "internalType": "address",
          "name": "account",
          "type": "address"
        }
      ],
      "name": "hasRole",
      "outputs": [
        {
          "internalType": "bool",
          "name": "",
          "type": "bool"
        }
      ],
      "stateMutability": "view",
      "type": "function"
    },
    {
      "inputs": [
        {
          "internalType": "uint256",
          "name": "productId",
          "type": "uint256"
        },
        {
          "internalType": "uint256",
          "name": "price",
          "type": "uint256"
        }
      ],
      "name": "listProductForSale",
      "outputs": [],
      "stateMutability": "nonpayable",
      "type": "function"
    },
    {
      "inputs": [],
      "name": "manufacturerAddress",
      "outputs": [
        {
          "internalType": "address",
          "name": "",
          "type": "address"
        }
      ],
      "stateMutability": "view",
      "type": "function"
    },
    {
      "inputs": [
        {
          "internalType": "uint256",
          "name": "",
          "type": "uint256"
        }
      ],
      "name": "manufacturerInventory",
      "outputs": [
        {
          "internalType": "uint256",
          "name": "id",
          "type": "uint256"
        },
        {
          "internalType": "string",
          "name": "name",
          "type": "string"
        },
        {
          "internalType": "uint256",
          "name": "price",
          "type": "uint256"
        },
        {
          "internalType": "uint256",
          "name": "quantity",
          "type": "uint256"
        },
        {
          "internalType": "bool",
          "name": "buyable",
          "type": "bool"
        }
      ],
      "stateMutability": "view",
      "type": "function"
    },
    {
      "inputs": [
        {
          "internalType": "uint256",
          "name": "productId",
          "type": "uint256"
        },
        {
          "internalType": "uint256",
          "name": "quantity",
          "type": "uint256"
        }
      ],
      "name": "orderProduct",
      "outputs": [],
      "stateMutability": "payable",
      "type": "function"
    },
    {
      "inputs": [
        {
          "internalType": "uint256",
          "name": "productId",
          "type": "uint256"
        },
        {
          "internalType": "uint256",
          "name": "quantity",
          "type": "uint256"
        }
      ],
      "name": "purchaseProduct",
      "outputs": [],
      "stateMutability": "payable",
      "type": "function"
    },
    {
      "inputs": [
        {
          "internalType": "uint256",
          "name": "productId",
          "type": "uint256"
        }
      ],
      "name": "receiveProduct",
      "outputs": [],
      "stateMutability": "nonpayable",
      "type": "function"
    },
    {
      "inputs": [
        {
          "internalType": "bytes32",
          "name": "role",
          "type": "bytes32"
        },
        {
          "internalType": "address",
          "name": "callerConfirmation",
          "type": "address"
        }
      ],
      "name": "renounceRole",
      "outputs": [],
      "stateMutability": "nonpayable",
      "type": "function"
    },
    {
      "inputs": [
        {
          "internalType": "uint256",
          "name": "productId",
          "type": "uint256"
        },
        {
          "internalType": "uint256",
          "name": "quantity",
          "type": "uint256"
        }
      ],
      "name": "requestDistribution",
      "outputs": [],
      "stateMutability": "nonpayable",
      "type": "function"
    },
    {
      "inputs": [],
      "name": "retailerAddress",
      "outputs": [
        {
          "internalType": "address",
          "name": "",
          "type": "address"
        }
      ],
      "stateMutability": "view",
      "type": "function"
    },
    {
      "inputs": [
        {
          "internalType": "uint256",
          "name": "",
          "type": "uint256"
        }
      ],
      "name": "retailerInventory",
      "outputs": [
        {
          "internalType": "uint256",
          "name": "id",
          "type": "uint256"
        },
        {
          "internalType": "string",
          "name": "name",
          "type": "string"
        },
        {
          "internalType": "uint256",
          "name": "price",
          "type": "uint256"
        },
        {
          "internalType": "uint256",
          "name": "quantity",
          "type": "uint256"
        },
        {
          "internalType": "bool",
          "name": "buyable",
          "type": "bool"
        }
      ],
      "stateMutability": "view",
      "type": "function"
    },
    {
      "inputs": [
        {
          "internalType": "bytes32",
          "name": "role",
          "type": "bytes32"
        },
        {
          "internalType": "address",
          "name": "account",
          "type": "address"
        }
      ],
      "name": "revokeRole",
      "outputs": [],
      "stateMutability": "nonpayable",
      "type": "function"
    },
    {
      "inputs": [
        {
          "internalType": "bytes32",
          "name": "role",
          "type": "bytes32"
        },
        {
          "internalType": "address",
          "name": "account",
          "type": "address"
        }
      ],
      "name": "setupRole",
      "outputs": [],
      "stateMutability": "nonpayable",
      "type": "function"
    },
    {
      "inputs": [
        {
          "internalType": "uint256",
          "name": "productId",
          "type": "uint256"
        },
        {
          "internalType": "uint256",
          "name": "quantity",
          "type": "uint256"
        }
      ],
      "name": "shipProduct",
      "outputs": [],
      "stateMutability": "nonpayable",
      "type": "function"
    },
    {
      "inputs": [
        {
          "internalType": "bytes4",
          "name": "interfaceId",
          "type": "bytes4"
        }
      ],
      "name": "supportsInterface",
      "outputs": [
        {
          "internalType": "bool",
          "name": "",
          "type": "bool"
        }
      ],
      "stateMutability": "view",
      "type": "function"
    },
    {
      "inputs": [
        {
          "internalType": "uint256",
          "name": "productId",
          "type": "uint256"
        }
      ],
      "name": "verifyProductAuthenticity",
      "outputs": [
        {
          "internalType": "bool",
          "name": "isAuthentic",
          "type": "bool"
        },
        {
          "internalType": "bool",
          "name": "isAvailableForPurchase",
          "type": "bool"
        },
        {
          "internalType": "uint256",
          "name": "price",
          "type": "uint256"
        }
      ],
      "stateMutability": "view",
      "type": "function"
    }
  ],
  "bytecode": "0x60806040523480156200001157600080fd5b506040516200457e3803806200457e833981810160405281019062000037919062000360565b6200004c6000801b336200018160201b60201c565b5081600160006101000a81548173ffffffffffffffffffffffffffffffffffffffff021916908373ffffffffffffffffffffffffffffffffffffffff16021790555080600260006101000a81548173ffffffffffffffffffffffffffffffffffffffff021916908373ffffffffffffffffffffffffffffffffffffffff160217905550620001237feefb95e842a3287179d933b4460be539a1d5af11aa8b325bb45c5c8dc92de4ed600160009054906101000a900473ffffffffffffffffffffffffffffffffffffffff166200018160201b60201c565b50620001787f2a5f906c256a5d799494fcd066e1f6c077689de1cdb65052a1624de4bace99bf600260009054906101000a900473ffffffffffffffffffffffffffffffffffffffff166200018160201b60201c565b505050620003a7565b60006200019583836200028460201b60201c565b6200027957600160008085815260200190815260200160002060000160008473ffffffffffffffffffffffffffffffffffffffff1673ffffffffffffffffffffffffffffffffffffffff16815260200190815260200160002060006101000a81548160ff02191690831515021790555062000215620002ee60201b60201c565b73ffffffffffffffffffffffffffffffffffffffff168273ffffffffffffffffffffffffffffffffffffffff16847f2f8788117e7eff1d82e926ec794901d17c78024a50270940304540a733656f0d60405160405180910390a4600190506200027e565b600090505b92915050565b600080600084815260200190815260200160002060000160008373ffffffffffffffffffffffffffffffffffffffff1673ffffffffffffffffffffffffffffffffffffffff16815260200190815260200160002060009054906101000a900460ff16905092915050565b600033905090565b600080fd5b600073ffffffffffffffffffffffffffffffffffffffff82169050919050565b60006200032882620002fb565b9050919050565b6200033a816200031b565b81146200034657600080fd5b50565b6000815190506200035a816200032f565b92915050565b600080604083850312156200037a5762000379620002f6565b5b60006200038a8582860162000349565b92505060206200039d8582860162000349565b9150509250929050565b6141c780620003b76000396000f3fe6080604052600436106101cd5760003560e01c80638b061960116100f7578063b7df2fde11610095578063f1f8ec4311610064578063f1f8ec43146106b6578063f4a44d2d146106e1578063fa82ac761461070a578063fafa980014610733576101cd565b8063b7df2fde1461061b578063bc2ebf7514610637578063c602d3fb14610662578063d547741f1461068d576101cd565b8063965288b0116100d1578063965288b014610580578063a0440426146105ab578063a217fddf146105c7578063b17fd27b146105f2576101cd565b80638b061960146104ef5780638f00c3151461051857806391d1485414610543576101cd565b80634734808c1161016f5780636de2aff61161013e5780636de2aff61461040357806373971dee1461042e578063767bdff11461046f5780637762856e146104ae576101cd565b80634734808c1461031b5780634a23024d1461035c5780634bc02da614610399578063517b65e2146103c4576101cd565b8063248a9ca3116101ab578063248a9ca31461026357806329d78328146102a05780632f2ff15d146102c957806336568abe146102f2576101cd565b806301ffc9a7146101d2578063022ec6881461020f5780632115e7bf14610238575b600080fd5b3480156101de57600080fd5b506101f960048036038101906101f49190612b9f565b61075e565b6040516102069190612be7565b60405180910390f35b34801561021b57600080fd5b5061023660048036038101906102319190612c38565b6107d8565b005b34801561024457600080fd5b5061024d6109b0565b60405161025a9190612c91565b60405180910390f35b34801561026f57600080fd5b5061028a60048036038101906102859190612cd8565b6109d4565b6040516102979190612c91565b60405180910390f35b3480156102ac57600080fd5b506102c760048036038101906102c29190612d05565b6109f3565b005b3480156102d557600080fd5b506102f060048036038101906102eb9190612d90565b610d7b565b005b3480156102fe57600080fd5b5061031960048036038101906103149190612d90565b610d9d565b005b34801561032757600080fd5b50610342600480360381019061033d9190612dd0565b610e18565b604051610353959493929190612eaf565b60405180910390f35b34801561036857600080fd5b50610383600480360381019061037e9190612f09565b610ef0565b60405161039091906130d6565b60405180910390f35b3480156103a557600080fd5b506103ae6110e4565b6040516103bb9190612c91565b60405180910390f35b3480156103d057600080fd5b506103eb60048036038101906103e69190612d05565b611108565b6040516103fa939291906130f8565b60405180910390f35b34801561040f57600080fd5b506104186111ba565b6040516104259190613145565b60405180910390f35b34801561043a57600080fd5b5061045560048036038101906104509190612d05565b6111e0565b604051610466959493929190612eaf565b60405180910390f35b34801561047b57600080fd5b5061049660048036038101906104919190612d05565b6112ab565b6040516104a593929190613160565b60405180910390f35b3480156104ba57600080fd5b506104d560048036038101906104d09190612d05565b6113bd565b6040516104e6959493929190612eaf565b60405180910390f35b3480156104fb57600080fd5b5061051660048036038101906105119190612c38565b611488565b005b34801561052457600080fd5b5061052d611686565b60405161053a91906132a9565b60405180910390f35b34801561054f57600080fd5b5061056a60048036038101906105659190612d90565b61180a565b6040516105779190612be7565b60405180910390f35b34801561058c57600080fd5b50610595611874565b6040516105a29190612c91565b60405180910390f35b6105c560048036038101906105c09190612c38565b611898565b005b3480156105d357600080fd5b506105dc611d9e565b6040516105e99190612c91565b60405180910390f35b3480156105fe57600080fd5b5061061960048036038101906106149190612c38565b611da5565b005b61063560048036038101906106309190612c38565b611ef0565b005b34801561064357600080fd5b5061064c61224e565b60405161065991906130d6565b60405180910390f35b34801561066e57600080fd5b506106776123f7565b6040516106849190612c91565b60405180910390f35b34801561069957600080fd5b506106b460048036038101906106af9190612d90565b61241b565b005b3480156106c257600080fd5b506106cb61243d565b6040516106d89190613145565b60405180910390f35b3480156106ed57600080fd5b5061070860048036038101906107039190613400565b612463565b005b34801561071657600080fd5b50610731600480360381019061072c9190612d90565b612623565b005b34801561073f57600080fd5b5061074861267e565b60405161075591906130d6565b60405180910390f35b60007f7965db0b000000000000000000000000000000000000000000000000000000007bffffffffffffffffffffffffffffffffffffffffffffffffffffffff1916827bffffffffffffffffffffffffffffffffffffffffffffffffffffffff191614806107d157506107d082612827565b5b9050919050565b6108027fded9b5e0e0e3a2b3f09a0bc36ec64b9bf7a7c2319f3c4d9cff5ce48714257b213361180a565b610841576040517f08c379a0000000000000000000000000000000000000000000000000000000008152600401610838906134f5565b60405180910390fd5b60006005600084815260200190815260200160002090506040518060400160405280601281526020017f72656164795f666f725f736869706d656e74000000000000000000000000000081525080519060200120600760008581526020019081526020016000206001016040516108b89190613618565b604051809103902014610900576040517f08c379a00000000000000000000000000000000000000000000000000000000081526004016108f7906136a1565b60405180910390fd5b6040518060400160405280600781526020017f7368697070656400000000000000000000000000000000000000000000000000815250600760008581526020019081526020016000206001019081610958919061386d565b508181600301600082825461096d919061396e565b925050819055507ff91b0b39fbb56d78224050bb7e56777ee7aca5ed18ada91cc9c21677db7f9abe836040516109a391906139a2565b60405180910390a1505050565b7f2a5f906c256a5d799494fcd066e1f6c077689de1cdb65052a1624de4bace99bf81565b6000806000838152602001908152602001600020600101549050919050565b610a1d7f2a5f906c256a5d799494fcd066e1f6c077689de1cdb65052a1624de4bace99bf3361180a565b610a5c576040517f08c379a0000000000000000000000000000000000000000000000000000000008152600401610a5390613a09565b60405180910390fd5b6040518060400160405280600781526020017f73686970706564000000000000000000000000000000000000000000000000008152508051906020012060076000838152602001908152602001600020600101604051610abc9190613618565b604051809103902014610b04576040517f08c379a0000000000000000000000000000000000000000000000000000000008152600401610afb90613a75565b60405180910390fd5b6040518060400160405280600881526020017f7265636569766564000000000000000000000000000000000000000000000000815250600760008381526020019081526020016000206001019081610b5c919061386d565b50600060066000838152602001908152602001600020600301541115610bc4576007600082815260200190815260200160002060020154600660008381526020019081526020016000206003016000828254610bb89190613a95565b92505081905550610d23565b6040518060a00160405280828152602001600560008481526020019081526020016000206001018054610bf690613544565b80601f0160208091040260200160405190810160405280929190818152602001828054610c2290613544565b8015610c6f5780601f10610c4457610100808354040283529160200191610c6f565b820191906000526020600020905b815481529060010190602001808311610c5257829003601f168201915b5050505050815260200160056000848152602001908152602001600020600201548152602001600760008481526020019081526020016000206002015481526020016000151581525060066000838152602001908152602001600020600082015181600001556020820151816001019081610cea919061386d565b50604082015181600201556060820151816003015560808201518160040160006101000a81548160ff0219169083151502179055509050505b600060076000838152602001908152602001600020600201819055507f7eb38f83fec1bdc45e831c15e9e3eb2369028929a0e38e3709b7e710362f823b8133604051610d70929190613ac9565b60405180910390a150565b610d84826109d4565b610d8d81612891565b610d9783836128a5565b50505050565b610da5612996565b73ffffffffffffffffffffffffffffffffffffffff168173ffffffffffffffffffffffffffffffffffffffff1614610e09576040517f6697b23200000000000000000000000000000000000000000000000000000000815260040160405180910390fd5b610e13828261299e565b505050565b600460205281600052604060002060205280600052604060002060009150915050806000015490806001018054610e4e90613544565b80601f0160208091040260200160405190810160405280929190818152602001828054610e7a90613544565b8015610ec75780601f10610e9c57610100808354040283529160200191610ec7565b820191906000526020600020905b815481529060010190602001808311610eaa57829003601f168201915b5050505050908060020154908060030154908060040160009054906101000a900460ff16905085565b6060600060038054905067ffffffffffffffff811115610f1357610f126132d5565b5b604051908082528060200260200182016040528015610f4c57816020015b610f39612ae1565b815260200190600190039081610f315790505b50905060005b6003805490508110156110da57600060038281548110610f7557610f74613af2565b5b906000526020600020015490506000600460008773ffffffffffffffffffffffffffffffffffffffff1673ffffffffffffffffffffffffffffffffffffffff16815260200190815260200160002060008381526020019081526020016000209050806040518060a001604052908160008201548152602001600182018054610ffc90613544565b80601f016020809104026020016040519081016040528092919081815260200182805461102890613544565b80156110755780601f1061104a57610100808354040283529160200191611075565b820191906000526020600020905b81548152906001019060200180831161105857829003601f168201915b5050505050815260200160028201548152602001600382015481526020016004820160009054906101000a900460ff1615151515815250508484815181106110c0576110bf613af2565b5b602002602001018190525050508080600101915050610f52565b5080915050919050565b7f9d56108290ea0bc9c5c59c3ad357dca9d1b29ed7f3ae1443bef2fa2159bdf5e881565b600760205280600052604060002060009150905080600001549080600101805461113190613544565b80601f016020809104026020016040519081016040528092919081815260200182805461115d90613544565b80156111aa5780601f1061117f576101008083540402835291602001916111aa565b820191906000526020600020905b81548152906001019060200180831161118d57829003601f168201915b5050505050908060020154905083565b600260009054906101000a900473ffffffffffffffffffffffffffffffffffffffff1681565b600660205280600052604060002060009150905080600001549080600101805461120990613544565b80601f016020809104026020016040519081016040528092919081815260200182805461123590613544565b80156112825780601f1061125757610100808354040283529160200191611282565b820191906000526020600020905b81548152906001019060200180831161126557829003601f168201915b5050505050908060020154908060030154908060040160009054906101000a900460ff16905085565b600080600080600660008681526020019081526020016000206040518060a0016040529081600082015481526020016001820180546112e990613544565b80601f016020809104026020016040519081016040528092919081815260200182805461131590613544565b80156113625780601f1061133757610100808354040283529160200191611362565b820191906000526020600020905b81548152906001019060200180831161134557829003601f168201915b5050505050815260200160028201548152602001600382015481526020016004820160009054906101000a900460ff161515151581525050905060008160000151141593508060800151925080604001519150509193909250565b60056020528060005260406000206000915090508060000154908060010180546113e690613544565b80601f016020809104026020016040519081016040528092919081815260200182805461141290613544565b801561145f5780601f106114345761010080835404028352916020019161145f565b820191906000526020600020905b81548152906001019060200180831161144257829003601f168201915b5050505050908060020154908060030154908060040160009054906101000a900460ff16905085565b6114b27feefb95e842a3287179d933b4460be539a1d5af11aa8b325bb45c5c8dc92de4ed3361180a565b6114f1576040517f08c379a00000000000000000000000000000000000000000000000000000000081526004016114e890613b6d565b60405180910390fd5b806005600084815260200190815260200160002060030154101561154a576040517f08c379a000000000000000000000000000000000000000000000000000000000815260040161154190613bff565b60405180910390fd5b6040518060400160405280600781526020017f6f7264657265640000000000000000000000000000000000000000000000000081525080519060200120600760008481526020019081526020016000206001016040516115aa9190613618565b6040518091039020146115f2576040517f08c379a00000000000000000000000000000000000000000000000000000000081526004016115e990613c6b565b60405180910390fd5b6040518060400160405280601281526020017f72656164795f666f725f736869706d656e74000000000000000000000000000081525060076000848152602001908152602001600020600101908161164a919061386d565b507f378514350c4bbcf672d056c7987dd2d2c980ce4c582249530d8992acc682dc328260405161167a91906139a2565b60405180910390a15050565b6060600060038054905067ffffffffffffffff8111156116a9576116a86132d5565b5b6040519080825280602002602001820160405280156116e257816020015b6116cf612b12565b8152602001906001900390816116c75790505b50905060005b60038054905081101561180257600760006003838154811061170d5761170c613af2565b5b906000526020600020015481526020019081526020016000206040518060600160405290816000820154815260200160018201805461174b90613544565b80601f016020809104026020016040519081016040528092919081815260200182805461177790613544565b80156117c45780601f10611799576101008083540402835291602001916117c4565b820191906000526020600020905b8154815290600101906020018083116117a757829003601f168201915b505050505081526020016002820154815250508282815181106117ea576117e9613af2565b5b602002602001018190525080806001019150506116e8565b508091505090565b600080600084815260200190815260200160002060000160008373ffffffffffffffffffffffffffffffffffffffff1673ffffffffffffffffffffffffffffffffffffffff16815260200190815260200160002060009054906101000a900460ff16905092915050565b7feefb95e842a3287179d933b4460be539a1d5af11aa8b325bb45c5c8dc92de4ed81565b6118c27f9d56108290ea0bc9c5c59c3ad357dca9d1b29ed7f3ae1443bef2fa2159bdf5e83361180a565b611901576040517f08c379a00000000000000000000000000000000000000000000000000000000081526004016118f890613cd7565b60405180910390fd5b6000600660008481526020019081526020016000209050600115158160040160009054906101000a900460ff16151514611970576040517f08c379a000000000000000000000000000000000000000000000000000000000815260040161196790613d43565b60405180910390fd5b81816003015410156119b7576040517f08c379a00000000000000000000000000000000000000000000000000000000081526004016119ae90613dd5565b60405180910390fd5b60008282600201546119c99190613df5565b905080341015611a0e576040517f08c379a0000000000000000000000000000000000000000000000000000000008152600401611a0590613e83565b60405180910390fd5b6000600260009054906101000a900473ffffffffffffffffffffffffffffffffffffffff1690508073ffffffffffffffffffffffffffffffffffffffff166108fc839081150290604051600060405180830381858888f19350505050158015611a7b573d6000803e3d6000fd5b5083600660008781526020019081526020016000206003016000828254611aa2919061396e565b925050819055506000600460003373ffffffffffffffffffffffffffffffffffffffff1673ffffffffffffffffffffffffffffffffffffffff1681526020019081526020016000206000878152602001908152602001600020600301541115611b745783600460003373ffffffffffffffffffffffffffffffffffffffff1673ffffffffffffffffffffffffffffffffffffffff16815260200190815260200160002060008781526020019081526020016000206003016000828254611b689190613a95565b92505081905550611cfa565b6040518060a00160405280868152602001600660008881526020019081526020016000206001018054611ba690613544565b80601f0160208091040260200160405190810160405280929190818152602001828054611bd290613544565b8015611c1f5780601f10611bf457610100808354040283529160200191611c1f565b820191906000526020600020905b815481529060010190602001808311611c0257829003601f168201915b505050505081526020016006600088815260200190815260200160002060020154815260200185815260200160001515815250600460003373ffffffffffffffffffffffffffffffffffffffff1673ffffffffffffffffffffffffffffffffffffffff1681526020019081526020016000206000878152602001908152602001600020600082015181600001556020820151816001019081611cc1919061386d565b50604082015181600201556060820151816003015560808201518160040160006101000a81548160ff0219169083151502179055509050505b60008234611d08919061396e565b90506000811115611d5b573373ffffffffffffffffffffffffffffffffffffffff166108fc829081150290604051600060405180830381858888f19350505050158015611d59573d6000803e3d6000fd5b505b7fcf56b0adeb8d78b1faf3ec7294369603647cda5633357436d89fb3e653fabf81868633604051611d8e93929190613ea3565b60405180910390a1505050505050565b6000801b81565b611dcf7f2a5f906c256a5d799494fcd066e1f6c077689de1cdb65052a1624de4bace99bf3361180a565b611e0e576040517f08c379a0000000000000000000000000000000000000000000000000000000008152600401611e0590613a09565b60405180910390fd5b6000600660008481526020019081526020016000206003015411611e67576040517f08c379a0000000000000000000000000000000000000000000000000000000008152600401611e5e90613f26565b60405180910390fd5b80600660008481526020019081526020016000206002018190555060016006600084815260200190815260200160002060040160006101000a81548160ff0219169083151502179055507f6da9feac67ce606eb5bee1929fb74d4e88100968e5916777989bae5a95ec5871828233604051611ee493929190613ea3565b60405180910390a15050565b611f1a7f2a5f906c256a5d799494fcd066e1f6c077689de1cdb65052a1624de4bace99bf3361180a565b611f59576040517f08c379a0000000000000000000000000000000000000000000000000000000008152600401611f5090613a09565b60405180910390fd5b60006005600084815260200190815260200160002090506000600760008581526020019081526020016000206002015414611fc9576040517f08c379a0000000000000000000000000000000000000000000000000000000008152600401611fc090613f92565b60405180910390fd5b6000816003015411612010576040517f08c379a000000000000000000000000000000000000000000000000000000000815260040161200790613ffe565b60405180910390fd5b8181600301541015612057576040517f08c379a000000000000000000000000000000000000000000000000000000000815260040161204e90613bff565b60405180910390fd5b60008282600201546120699190613df5565b9050803410156120ae576040517f08c379a00000000000000000000000000000000000000000000000000000000081526004016120a590614090565b60405180910390fd5b60405180606001604052808581526020016040518060400160405280600781526020017f6f7264657265640000000000000000000000000000000000000000000000000081525081526020018481525060076000868152602001908152602001600020600082015181600001556020820151816001019081612130919061386d565b50604082015181600201559050506000600160009054906101000a900473ffffffffffffffffffffffffffffffffffffffff1690508073ffffffffffffffffffffffffffffffffffffffff166108fc839081150290604051600060405180830381858888f193505050501580156121ab573d6000803e3d6000fd5b50600082346121ba919061396e565b9050600081111561220d573373ffffffffffffffffffffffffffffffffffffffff166108fc829081150290604051600060405180830381858888f1935050505015801561220b573d6000803e3d6000fd5b505b7fce869fa07fbaaf0ef11ff2424d1408cf65cab69fc0fdc8af702b7e8b48441148863360405161223e929190613ac9565b60405180910390a1505050505050565b6060600060038054905067ffffffffffffffff811115612271576122706132d5565b5b6040519080825280602002602001820160405280156122aa57816020015b612297612ae1565b81526020019060019003908161228f5790505b50905060005b6003805490508110156123ef5760066000600383815481106122d5576122d4613af2565b5b906000526020600020015481526020019081526020016000206040518060a00160405290816000820154815260200160018201805461231390613544565b80601f016020809104026020016040519081016040528092919081815260200182805461233f90613544565b801561238c5780601f106123615761010080835404028352916020019161238c565b820191906000526020600020905b81548152906001019060200180831161236f57829003601f168201915b5050505050815260200160028201548152602001600382015481526020016004820160009054906101000a900460ff1615151515815250508282815181106123d7576123d6613af2565b5b602002602001018190525080806001019150506122b0565b508091505090565b7fded9b5e0e0e3a2b3f09a0bc36ec64b9bf7a7c2319f3c4d9cff5ce48714257b2181565b612424826109d4565b61242d81612891565b612437838361299e565b50505050565b600160009054906101000a900473ffffffffffffffffffffffffffffffffffffffff1681565b61248d7feefb95e842a3287179d933b4460be539a1d5af11aa8b325bb45c5c8dc92de4ed3361180a565b6124cc576040517f08c379a00000000000000000000000000000000000000000000000000000000081526004016124c390613b6d565b60405180910390fd5b600080600560008781526020019081526020016000206003015414905080156125b1576040518060a00160405280868152602001858152602001848152602001838152602001600015158152506005600087815260200190815260200160002060008201518160000155602082015181600101908161254b919061386d565b50604082015181600201556060820151816003015560808201518160040160006101000a81548160ff02191690831515021790555090505060038590806001815401808255809150506001900390600052602060002001600090919091909150556125df565b816005600087815260200190815260200160002060030160008282546125d79190613a95565b925050819055505b7f8d3d82130aebba03bb48b5d158bc2bbb4647856765b1089e7250507307965af98585858560405161261494939291906140b0565b60405180910390a15050505050565b6126306000801b3361180a565b61266f576040517f08c379a000000000000000000000000000000000000000000000000000000000815260040161266690614148565b60405180910390fd5b61267982826128a5565b505050565b6060600060038054905067ffffffffffffffff8111156126a1576126a06132d5565b5b6040519080825280602002602001820160405280156126da57816020015b6126c7612ae1565b8152602001906001900390816126bf5790505b50905060005b60038054905081101561281f57600560006003838154811061270557612704613af2565b5b906000526020600020015481526020019081526020016000206040518060a00160405290816000820154815260200160018201805461274390613544565b80601f016020809104026020016040519081016040528092919081815260200182805461276f90613544565b80156127bc5780601f10612791576101008083540402835291602001916127bc565b820191906000526020600020905b81548152906001019060200180831161279f57829003601f168201915b5050505050815260200160028201548152602001600382015481526020016004820160009054906101000a900460ff16151515158152505082828151811061280757612806613af2565b5b602002602001018190525080806001019150506126e0565b508091505090565b60007f01ffc9a7000000000000000000000000000000000000000000000000000000007bffffffffffffffffffffffffffffffffffffffffffffffffffffffff1916827bffffffffffffffffffffffffffffffffffffffffffffffffffffffff1916149050919050565b6128a28161289d612996565b612a90565b50565b60006128b1838361180a565b61298b57600160008085815260200190815260200160002060000160008473ffffffffffffffffffffffffffffffffffffffff1673ffffffffffffffffffffffffffffffffffffffff16815260200190815260200160002060006101000a81548160ff021916908315150217905550612928612996565b73ffffffffffffffffffffffffffffffffffffffff168273ffffffffffffffffffffffffffffffffffffffff16847f2f8788117e7eff1d82e926ec794901d17c78024a50270940304540a733656f0d60405160405180910390a460019050612990565b600090505b92915050565b600033905090565b60006129aa838361180a565b15612a8557600080600085815260200190815260200160002060000160008473ffffffffffffffffffffffffffffffffffffffff1673ffffffffffffffffffffffffffffffffffffffff16815260200190815260200160002060006101000a81548160ff021916908315150217905550612a22612996565b73ffffffffffffffffffffffffffffffffffffffff168273ffffffffffffffffffffffffffffffffffffffff16847ff6391f5c32d9c69d2a47ea670b442974b53935d1edc7fd64eb21e047a839171b60405160405180910390a460019050612a8a565b600090505b92915050565b612a9a828261180a565b612add5780826040517fe2517d3f000000000000000000000000000000000000000000000000000000008152600401612ad4929190614168565b60405180910390fd5b5050565b6040518060a00160405280600081526020016060815260200160008152602001600081526020016000151581525090565b60405180606001604052806000815260200160608152602001600081525090565b6000604051905090565b600080fd5b600080fd5b60007fffffffff0000000000000000000000000000000000000000000000000000000082169050919050565b612b7c81612b47565b8114612b8757600080fd5b50565b600081359050612b9981612b73565b92915050565b600060208284031215612bb557612bb4612b3d565b5b6000612bc384828501612b8a565b91505092915050565b60008115159050919050565b612be181612bcc565b82525050565b6000602082019050612bfc6000830184612bd8565b92915050565b6000819050919050565b612c1581612c02565b8114612c2057600080fd5b50565b600081359050612c3281612c0c565b92915050565b60008060408385031215612c4f57612c4e612b3d565b5b6000612c5d85828601612c23565b9250506020612c6e85828601612c23565b9150509250929050565b6000819050919050565b612c8b81612c78565b82525050565b6000602082019050612ca66000830184612c82565b92915050565b612cb581612c78565b8114612cc057600080fd5b50565b600081359050612cd281612cac565b92915050565b600060208284031215612cee57612ced612b3d565b5b6000612cfc84828501612cc3565b91505092915050565b600060208284031215612d1b57612d1a612b3d565b5b6000612d2984828501612c23565b91505092915050565b600073ffffffffffffffffffffffffffffffffffffffff82169050919050565b6000612d5d82612d32565b9050919050565b612d6d81612d52565b8114612d7857600080fd5b50565b600081359050612d8a81612d64565b92915050565b60008060408385031215612da757612da6612b3d565b5b6000612db585828601612cc3565b9250506020612dc685828601612d7b565b9150509250929050565b60008060408385031215612de757612de6612b3d565b5b6000612df585828601612d7b565b9250506020612e0685828601612c23565b9150509250929050565b612e1981612c02565b82525050565b600081519050919050565b600082825260208201905092915050565b60005b83811015612e59578082015181840152602081019050612e3e565b60008484015250505050565b6000601f19601f8301169050919050565b6000612e8182612e1f565b612e8b8185612e2a565b9350612e9b818560208601612e3b565b612ea481612e65565b840191505092915050565b600060a082019050612ec46000830188612e10565b8181036020830152612ed68187612e76565b9050612ee56040830186612e10565b612ef26060830185612e10565b612eff6080830184612bd8565b9695505050505050565b600060208284031215612f1f57612f1e612b3d565b5b6000612f2d84828501612d7b565b91505092915050565b600081519050919050565b600082825260208201905092915050565b6000819050602082019050919050565b612f6b81612c02565b82525050565b600082825260208201905092915050565b6000612f8d82612e1f565b612f978185612f71565b9350612fa7818560208601612e3b565b612fb081612e65565b840191505092915050565b612fc481612bcc565b82525050565b600060a083016000830151612fe26000860182612f62565b5060208301518482036020860152612ffa8282612f82565b915050604083015161300f6040860182612f62565b5060608301516130226060860182612f62565b5060808301516130356080860182612fbb565b508091505092915050565b600061304c8383612fca565b905092915050565b6000602082019050919050565b600061306c82612f36565b6130768185612f41565b93508360208202850161308885612f52565b8060005b858110156130c457848403895281516130a58582613040565b94506130b083613054565b925060208a0199505060018101905061308c565b50829750879550505050505092915050565b600060208201905081810360008301526130f08184613061565b905092915050565b600060608201905061310d6000830186612e10565b818103602083015261311f8185612e76565b905061312e6040830184612e10565b949350505050565b61313f81612d52565b82525050565b600060208201905061315a6000830184613136565b92915050565b60006060820190506131756000830186612bd8565b6131826020830185612bd8565b61318f6040830184612e10565b949350505050565b600081519050919050565b600082825260208201905092915050565b6000819050602082019050919050565b60006060830160008301516131db6000860182612f62565b50602083015184820360208601526131f38282612f82565b91505060408301516132086040860182612f62565b508091505092915050565b600061321f83836131c3565b905092915050565b6000602082019050919050565b600061323f82613197565b61324981856131a2565b93508360208202850161325b856131b3565b8060005b8581101561329757848403895281516132788582613213565b945061328383613227565b925060208a0199505060018101905061325f565b50829750879550505050505092915050565b600060208201905081810360008301526132c38184613234565b905092915050565b600080fd5b600080fd5b7f4e487b7100000000000000000000000000000000000000000000000000000000600052604160045260246000fd5b61330d82612e65565b810181811067ffffffffffffffff8211171561332c5761332b6132d5565b5b80604052505050565b600061333f612b33565b905061334b8282613304565b919050565b600067ffffffffffffffff82111561336b5761336a6132d5565b5b61337482612e65565b9050602081019050919050565b82818337600083830152505050565b60006133a361339e84613350565b613335565b9050828152602081018484840111156133bf576133be6132d0565b5b6133ca848285613381565b509392505050565b600082601f8301126133e7576133e66132cb565b5b81356133f7848260208601613390565b91505092915050565b6000806000806080858703121561341a57613419612b3d565b5b600061342887828801612c23565b945050602085013567ffffffffffffffff81111561344957613448612b42565b5b613455878288016133d2565b935050604061346687828801612c23565b925050606061347787828801612c23565b91505092959194509250565b7f43616c6c6572206973206e6f742061206c6f676973746963732070726f76696460008201527f6572000000000000000000000000000000000000000000000000000000000000602082015250565b60006134df602283612e2a565b91506134ea82613483565b604082019050919050565b6000602082019050818103600083015261350e816134d2565b9050919050565b7f4e487b7100000000000000000000000000000000000000000000000000000000600052602260045260246000fd5b6000600282049050600182168061355c57607f821691505b60208210810361356f5761356e613515565b5b50919050565b600081905092915050565b60008190508160005260206000209050919050565b600081546135a281613544565b6135ac8186613575565b945060018216600081146135c757600181146135dc5761360f565b60ff198316865281151582028601935061360f565b6135e585613580565b60005b83811015613607578154818901526001820191506020810190506135e8565b838801955050505b50505092915050565b60006136248284613595565b915081905092915050565b7f50726f64756374206973206e6f7420726561647920666f7220736869706d656e60008201527f7400000000000000000000000000000000000000000000000000000000000000602082015250565b600061368b602183612e2a565b91506136968261362f565b604082019050919050565b600060208201905081810360008301526136ba8161367e565b9050919050565b60008190508160005260206000209050919050565b60006020601f8301049050919050565b600082821b905092915050565b6000600883026137237fffffffffffffffffffffffffffffffffffffffffffffffffffffffffffffffff826136e6565b61372d86836136e6565b95508019841693508086168417925050509392505050565b6000819050919050565b600061376a61376561376084612c02565b613745565b612c02565b9050919050565b6000819050919050565b6137848361374f565b61379861379082613771565b8484546136f3565b825550505050565b600090565b6137ad6137a0565b6137b881848461377b565b505050565b5b818110156137dc576137d16000826137a5565b6001810190506137be565b5050565b601f821115613821576137f2816136c1565b6137fb846136d6565b8101602085101561380a578190505b61381e613816856136d6565b8301826137bd565b50505b505050565b600082821c905092915050565b600061384460001984600802613826565b1980831691505092915050565b600061385d8383613833565b9150826002028217905092915050565b61387682612e1f565b67ffffffffffffffff81111561388f5761388e6132d5565b5b6138998254613544565b6138a48282856137e0565b600060209050601f8311600181146138d757600084156138c5578287015190505b6138cf8582613851565b865550613937565b601f1984166138e5866136c1565b60005b8281101561390d578489015182556001820191506020850194506020810190506138e8565b8683101561392a5784890151613926601f891682613833565b8355505b6001600288020188555050505b505050505050565b7f4e487b7100000000000000000000000000000000000000000000000000000000600052601160045260246000fd5b600061397982612c02565b915061398483612c02565b925082820390508181111561399c5761399b61393f565b5b92915050565b60006020820190506139b76000830184612e10565b92915050565b7f43616c6c6572206973206e6f7420612072657461696c65720000000000000000600082015250565b60006139f3601883612e2a565b91506139fe826139bd565b602082019050919050565b60006020820190508181036000830152613a22816139e6565b9050919050565b7f50726f6475637420686173206e6f74206265656e207368697070656400000000600082015250565b6000613a5f601c83612e2a565b9150613a6a82613a29565b602082019050919050565b60006020820190508181036000830152613a8e81613a52565b9050919050565b6000613aa082612c02565b9150613aab83612c02565b9250828201905080821115613ac357613ac261393f565b5b92915050565b6000604082019050613ade6000830185612e10565b613aeb6020830184613136565b9392505050565b7f4e487b7100000000000000000000000000000000000000000000000000000000600052603260045260246000fd5b7f43616c6c6572206973206e6f742061206d616e75666163747572657200000000600082015250565b6000613b57601c83612e2a565b9150613b6282613b21565b602082019050919050565b60006020820190508181036000830152613b8681613b4a565b9050919050565b7f496e73756666696369656e74207175616e7469747920696e206d616e7566616360008201527f7475726572277320696e76656e746f7279000000000000000000000000000000602082015250565b6000613be9603183612e2a565b9150613bf482613b8d565b604082019050919050565b60006020820190508181036000830152613c1881613bdc565b9050919050565b7f4e6f206f7264657220666f72207468652070726f647563747300000000000000600082015250565b6000613c55601983612e2a565b9150613c6082613c1f565b602082019050919050565b60006020820190508181036000830152613c8481613c48565b9050919050565b7f43616c6c6572206973206e6f74206120636f6e73756d65720000000000000000600082015250565b6000613cc1601883612e2a565b9150613ccc82613c8b565b602082019050919050565b60006020820190508181036000830152613cf081613cb4565b9050919050565b7f50726f64756374206973206e6f7420666f722073616c65000000000000000000600082015250565b6000613d2d601783612e2a565b9150613d3882613cf7565b602082019050919050565b60006020820190508181036000830152613d5c81613d20565b9050919050565b7f4e6f7420656e6f7567682070726f6475637420617661696c61626c6520666f7260008201527f2070757263686173650000000000000000000000000000000000000000000000602082015250565b6000613dbf602983612e2a565b9150613dca82613d63565b604082019050919050565b60006020820190508181036000830152613dee81613db2565b9050919050565b6000613e0082612c02565b9150613e0b83612c02565b9250828202613e1981612c02565b91508282048414831517613e3057613e2f61393f565b5b5092915050565b7f496e73756666696369656e74207061796d656e74000000000000000000000000600082015250565b6000613e6d601483612e2a565b9150613e7882613e37565b602082019050919050565b60006020820190508181036000830152613e9c81613e60565b9050919050565b6000606082019050613eb86000830186612e10565b613ec56020830185612e10565b613ed26040830184613136565b949350505050565b7f4e6f206974656d20746f206c69737420666f722073616c650000000000000000600082015250565b6000613f10601883612e2a565b9150613f1b82613eda565b602082019050919050565b60006020820190508181036000830152613f3f81613f03565b9050919050565b7f596f7520616c72656164792068617665206120736869706d656e740000000000600082015250565b6000613f7c601b83612e2a565b9150613f8782613f46565b602082019050919050565b60006020820190508181036000830152613fab81613f6f565b9050919050565b7f50726f64756374206973206f7574206f662073746f636b000000000000000000600082015250565b6000613fe8601783612e2a565b9150613ff382613fb2565b602082019050919050565b6000602082019050818103600083015261401781613fdb565b9050919050565b7f496e73756666696369656e74207061796d656e7420666f7220746865206f726460008201527f6572000000000000000000000000000000000000000000000000000000000000602082015250565b600061407a602283612e2a565b91506140858261401e565b604082019050919050565b600060208201905081810360008301526140a98161406d565b9050919050565b60006080820190506140c56000830187612e10565b81810360208301526140d78186612e76565b90506140e66040830185612e10565b6140f36060830184612e10565b95945050505050565b7f43616c6c6572206973206e6f7420616e2061646d696e00000000000000000000600082015250565b6000614132601683612e2a565b915061413d826140fc565b602082019050919050565b6000602082019050818103600083015261416181614125565b9050919050565b600060408201905061417d6000830185613136565b61418a6020830184612c82565b939250505056fea26469706673582212209ec97905479b71c91814b1eb770499815421c5fb16f7bd9119e483f9aca119ab64736f6c63430008180033",
  "linkReferences": {},
  "deployedLinkReferences": {}
}