{
  "_format": "hh-sol-artifact-1",
  "contractName": "SupplyChainManagement",
  "sourceName": "contracts/SupplyChainManagement.sol",
  "abi": [
    {
      "inputs": [],
      "stateMutability": "nonpayable",
      "type": "constructor"
    },
    {
      "inputs": [],
      "name": "AccessControlBadConfirmation",
      "type": "error"
    },
    {
      "inputs": [
        {
          "internalType": "address",
          "name": "account",
          "type": "address"
        },
        {
          "internalType": "bytes32",
          "name": "neededRole",
          "type": "bytes32"
        }
      ],
      "name": "AccessControlUnauthorizedAccount",
      "type": "error"
    },
    {
      "anonymous": false,
      "inputs": [
        {
          "indexed": false,
          "internalType": "uint256",
          "name": "productId",
          "type": "uint256"
        }
      ],
      "name": "DistributionRequested",
      "type": "event"
    },
    {
      "anonymous": false,
      "inputs": [
        {
          "indexed": false,
          "internalType": "uint256",
          "name": "productId",
          "type": "uint256"
        },
        {
          "indexed": false,
          "internalType": "string",
          "name": "name",
          "type": "string"
        },
        {
          "indexed": false,
          "internalType": "uint256",
          "name": "price",
          "type": "uint256"
        }
      ],
      "name": "ProductCreated",
      "type": "event"
    },
    {
      "anonymous": false,
      "inputs": [
        {
          "indexed": false,
          "internalType": "uint256",
          "name": "productId",
          "type": "uint256"
        },
        {
          "indexed": false,
          "internalType": "uint256",
          "name": "price",
          "type": "uint256"
        },
        {
          "indexed": false,
          "internalType": "address",
          "name": "listedBy",
          "type": "address"
        }
      ],
      "name": "ProductListedForSale",
      "type": "event"
    },
    {
      "anonymous": false,
      "inputs": [
        {
          "indexed": false,
          "internalType": "uint256",
          "name": "productId",
          "type": "uint256"
        },
        {
          "indexed": false,
          "internalType": "address",
          "name": "orderedBy",
          "type": "address"
        }
      ],
      "name": "ProductOrdered",
      "type": "event"
    },
    {
      "anonymous": false,
      "inputs": [
        {
          "indexed": false,
          "internalType": "uint256",
          "name": "productId",
          "type": "uint256"
        },
        {
          "indexed": false,
          "internalType": "address",
          "name": "purchasedBy",
          "type": "address"
        }
      ],
      "name": "ProductPurchased",
      "type": "event"
    },
    {
      "anonymous": false,
      "inputs": [
        {
          "indexed": false,
          "internalType": "uint256",
          "name": "productId",
          "type": "uint256"
        },
        {
          "indexed": false,
          "internalType": "address",
          "name": "receivedBy",
          "type": "address"
        }
      ],
      "name": "ProductReceived",
      "type": "event"
    },
    {
      "anonymous": false,
      "inputs": [
        {
          "indexed": false,
          "internalType": "uint256",
          "name": "productId",
          "type": "uint256"
        }
      ],
      "name": "ProductShipped",
      "type": "event"
    },
    {
      "anonymous": false,
      "inputs": [
        {
          "indexed": true,
          "internalType": "bytes32",
          "name": "role",
          "type": "bytes32"
        },
        {
          "indexed": true,
          "internalType": "bytes32",
          "name": "previousAdminRole",
          "type": "bytes32"
        },
        {
          "indexed": true,
          "internalType": "bytes32",
          "name": "newAdminRole",
          "type": "bytes32"
        }
      ],
      "name": "RoleAdminChanged",
      "type": "event"
    },
    {
      "anonymous": false,
      "inputs": [
        {
          "indexed": true,
          "internalType": "bytes32",
          "name": "role",
          "type": "bytes32"
        },
        {
          "indexed": true,
          "internalType": "address",
          "name": "account",
          "type": "address"
        },
        {
          "indexed": true,
          "internalType": "address",
          "name": "sender",
          "type": "address"
        }
      ],
      "name": "RoleGranted",
      "type": "event"
    },
    {
      "anonymous": false,
      "inputs": [
        {
          "indexed": true,
          "internalType": "bytes32",
          "name": "role",
          "type": "bytes32"
        },
        {
          "indexed": true,
          "internalType": "address",
          "name": "account",
          "type": "address"
        },
        {
          "indexed": true,
          "internalType": "address",
          "name": "sender",
          "type": "address"
        }
      ],
      "name": "RoleRevoked",
      "type": "event"
    },
    {
      "anonymous": false,
      "inputs": [
        {
          "indexed": false,
          "internalType": "uint256",
          "name": "productId",
          "type": "uint256"
        },
        {
          "indexed": false,
          "internalType": "string",
          "name": "newStatus",
          "type": "string"
        }
      ],
      "name": "ShippingStatusUpdated",
      "type": "event"
    },
    {
      "inputs": [],
      "name": "CONSUMER_ROLE",
      "outputs": [
        {
          "internalType": "bytes32",
          "name": "",
          "type": "bytes32"
        }
      ],
      "stateMutability": "view",
      "type": "function"
    },
    {
      "inputs": [],
      "name": "DEFAULT_ADMIN_ROLE",
      "outputs": [
        {
          "internalType": "bytes32",
          "name": "",
          "type": "bytes32"
        }
      ],
      "stateMutability": "view",
      "type": "function"
    },
    {
      "inputs": [],
      "name": "LOGISTICS_ROLE",
      "outputs": [
        {
          "internalType": "bytes32",
          "name": "",
          "type": "bytes32"
        }
      ],
      "stateMutability": "view",
      "type": "function"
    },
    {
      "inputs": [],
      "name": "MANUFACTURER_ROLE",
      "outputs": [
        {
          "internalType": "bytes32",
          "name": "",
          "type": "bytes32"
        }
      ],
      "stateMutability": "view",
      "type": "function"
    },
    {
      "inputs": [],
      "name": "RETAILER_ROLE",
      "outputs": [
        {
          "internalType": "bytes32",
          "name": "",
          "type": "bytes32"
        }
      ],
      "stateMutability": "view",
      "type": "function"
    },
    {
      "inputs": [
        {
          "internalType": "uint256",
          "name": "productId",
          "type": "uint256"
        },
        {
          "internalType": "string",
          "name": "name",
          "type": "string"
        },
        {
          "internalType": "uint256",
          "name": "price",
          "type": "uint256"
        },
        {
          "internalType": "uint256",
          "name": "quantity",
          "type": "uint256"
        }
      ],
      "name": "createProduct",
      "outputs": [],
      "stateMutability": "nonpayable",
      "type": "function"
    },
    {
      "inputs": [
        {
          "internalType": "bytes32",
          "name": "role",
          "type": "bytes32"
        }
      ],
      "name": "getRoleAdmin",
      "outputs": [
        {
          "internalType": "bytes32",
          "name": "",
          "type": "bytes32"
        }
      ],
      "stateMutability": "view",
      "type": "function"
    },
    {
      "inputs": [
        {
          "internalType": "bytes32",
          "name": "role",
          "type": "bytes32"
        },
        {
          "internalType": "address",
          "name": "account",
          "type": "address"
        }
      ],
      "name": "grantRole",
      "outputs": [],
      "stateMutability": "nonpayable",
      "type": "function"
    },
    {
      "inputs": [
        {
          "internalType": "bytes32",
          "name": "role",
          "type": "bytes32"
        },
        {
          "internalType": "address",
          "name": "account",
          "type": "address"
        }
      ],
      "name": "hasRole",
      "outputs": [
        {
          "internalType": "bool",
          "name": "",
          "type": "bool"
        }
      ],
      "stateMutability": "view",
      "type": "function"
    },
    {
      "inputs": [
        {
          "internalType": "uint256",
          "name": "productId",
          "type": "uint256"
        },
        {
          "internalType": "uint256",
          "name": "price",
          "type": "uint256"
        },
        {
          "internalType": "uint256",
          "name": "quantity",
          "type": "uint256"
        }
      ],
      "name": "listProductForSale",
      "outputs": [],
      "stateMutability": "nonpayable",
      "type": "function"
    },
    {
      "inputs": [
        {
          "internalType": "uint256",
          "name": "productId",
          "type": "uint256"
        },
        {
          "internalType": "uint256",
          "name": "quantity",
          "type": "uint256"
        }
      ],
      "name": "orderProduct",
      "outputs": [],
      "stateMutability": "payable",
      "type": "function"
    },
    {
      "inputs": [
        {
          "internalType": "uint256",
          "name": "",
          "type": "uint256"
        }
      ],
      "name": "productInventory",
      "outputs": [
        {
          "internalType": "uint256",
          "name": "",
          "type": "uint256"
        }
      ],
      "stateMutability": "view",
      "type": "function"
    },
    {
      "inputs": [
        {
          "internalType": "uint256",
          "name": "",
          "type": "uint256"
        }
      ],
      "name": "products",
      "outputs": [
        {
          "internalType": "uint256",
          "name": "id",
          "type": "uint256"
        },
        {
          "internalType": "string",
          "name": "name",
          "type": "string"
        },
        {
          "internalType": "uint256",
          "name": "price",
          "type": "uint256"
        },
        {
          "internalType": "string",
          "name": "status",
          "type": "string"
        },
        {
          "internalType": "address",
          "name": "currentOwner",
          "type": "address"
        }
      ],
      "stateMutability": "view",
      "type": "function"
    },
    {
      "inputs": [
        {
          "internalType": "uint256",
          "name": "productId",
          "type": "uint256"
        },
        {
          "internalType": "uint256",
          "name": "quantity",
          "type": "uint256"
        }
      ],
      "name": "purchaseProduct",
      "outputs": [],
      "stateMutability": "payable",
      "type": "function"
    },
    {
      "inputs": [
        {
          "internalType": "uint256",
          "name": "productId",
          "type": "uint256"
        },
        {
          "internalType": "uint256",
          "name": "quantity",
          "type": "uint256"
        }
      ],
      "name": "receiveProduct",
      "outputs": [],
      "stateMutability": "nonpayable",
      "type": "function"
    },
    {
      "inputs": [
        {
          "internalType": "bytes32",
          "name": "role",
          "type": "bytes32"
        },
        {
          "internalType": "address",
          "name": "callerConfirmation",
          "type": "address"
        }
      ],
      "name": "renounceRole",
      "outputs": [],
      "stateMutability": "nonpayable",
      "type": "function"
    },
    {
      "inputs": [
        {
          "internalType": "uint256",
          "name": "productId",
          "type": "uint256"
        },
        {
          "internalType": "uint256",
          "name": "quantity",
          "type": "uint256"
        }
      ],
      "name": "requestDistribution",
      "outputs": [],
      "stateMutability": "nonpayable",
      "type": "function"
    },
    {
      "inputs": [
        {
          "internalType": "uint256",
          "name": "",
          "type": "uint256"
        }
      ],
      "name": "retailerInventory",
      "outputs": [
        {
          "internalType": "uint256",
          "name": "",
          "type": "uint256"
        }
      ],
      "stateMutability": "view",
      "type": "function"
    },
    {
      "inputs": [
        {
          "internalType": "bytes32",
          "name": "role",
          "type": "bytes32"
        },
        {
          "internalType": "address",
          "name": "account",
          "type": "address"
        }
      ],
      "name": "revokeRole",
      "outputs": [],
      "stateMutability": "nonpayable",
      "type": "function"
    },
    {
      "inputs": [
        {
          "internalType": "bytes32",
          "name": "role",
          "type": "bytes32"
        },
        {
          "internalType": "address",
          "name": "account",
          "type": "address"
        }
      ],
      "name": "setupRole",
      "outputs": [],
      "stateMutability": "nonpayable",
      "type": "function"
    },
    {
      "inputs": [
        {
          "internalType": "uint256",
          "name": "productId",
          "type": "uint256"
        },
        {
          "internalType": "uint256",
          "name": "quantity",
          "type": "uint256"
        }
      ],
      "name": "shipProduct",
      "outputs": [],
      "stateMutability": "nonpayable",
      "type": "function"
    },
    {
      "inputs": [
        {
          "internalType": "bytes4",
          "name": "interfaceId",
          "type": "bytes4"
        }
      ],
      "name": "supportsInterface",
      "outputs": [
        {
          "internalType": "bool",
          "name": "",
          "type": "bool"
        }
      ],
      "stateMutability": "view",
      "type": "function"
    },
    {
      "inputs": [
        {
          "internalType": "uint256",
          "name": "productId",
          "type": "uint256"
        },
        {
          "internalType": "string",
          "name": "newStatus",
          "type": "string"
        }
      ],
      "name": "updateShippingStatus",
      "outputs": [],
      "stateMutability": "nonpayable",
      "type": "function"
    },
    {
      "inputs": [
        {
          "internalType": "uint256",
          "name": "productId",
          "type": "uint256"
        }
      ],
      "name": "verifyProductAuthenticity",
      "outputs": [
        {
          "internalType": "bool",
          "name": "",
          "type": "bool"
        }
      ],
      "stateMutability": "view",
      "type": "function"
    }
  ],
  "bytecode": "0x6080604052600180553480156200001557600080fd5b506200002b6000801b336200009860201b60201c565b506200005e7feefb95e842a3287179d933b4460be539a1d5af11aa8b325bb45c5c8dc92de4ed336200009860201b60201c565b50620000917fded9b5e0e0e3a2b3f09a0bc36ec64b9bf7a7c2319f3c4d9cff5ce48714257b21336200009860201b60201c565b506200020d565b6000620000ac83836200019b60201b60201c565b6200019057600160008085815260200190815260200160002060000160008473ffffffffffffffffffffffffffffffffffffffff1673ffffffffffffffffffffffffffffffffffffffff16815260200190815260200160002060006101000a81548160ff0219169083151502179055506200012c6200020560201b60201c565b73ffffffffffffffffffffffffffffffffffffffff168273ffffffffffffffffffffffffffffffffffffffff16847f2f8788117e7eff1d82e926ec794901d17c78024a50270940304540a733656f0d60405160405180910390a46001905062000195565b600090505b92915050565b600080600084815260200190815260200160002060000160008373ffffffffffffffffffffffffffffffffffffffff1673ffffffffffffffffffffffffffffffffffffffff16815260200190815260200160002060009054906101000a900460ff16905092915050565b600033905090565b6137dc806200021d6000396000f3fe60806040526004361061014b5760003560e01c80637acc0b20116100b6578063b7df2fde1161006f578063b7df2fde146104bd578063c602d3fb146104d9578063d547741f14610504578063e32eca8d1461052d578063f4a44d2d14610556578063fa82ac761461057f5761014b565b80637acc0b20146103a45780638b061960146103e557806391d148541461040e578063965288b01461044b578063a044042614610476578063a217fddf146104925761014b565b80632f2ff15d116101085780632f2ff15d1461027057806336568abe146102995780634bc02da6146102c257806373971dee146102ed578063767bdff11461032a57806379d4e21a146103675761014b565b806301ffc9a714610150578063022ec6881461018d57806305ed81ab146101b6578063157e14cd146101df5780632115e7bf14610208578063248a9ca314610233575b600080fd5b34801561015c57600080fd5b5061017760048036038101906101729190612322565b6105a8565b604051610184919061236a565b60405180910390f35b34801561019957600080fd5b506101b460048036038101906101af91906123bb565b610622565b005b3480156101c257600080fd5b506101dd60048036038101906101d89190612541565b61084c565b005b3480156101eb57600080fd5b50610206600480360381019061020191906123bb565b610a2e565b005b34801561021457600080fd5b5061021d610ca4565b60405161022a91906125b6565b60405180910390f35b34801561023f57600080fd5b5061025a600480360381019061025591906125fd565b610cc8565b60405161026791906125b6565b60405180910390f35b34801561027c57600080fd5b5061029760048036038101906102929190612688565b610ce7565b005b3480156102a557600080fd5b506102c060048036038101906102bb9190612688565b610d09565b005b3480156102ce57600080fd5b506102d7610d84565b6040516102e491906125b6565b60405180910390f35b3480156102f957600080fd5b50610314600480360381019061030f91906126c8565b610da8565b6040516103219190612704565b60405180910390f35b34801561033657600080fd5b50610351600480360381019061034c91906126c8565b610dc0565b60405161035e919061236a565b60405180910390f35b34801561037357600080fd5b5061038e600480360381019061038991906126c8565b61100b565b60405161039b9190612704565b60405180910390f35b3480156103b057600080fd5b506103cb60048036038101906103c691906126c8565b611023565b6040516103dc9594939291906127ad565b60405180910390f35b3480156103f157600080fd5b5061040c600480360381019061040791906123bb565b611189565b005b34801561041a57600080fd5b5061043560048036038101906104309190612688565b611384565b604051610442919061236a565b60405180910390f35b34801561045757600080fd5b506104606113ee565b60405161046d91906125b6565b60405180910390f35b610490600480360381019061048b91906123bb565b611412565b005b34801561049e57600080fd5b506104a7611774565b6040516104b491906125b6565b60405180910390f35b6104d760048036038101906104d291906123bb565b61177b565b005b3480156104e557600080fd5b506104ee611aaf565b6040516104fb91906125b6565b60405180910390f35b34801561051057600080fd5b5061052b60048036038101906105269190612688565b611ad3565b005b34801561053957600080fd5b50610554600480360381019061054f919061280e565b611af5565b005b34801561056257600080fd5b5061057d60048036038101906105789190612861565b611d84565b005b34801561058b57600080fd5b506105a660048036038101906105a19190612688565b611fa1565b005b60007f7965db0b000000000000000000000000000000000000000000000000000000007bffffffffffffffffffffffffffffffffffffffffffffffffffffffff1916827bffffffffffffffffffffffffffffffffffffffffffffffffffffffff1916148061061b575061061a82611ffc565b5b9050919050565b61064c7fded9b5e0e0e3a2b3f09a0bc36ec64b9bf7a7c2319f3c4d9cff5ce48714257b2133611384565b61068b576040517f08c379a000000000000000000000000000000000000000000000000000000000815260040161068290612956565b60405180910390fd5b60006002600084815260200190815260200160002090506040518060400160405280601281526020017f72656164795f666f725f736869706d656e74000000000000000000000000000081525080519060200120600260008581526020019081526020016000206003016040516107029190612a79565b60405180910390201461074a576040517f08c379a000000000000000000000000000000000000000000000000000000000815260040161074190612b02565b60405180910390fd5b6040518060400160405280600781526020017f73686970706564000000000000000000000000000000000000000000000000008152506002600085815260200190815260200160002060030190816107a29190612cce565b50338160040160006101000a81548173ffffffffffffffffffffffffffffffffffffffff021916908373ffffffffffffffffffffffffffffffffffffffff160217905550816003600085815260200190815260200160002060008282546108099190612dcf565b925050819055507ff91b0b39fbb56d78224050bb7e56777ee7aca5ed18ada91cc9c21677db7f9abe8360405161083f9190612704565b60405180910390a1505050565b6108767fded9b5e0e0e3a2b3f09a0bc36ec64b9bf7a7c2319f3c4d9cff5ce48714257b2133611384565b6108b5576040517f08c379a00000000000000000000000000000000000000000000000000000000081526004016108ac90612956565b60405180910390fd5b6040518060400160405280600781526020017f736869707065640000000000000000000000000000000000000000000000000081525080519060200120600260008481526020019081526020016000206003016040516109159190612a79565b6040518091039020148061098e57506040518060400160405280600a81526020017f696e5f7472616e7369740000000000000000000000000000000000000000000081525080519060200120600260008481526020019081526020016000206003016040516109849190612a79565b6040518091039020145b6109cd576040517f08c379a00000000000000000000000000000000000000000000000000000000081526004016109c490612e75565b60405180910390fd5b806002600084815260200190815260200160002060030190816109f09190612cce565b507fb1bf5887d927993924a8c957a8c6b3e5215fab42e8f1ebc983dd818e0ba3a5ab8282604051610a22929190612e95565b60405180910390a15050565b610a587f2a5f906c256a5d799494fcd066e1f6c077689de1cdb65052a1624de4bace99bf33611384565b610a97576040517f08c379a0000000000000000000000000000000000000000000000000000000008152600401610a8e90612f11565b60405180910390fd5b60006002600084815260200190815260200160002090506040518060400160405280600781526020017f73686970706564000000000000000000000000000000000000000000000000008152508051906020012081600301604051610afc9190612a79565b604051809103902014610b44576040517f08c379a0000000000000000000000000000000000000000000000000000000008152600401610b3b90612f7d565b60405180910390fd5b81600560008581526020019081526020016000205414610b99576040517f08c379a0000000000000000000000000000000000000000000000000000000008152600401610b909061300f565b60405180910390fd5b6040518060400160405280600881526020017f7265636569766564000000000000000000000000000000000000000000000000815250816003019081610bdf9190612cce565b50338160040160006101000a81548173ffffffffffffffffffffffffffffffffffffffff021916908373ffffffffffffffffffffffffffffffffffffffff16021790555081600460008581526020019081526020016000206000828254610c46919061302f565b92505081905550600060056000858152602001908152602001600020819055507f7eb38f83fec1bdc45e831c15e9e3eb2369028929a0e38e3709b7e710362f823b8333604051610c97929190613063565b60405180910390a1505050565b7f2a5f906c256a5d799494fcd066e1f6c077689de1cdb65052a1624de4bace99bf81565b6000806000838152602001908152602001600020600101549050919050565b610cf082610cc8565b610cf981612066565b610d03838361207a565b50505050565b610d1161216b565b73ffffffffffffffffffffffffffffffffffffffff168173ffffffffffffffffffffffffffffffffffffffff1614610d75576040517f6697b23200000000000000000000000000000000000000000000000000000000815260040160405180910390fd5b610d7f8282612173565b505050565b7f9d56108290ea0bc9c5c59c3ad357dca9d1b29ed7f3ae1443bef2fa2159bdf5e881565b60046020528060005260406000206000915090505481565b600080600260008481526020019081526020016000206040518060a001604052908160008201548152602001600182018054610dfb906129a5565b80601f0160208091040260200160405190810160405280929190818152602001828054610e27906129a5565b8015610e745780601f10610e4957610100808354040283529160200191610e74565b820191906000526020600020905b815481529060010190602001808311610e5757829003601f168201915b5050505050815260200160028201548152602001600382018054610e97906129a5565b80601f0160208091040260200160405190810160405280929190818152602001828054610ec3906129a5565b8015610f105780601f10610ee557610100808354040283529160200191610f10565b820191906000526020600020905b815481529060010190602001808311610ef357829003601f168201915b505050505081526020016004820160009054906101000a900473ffffffffffffffffffffffffffffffffffffffff1673ffffffffffffffffffffffffffffffffffffffff1673ffffffffffffffffffffffffffffffffffffffff168152505090506040518060400160405280600881526020017f666f725f73616c6500000000000000000000000000000000000000000000000081525080519060200120816060015180519060200120148015610ff15750610ff07f2a5f906c256a5d799494fcd066e1f6c077689de1cdb65052a1624de4bace99bf8260800151611384565b5b15611000576001915050611006565b60009150505b919050565b60036020528060005260406000206000915090505481565b600260205280600052604060002060009150905080600001549080600101805461104c906129a5565b80601f0160208091040260200160405190810160405280929190818152602001828054611078906129a5565b80156110c55780601f1061109a576101008083540402835291602001916110c5565b820191906000526020600020905b8154815290600101906020018083116110a857829003601f168201915b5050505050908060020154908060030180546110e0906129a5565b80601f016020809104026020016040519081016040528092919081815260200182805461110c906129a5565b80156111595780601f1061112e57610100808354040283529160200191611159565b820191906000526020600020905b81548152906001019060200180831161113c57829003601f168201915b5050505050908060040160009054906101000a900473ffffffffffffffffffffffffffffffffffffffff16905085565b6111b37feefb95e842a3287179d933b4460be539a1d5af11aa8b325bb45c5c8dc92de4ed33611384565b6111f2576040517f08c379a00000000000000000000000000000000000000000000000000000000081526004016111e9906130d8565b60405180910390fd5b6040518060400160405280600781526020017f6f7264657265640000000000000000000000000000000000000000000000000081525080519060200120600260008481526020019081526020016000206003016040516112529190612a79565b60405180910390201461129a576040517f08c379a000000000000000000000000000000000000000000000000000000000815260040161129190613144565b60405180910390fd5b80600360008481526020019081526020016000205410156112f0576040517f08c379a00000000000000000000000000000000000000000000000000000000081526004016112e7906131d6565b60405180910390fd5b6040518060400160405280601281526020017f72656164795f666f725f736869706d656e7400000000000000000000000000008152506002600084815260200190815260200160002060030190816113489190612cce565b507f378514350c4bbcf672d056c7987dd2d2c980ce4c582249530d8992acc682dc32826040516113789190612704565b60405180910390a15050565b600080600084815260200190815260200160002060000160008373ffffffffffffffffffffffffffffffffffffffff1673ffffffffffffffffffffffffffffffffffffffff16815260200190815260200160002060009054906101000a900460ff16905092915050565b7feefb95e842a3287179d933b4460be539a1d5af11aa8b325bb45c5c8dc92de4ed81565b61143c7f9d56108290ea0bc9c5c59c3ad357dca9d1b29ed7f3ae1443bef2fa2159bdf5e833611384565b61147b576040517f08c379a000000000000000000000000000000000000000000000000000000000815260040161147290613242565b60405180910390fd5b60006002600084815260200190815260200160002090506040518060400160405280600881526020017f666f725f73616c6500000000000000000000000000000000000000000000000081525080519060200120816003016040516114e09190612a79565b604051809103902014611528576040517f08c379a000000000000000000000000000000000000000000000000000000000815260040161151f906132ae565b60405180910390fd5b816004600085815260200190815260200160002054101561157e576040517f08c379a000000000000000000000000000000000000000000000000000000000815260040161157590613340565b60405180910390fd5b60008282600201546115909190613360565b9050803410156115d5576040517f08c379a00000000000000000000000000000000000000000000000000000000081526004016115cc906133ee565b60405180910390fd5b60008260040160009054906101000a900473ffffffffffffffffffffffffffffffffffffffff1690508073ffffffffffffffffffffffffffffffffffffffff166108fc839081150290604051600060405180830381858888f19350505050158015611644573d6000803e3d6000fd5b50836004600087815260200190815260200160002060008282546116689190612dcf565b925050819055506000823461167d9190612dcf565b905060008111156116d0573373ffffffffffffffffffffffffffffffffffffffff166108fc829081150290604051600060405180830381858888f193505050501580156116ce573d6000803e3d6000fd5b505b6000600460008881526020019081526020016000205403611733576040518060400160405280600881526020017f736f6c645f6f75740000000000000000000000000000000000000000000000008152508460030190816117319190612cce565b505b7f9ad4ecfaf27ea0cbeebee0ed92fe15c8a84975f1e3d45ccfc526d7751dcf98ff8633604051611764929190613063565b60405180910390a1505050505050565b6000801b81565b6117a57f2a5f906c256a5d799494fcd066e1f6c077689de1cdb65052a1624de4bace99bf33611384565b6117e4576040517f08c379a00000000000000000000000000000000000000000000000000000000081526004016117db90612f11565b60405180910390fd5b60006002600084815260200190815260200160002090506040518060400160405280600781526020017f637265617465640000000000000000000000000000000000000000000000000081525080519060200120816003016040516118499190612a79565b604051809103902014611891576040517f08c379a000000000000000000000000000000000000000000000000000000000815260040161188890613480565b60405180910390fd5b81600360008581526020019081526020016000205410156118e7576040517f08c379a00000000000000000000000000000000000000000000000000000000081526004016118de906131d6565b60405180910390fd5b60008282600201546118f99190613360565b90508034101561193e576040517f08c379a000000000000000000000000000000000000000000000000000000000815260040161193590613512565b60405180910390fd5b6040518060400160405280600781526020017f6f726465726564000000000000000000000000000000000000000000000000008152508260030190816119849190612cce565b5082600560008681526020019081526020016000208190555060008260040160009054906101000a900473ffffffffffffffffffffffffffffffffffffffff1690508073ffffffffffffffffffffffffffffffffffffffff166108fc839081150290604051600060405180830381858888f19350505050158015611a0c573d6000803e3d6000fd5b5060008234611a1b9190612dcf565b90506000811115611a6e573373ffffffffffffffffffffffffffffffffffffffff166108fc829081150290604051600060405180830381858888f19350505050158015611a6c573d6000803e3d6000fd5b505b7fce869fa07fbaaf0ef11ff2424d1408cf65cab69fc0fdc8af702b7e8b484411488633604051611a9f929190613063565b60405180910390a1505050505050565b7fded9b5e0e0e3a2b3f09a0bc36ec64b9bf7a7c2319f3c4d9cff5ce48714257b2181565b611adc82610cc8565b611ae581612066565b611aef8383612173565b50505050565b611b1f7f2a5f906c256a5d799494fcd066e1f6c077689de1cdb65052a1624de4bace99bf33611384565b611b5e576040517f08c379a0000000000000000000000000000000000000000000000000000000008152600401611b5590612f11565b60405180910390fd5b60006002600085815260200190815260200160002090503373ffffffffffffffffffffffffffffffffffffffff168160040160009054906101000a900473ffffffffffffffffffffffffffffffffffffffff1673ffffffffffffffffffffffffffffffffffffffff1614611c07576040517f08c379a0000000000000000000000000000000000000000000000000000000008152600401611bfe9061357e565b60405180910390fd5b6040518060400160405280600881526020017f72656365697665640000000000000000000000000000000000000000000000008152508051906020012081600301604051611c559190612a79565b604051809103902014611c9d576040517f08c379a0000000000000000000000000000000000000000000000000000000008152600401611c94906135ea565b60405180910390fd5b8160046000868152602001908152602001600020541015611cf3576040517f08c379a0000000000000000000000000000000000000000000000000000000008152600401611cea9061367c565b60405180910390fd5b8281600201819055506040518060400160405280600881526020017f666f725f73616c65000000000000000000000000000000000000000000000000815250816003019081611d429190612cce565b507f6da9feac67ce606eb5bee1929fb74d4e88100968e5916777989bae5a95ec5871848433604051611d769392919061369c565b60405180910390a150505050565b611dae7feefb95e842a3287179d933b4460be539a1d5af11aa8b325bb45c5c8dc92de4ed33611384565b611ded576040517f08c379a0000000000000000000000000000000000000000000000000000000008152600401611de4906130d8565b60405180910390fd5b6040518060a001604052808581526020018481526020018381526020016040518060400160405280600781526020017f637265617465640000000000000000000000000000000000000000000000000081525081526020013373ffffffffffffffffffffffffffffffffffffffff1681525060026000868152602001908152602001600020600082015181600001556020820151816001019081611e919190612cce565b50604082015181600201556060820151816003019081611eb19190612cce565b5060808201518160040160006101000a81548173ffffffffffffffffffffffffffffffffffffffff021916908373ffffffffffffffffffffffffffffffffffffffff160217905550905050600060036000868152602001908152602001600020541115611f475780600360008681526020019081526020016000206000828254611f3b919061302f565b92505081905550611f60565b8060036000868152602001908152602001600020819055505b7f418d4005ee80a6584eef7f51de08850f7f79c3e7b464f15ef3f236423d964b08848484604051611f93939291906136d3565b60405180910390a150505050565b611fae6000801b33611384565b611fed576040517f08c379a0000000000000000000000000000000000000000000000000000000008152600401611fe49061375d565b60405180910390fd5b611ff7828261207a565b505050565b60007f01ffc9a7000000000000000000000000000000000000000000000000000000007bffffffffffffffffffffffffffffffffffffffffffffffffffffffff1916827bffffffffffffffffffffffffffffffffffffffffffffffffffffffff1916149050919050565b6120778161207261216b565b612265565b50565b60006120868383611384565b61216057600160008085815260200190815260200160002060000160008473ffffffffffffffffffffffffffffffffffffffff1673ffffffffffffffffffffffffffffffffffffffff16815260200190815260200160002060006101000a81548160ff0219169083151502179055506120fd61216b565b73ffffffffffffffffffffffffffffffffffffffff168273ffffffffffffffffffffffffffffffffffffffff16847f2f8788117e7eff1d82e926ec794901d17c78024a50270940304540a733656f0d60405160405180910390a460019050612165565b600090505b92915050565b600033905090565b600061217f8383611384565b1561225a57600080600085815260200190815260200160002060000160008473ffffffffffffffffffffffffffffffffffffffff1673ffffffffffffffffffffffffffffffffffffffff16815260200190815260200160002060006101000a81548160ff0219169083151502179055506121f761216b565b73ffffffffffffffffffffffffffffffffffffffff168273ffffffffffffffffffffffffffffffffffffffff16847ff6391f5c32d9c69d2a47ea670b442974b53935d1edc7fd64eb21e047a839171b60405160405180910390a46001905061225f565b600090505b92915050565b61226f8282611384565b6122b25780826040517fe2517d3f0000000000000000000000000000000000000000000000000000000081526004016122a992919061377d565b60405180910390fd5b5050565b6000604051905090565b600080fd5b600080fd5b60007fffffffff0000000000000000000000000000000000000000000000000000000082169050919050565b6122ff816122ca565b811461230a57600080fd5b50565b60008135905061231c816122f6565b92915050565b600060208284031215612338576123376122c0565b5b60006123468482850161230d565b91505092915050565b60008115159050919050565b6123648161234f565b82525050565b600060208201905061237f600083018461235b565b92915050565b6000819050919050565b61239881612385565b81146123a357600080fd5b50565b6000813590506123b58161238f565b92915050565b600080604083850312156123d2576123d16122c0565b5b60006123e0858286016123a6565b92505060206123f1858286016123a6565b9150509250929050565b600080fd5b600080fd5b6000601f19601f8301169050919050565b7f4e487b7100000000000000000000000000000000000000000000000000000000600052604160045260246000fd5b61244e82612405565b810181811067ffffffffffffffff8211171561246d5761246c612416565b5b80604052505050565b60006124806122b6565b905061248c8282612445565b919050565b600067ffffffffffffffff8211156124ac576124ab612416565b5b6124b582612405565b9050602081019050919050565b82818337600083830152505050565b60006124e46124df84612491565b612476565b905082815260208101848484011115612500576124ff612400565b5b61250b8482856124c2565b509392505050565b600082601f830112612528576125276123fb565b5b81356125388482602086016124d1565b91505092915050565b60008060408385031215612558576125576122c0565b5b6000612566858286016123a6565b925050602083013567ffffffffffffffff811115612587576125866122c5565b5b61259385828601612513565b9150509250929050565b6000819050919050565b6125b08161259d565b82525050565b60006020820190506125cb60008301846125a7565b92915050565b6125da8161259d565b81146125e557600080fd5b50565b6000813590506125f7816125d1565b92915050565b600060208284031215612613576126126122c0565b5b6000612621848285016125e8565b91505092915050565b600073ffffffffffffffffffffffffffffffffffffffff82169050919050565b60006126558261262a565b9050919050565b6126658161264a565b811461267057600080fd5b50565b6000813590506126828161265c565b92915050565b6000806040838503121561269f5761269e6122c0565b5b60006126ad858286016125e8565b92505060206126be85828601612673565b9150509250929050565b6000602082840312156126de576126dd6122c0565b5b60006126ec848285016123a6565b91505092915050565b6126fe81612385565b82525050565b600060208201905061271960008301846126f5565b92915050565b600081519050919050565b600082825260208201905092915050565b60005b8381101561275957808201518184015260208101905061273e565b60008484015250505050565b60006127708261271f565b61277a818561272a565b935061278a81856020860161273b565b61279381612405565b840191505092915050565b6127a78161264a565b82525050565b600060a0820190506127c260008301886126f5565b81810360208301526127d48187612765565b90506127e360408301866126f5565b81810360608301526127f58185612765565b9050612804608083018461279e565b9695505050505050565b600080600060608486031215612827576128266122c0565b5b6000612835868287016123a6565b9350506020612846868287016123a6565b9250506040612857868287016123a6565b9150509250925092565b6000806000806080858703121561287b5761287a6122c0565b5b6000612889878288016123a6565b945050602085013567ffffffffffffffff8111156128aa576128a96122c5565b5b6128b687828801612513565b93505060406128c7878288016123a6565b92505060606128d8878288016123a6565b91505092959194509250565b7f43616c6c6572206973206e6f742061206c6f676973746963732070726f76696460008201527f6572000000000000000000000000000000000000000000000000000000000000602082015250565b600061294060228361272a565b915061294b826128e4565b604082019050919050565b6000602082019050818103600083015261296f81612933565b9050919050565b7f4e487b7100000000000000000000000000000000000000000000000000000000600052602260045260246000fd5b600060028204905060018216806129bd57607f821691505b6020821081036129d0576129cf612976565b5b50919050565b600081905092915050565b60008190508160005260206000209050919050565b60008154612a03816129a5565b612a0d81866129d6565b94506001821660008114612a285760018114612a3d57612a70565b60ff1983168652811515820286019350612a70565b612a46856129e1565b60005b83811015612a6857815481890152600182019150602081019050612a49565b838801955050505b50505092915050565b6000612a8582846129f6565b915081905092915050565b7f50726f64756374206973206e6f7420726561647920666f7220736869706d656e60008201527f7400000000000000000000000000000000000000000000000000000000000000602082015250565b6000612aec60218361272a565b9150612af782612a90565b604082019050919050565b60006020820190508181036000830152612b1b81612adf565b9050919050565b60008190508160005260206000209050919050565b60006020601f8301049050919050565b600082821b905092915050565b600060088302612b847fffffffffffffffffffffffffffffffffffffffffffffffffffffffffffffffff82612b47565b612b8e8683612b47565b95508019841693508086168417925050509392505050565b6000819050919050565b6000612bcb612bc6612bc184612385565b612ba6565b612385565b9050919050565b6000819050919050565b612be583612bb0565b612bf9612bf182612bd2565b848454612b54565b825550505050565b600090565b612c0e612c01565b612c19818484612bdc565b505050565b5b81811015612c3d57612c32600082612c06565b600181019050612c1f565b5050565b601f821115612c8257612c5381612b22565b612c5c84612b37565b81016020851015612c6b578190505b612c7f612c7785612b37565b830182612c1e565b50505b505050565b600082821c905092915050565b6000612ca560001984600802612c87565b1980831691505092915050565b6000612cbe8383612c94565b9150826002028217905092915050565b612cd78261271f565b67ffffffffffffffff811115612cf057612cef612416565b5b612cfa82546129a5565b612d05828285612c41565b600060209050601f831160018114612d385760008415612d26578287015190505b612d308582612cb2565b865550612d98565b601f198416612d4686612b22565b60005b82811015612d6e57848901518255600182019150602085019450602081019050612d49565b86831015612d8b5784890151612d87601f891682612c94565b8355505b6001600288020188555050505b505050505050565b7f4e487b7100000000000000000000000000000000000000000000000000000000600052601160045260246000fd5b6000612dda82612385565b9150612de583612385565b9250828203905081811115612dfd57612dfc612da0565b5b92915050565b7f50726f64756374206973206e6f742073686970706564206f7220696e2074726160008201527f6e73697400000000000000000000000000000000000000000000000000000000602082015250565b6000612e5f60248361272a565b9150612e6a82612e03565b604082019050919050565b60006020820190508181036000830152612e8e81612e52565b9050919050565b6000604082019050612eaa60008301856126f5565b8181036020830152612ebc8184612765565b90509392505050565b7f43616c6c6572206973206e6f7420612072657461696c65720000000000000000600082015250565b6000612efb60188361272a565b9150612f0682612ec5565b602082019050919050565b60006020820190508181036000830152612f2a81612eee565b9050919050565b7f50726f6475637420686173206e6f74206265656e207368697070656400000000600082015250565b6000612f67601c8361272a565b9150612f7282612f31565b602082019050919050565b60006020820190508181036000830152612f9681612f5a565b9050919050565b7f5265636569766564207175616e7469747920646f6573206e6f74206d6174636860008201527f20746865206f726465726564207175616e746974790000000000000000000000602082015250565b6000612ff960358361272a565b915061300482612f9d565b604082019050919050565b6000602082019050818103600083015261302881612fec565b9050919050565b600061303a82612385565b915061304583612385565b925082820190508082111561305d5761305c612da0565b5b92915050565b600060408201905061307860008301856126f5565b613085602083018461279e565b9392505050565b7f43616c6c6572206973206e6f742061206d616e75666163747572657200000000600082015250565b60006130c2601c8361272a565b91506130cd8261308c565b602082019050919050565b600060208201905081810360008301526130f1816130b5565b9050919050565b7f4e6f206f7264657220666f72207468652070726f647563747300000000000000600082015250565b600061312e60198361272a565b9150613139826130f8565b602082019050919050565b6000602082019050818103600083015261315d81613121565b9050919050565b7f496e73756666696369656e74207175616e7469747920696e206d616e7566616360008201527f7475726572277320696e76656e746f7279000000000000000000000000000000602082015250565b60006131c060318361272a565b91506131cb82613164565b604082019050919050565b600060208201905081810360008301526131ef816131b3565b9050919050565b7f43616c6c6572206973206e6f74206120636f6e73756d65720000000000000000600082015250565b600061322c60188361272a565b9150613237826131f6565b602082019050919050565b6000602082019050818103600083015261325b8161321f565b9050919050565b7f50726f64756374206973206e6f7420666f722073616c65000000000000000000600082015250565b600061329860178361272a565b91506132a382613262565b602082019050919050565b600060208201905081810360008301526132c78161328b565b9050919050565b7f4e6f7420656e6f7567682070726f6475637420617661696c61626c6520666f7260008201527f2070757263686173650000000000000000000000000000000000000000000000602082015250565b600061332a60298361272a565b9150613335826132ce565b604082019050919050565b600060208201905081810360008301526133598161331d565b9050919050565b600061336b82612385565b915061337683612385565b925082820261338481612385565b9150828204841483151761339b5761339a612da0565b5b5092915050565b7f496e73756666696369656e74207061796d656e74000000000000000000000000600082015250565b60006133d860148361272a565b91506133e3826133a2565b602082019050919050565b60006020820190508181036000830152613407816133cb565b9050919050565b7f50726f64756374206973206e6f7420696e20746865202763726561746564272060008201527f7374617465000000000000000000000000000000000000000000000000000000602082015250565b600061346a60258361272a565b91506134758261340e565b604082019050919050565b600060208201905081810360008301526134998161345d565b9050919050565b7f496e73756666696369656e74207061796d656e7420666f7220746865206f726460008201527f6572000000000000000000000000000000000000000000000000000000000000602082015250565b60006134fc60228361272a565b9150613507826134a0565b604082019050919050565b6000602082019050818103600083015261352b816134ef565b9050919050565b7f43616c6c657220646f6573206e6f74206f776e207468652070726f6475637400600082015250565b6000613568601f8361272a565b915061357382613532565b602082019050919050565b600060208201905081810360008301526135978161355b565b9050919050565b7f50726f64756374206973206e6f74207265636569766564000000000000000000600082015250565b60006135d460178361272a565b91506135df8261359e565b602082019050919050565b60006020820190508181036000830152613603816135c7565b9050919050565b7f496e73756666696369656e74207175616e7469747920746f206c69737420666f60008201527f722073616c650000000000000000000000000000000000000000000000000000602082015250565b600061366660268361272a565b91506136718261360a565b604082019050919050565b6000602082019050818103600083015261369581613659565b9050919050565b60006060820190506136b160008301866126f5565b6136be60208301856126f5565b6136cb604083018461279e565b949350505050565b60006060820190506136e860008301866126f5565b81810360208301526136fa8185612765565b905061370960408301846126f5565b949350505050565b7f43616c6c6572206973206e6f7420616e2061646d696e00000000000000000000600082015250565b600061374760168361272a565b915061375282613711565b602082019050919050565b600060208201905081810360008301526137768161373a565b9050919050565b6000604082019050613792600083018561279e565b61379f60208301846125a7565b939250505056fea2646970667358221220bbb62447bfad11f1920d0008121f30bfe11d87c5ba1031d9239f52f7ebbad1de64736f6c63430008180033",
  "linkReferences": {},
  "deployedLinkReferences": {}
}